{
  "contractName": "ContractProbe",
  "abi": [
    {
      "inputs": [
        {
          "internalType": "address",
          "name": "_addr",
          "type": "address"
        }
      ],
      "name": "probe",
      "outputs": [
        {
          "internalType": "bool",
          "name": "isContract",
          "type": "bool"
        },
        {
          "internalType": "address",
          "name": "forwardedTo",
          "type": "address"
        }
      ],
      "stateMutability": "view",
      "type": "function"
    }
  ],
  "bytecode": "0x608060405234801561001057600080fd5b506102d6806100206000396000f3fe608060405234801561001057600080fd5b506004361061002b5760003560e01c8063275e5da514610030575b600080fd5b6100566004803603602081101561004657600080fd5b50356001600160a01b0316610079565b6040805192151583526001600160a01b0390911660208301528051918290030190f35b60008060606040518060600160405280602d8152602001610274602d9139843b80151594508593509091506060602d82118015906100b8575060298210155b1561026b575060408051603f8301601f19168101909152818152600160008381602085018a3c5060005b8180156100ef5750600981105b1561013b5784818151811061010057fe5b602001015160f81c60f81b6001600160f81b03191683828151811061012157fe5b01602001516001600160f81b0319161491506001016100e2565b5060005b81801561014c5750600f81105b156102085780600414156101b55783602d0385600183602d03038151811061017057fe5b602001015160f81c60f81b60f81c0360f81b6001600160f81b03191683600183865103038151811061019e57fe5b01602001516001600160f81b031916149150610200565b84600182602d0303815181106101c757fe5b016020015183516001600160f81b0319909116908490600019848203019081106101ed57fe5b01602001516001600160f81b0319161491505b60010161013f565b83602d0360730360f81b6001600160f81b0319168360098151811061022957fe5b01602001516001600160f81b0319161461024257600091505b600082156102675750601e8301516001600160a01b03166008602d8690030281901c96505b5050505b50505091509156fe363d3d373d3d3d363d73bebebebebebebebebebebebebebebebebebebebe5af43d82803e903d91602b57fd5bf3a2646970667358221220736c3444d7c24a60da568569a4f580216154d0b6171c1c0ed26790f48d33133f64736f6c63430006060033",
  "immutableReferences": {},
  "source": "pragma solidity 0.6.6;\n\n/*\nThe MIT License (MIT)\n\nCopyright (c) 2018 Murray Software, LLC.\n\nPermission is hereby granted, free of charge, to any person obtaining\na copy of this software and associated documentation files (the\n\"Software\"), to deal in the Software without restriction, including\nwithout limitation the rights to use, copy, modify, merge, publish,\ndistribute, sublicense, and/or sell copies of the Software, and to\npermit persons to whom the Software is furnished to do so, subject to\nthe following conditions:\n\nThe above copyright notice and this permission notice shall be included\nin all copies or substantial portions of the Software.\n\nTHE SOFTWARE IS PROVIDED \"AS IS\", WITHOUT WARRANTY OF ANY KIND, EXPRESS\nOR IMPLIED, INCLUDING BUT NOT LIMITED TO THE WARRANTIES OF\nMERCHANTABILITY, FITNESS FOR A PARTICULAR PURPOSE AND NONINFRINGEMENT.\nIN NO EVENT SHALL THE AUTHORS OR COPYRIGHT HOLDERS BE LIABLE FOR ANY\nCLAIM, DAMAGES OR OTHER LIABILITY, WHETHER IN AN ACTION OF CONTRACT,\nTORT OR OTHERWISE, ARISING FROM, OUT OF OR IN CONNECTION WITH THE\nSOFTWARE OR THE USE OR OTHER DEALINGS IN THE SOFTWARE.\n*/\n//solhint-disable max-line-length\n\ncontract ContractProbe {\n\n    function probe(address _addr) public view returns (bool isContract, address forwardedTo) {\n        bytes memory clone = hex\"363d3d373d3d3d363d73bebebebebebebebebebebebebebebebebebebebe5af43d82803e903d91602b57fd5bf3\";\n        uint size;\n        bytes memory code;\n\n        assembly {  //solhint-disable-line\n            size := extcodesize(_addr)\n        }\n\n        isContract = size > 0;\n        forwardedTo = _addr;\n\n        if (size <= 45 && size >= 41) {\n            bool matches = true;\n            uint i;\n\n            assembly { //solhint-disable-line\n                code := mload(0x40)\n                mstore(0x40, add(code, and(add(add(size, 0x20), 0x1f), not(0x1f))))\n                mstore(code, size)\n                extcodecopy(_addr, add(code, 0x20), 0, size)\n            }\n            for (i = 0; matches && i < 9; i++) { \n                matches = code[i] == clone[i];\n            }\n            for (i = 0; matches && i < 15; i++) {\n                if (i == 4) {\n                    matches = code[code.length - i - 1] == byte(uint8(clone[45 - i - 1]) - uint8(45 - size));\n                } else {\n                    matches = code[code.length - i - 1] == clone[45 - i - 1];\n                }\n            }\n            if (code[9] != byte(uint8(0x73 - (45 - size)))) {\n                matches = false;\n            }\n            uint forwardedToBuffer;\n            if (matches) {\n                assembly { //solhint-disable-line\n                    forwardedToBuffer := mload(add(code, 30))\n                }\n                forwardedToBuffer &= (0x1 << 20 * 8) - 1;\n                forwardedTo = address(forwardedToBuffer >> ((45 - size) * 8));\n            }\n        }\n    }\n}\n",
  "sourcePath": "/Users/Burger/dexe/contracts1/dexe-asset-management/contracts/clone/ContractProbe.sol",
  "compiler": {
    "name": "solc",
    "version": "0.6.6+commit.6c089d02.Emscripten.clang"
  },
  "schemaVersion": "3.2.4",
  "updatedAt": "2021-06-08T10:00:09.390Z",
  "devdoc": {
    "methods": {}
  },
  "userdoc": {
    "methods": {}
  }
}