{
  "contractName": "PancakePathFinder",
  "abi": [
    {
      "inputs": [],
      "name": "initialize",
      "outputs": [],
      "stateMutability": "nonpayable",
      "type": "function"
    },
    {
      "inputs": [
        {
          "internalType": "address",
          "name": "fromToken",
          "type": "address"
        },
        {
          "internalType": "address",
          "name": "toToken",
          "type": "address"
        }
      ],
      "name": "findPath",
      "outputs": [
        {
          "internalType": "address[]",
          "name": "path",
          "type": "address[]"
        }
      ],
      "stateMutability": "view",
      "type": "function"
    },
    {
      "inputs": [
        {
          "internalType": "address",
          "name": "fromToken",
          "type": "address"
        },
        {
          "internalType": "address",
          "name": "toToken",
          "type": "address"
        },
        {
          "internalType": "uint256",
          "name": "fromTokenAmt",
          "type": "uint256"
        }
      ],
      "name": "evaluate",
      "outputs": [
        {
          "internalType": "uint256",
          "name": "",
          "type": "uint256"
        },
        {
          "internalType": "address[]",
          "name": "",
          "type": "address[]"
        }
      ],
      "stateMutability": "view",
      "type": "function"
    },
    {
      "inputs": [
        {
          "internalType": "address",
          "name": "basicToken",
          "type": "address"
        },
        {
          "internalType": "address",
          "name": "assetToken",
          "type": "address"
        },
        {
          "internalType": "uint256",
          "name": "assetAmount",
          "type": "uint256"
        }
      ],
      "name": "getAssetValuation",
      "outputs": [
        {
          "internalType": "uint256",
          "name": "valuation",
          "type": "uint256"
        }
      ],
      "stateMutability": "view",
      "type": "function"
    },
    {
      "inputs": [
        {
          "internalType": "address",
          "name": "assetToken",
          "type": "address"
        },
        {
          "internalType": "uint256",
          "name": "assetTokenAmt",
          "type": "uint256"
        }
      ],
      "name": "getAssetUSDValuation",
      "outputs": [
        {
          "internalType": "uint256",
          "name": "assetTokenOut",
          "type": "uint256"
        }
      ],
      "stateMutability": "view",
      "type": "function"
    }
  ],
  "bytecode": "0x608060405234801561001057600080fd5b50611136806100206000396000f3fe608060405234801561001057600080fd5b50600436106100575760003560e01c80636c3cac381461005c5780638129fc1c1461009a578063a1c421cd146100a4578063dac9318f14610122578063df22dbeb146101b3575b600080fd5b6100886004803603604081101561007257600080fd5b506001600160a01b0381351690602001356101e9565b60408051918252519081900360200190f35b6100a261022f565b005b6100d2600480360360408110156100ba57600080fd5b506001600160a01b03813581169160200135166103e3565b60408051602080825283518183015283519192839290830191858101910280838360005b8381101561010e5781810151838201526020016100f6565b505050509050019250505060405180910390f35b6101586004803603606081101561013857600080fd5b506001600160a01b038135811691602081013590911690604001356103fa565b6040518083815260200180602001828103825283818151815260200191508051906020019060200280838360005b8381101561019e578181015183820152602001610186565b50505050905001935050505060405180910390f35b610088600480360360608110156101c957600080fd5b506001600160a01b03813581169160208101359091169060400135610416565b600073e9e7cea3dedca5984780bafc599bd69add087d566001600160a01b03841681141561021957829150610228565b61022484828561042c565b5091505b5092915050565b600054610100900460ff16806102485750610248610ac7565b80610256575060005460ff16155b6102915760405162461bcd60e51b815260040180806020018281038252602e8152602001806110b2602e913960400191505060405180910390fd5b600054610100900460ff161580156102bc576000805460ff1961ff0019909116610100171660011790555b60016102c6610acd565b6001600160a01b031663ad5c46486040518163ffffffff1660e01b815260040160206040518083038186803b1580156102fe57600080fd5b505afa158015610312573d6000803e3d6000fd5b505050506040513d602081101561032857600080fd5b505181546001818101845560009384526020842090910180546001600160a01b039093166001600160a01b031993841617905580548082018255928190527fb10e2d527612073b26eecdfd717e6a320cf44b4afac2b0732d9fcbe2b7fa0cf69283018054831673e9e7cea3dedca5984780bafc599bd69add087d56179055805480820190915590910180549091167355d398326f99059ff775485246999027b319795517905580156103e0576000805461ff00191690555b50565b60606103f283836103e861042c565b949350505050565b6000606061040985858561042c565b915091505b935093915050565b600061042383858461042c565b50949350505050565b60006060836001600160a01b0316856001600160a01b03161415610462575050604080516000815260208101909152819061040e565b6040805160028082526060808301845292602083019080368337019050509050858160008151811061049057fe5b60200260200101906001600160a01b031690816001600160a01b03168152505084816001815181106104be57fe5b60200260200101906001600160a01b031690816001600160a01b03168152505060006104f26104eb610ae5565b8684610b58565b6001815181106104fe57fe5b602002602001015190506060600367ffffffffffffffff8111801561052257600080fd5b5060405190808252806020026020018201604052801561054c578160200160208202803683370190505b509050878160008151811061055d57fe5b60200260200101906001600160a01b031690816001600160a01b031681525050868160028151811061058b57fe5b6001600160a01b039092166020928302919091019091015260005b60015481101561072357600181815481106105bd57fe5b6000918252602090912001546001600160a01b038a81169116148015906106085750600181815481106105ec57fe5b6000918252602090912001546001600160a01b03898116911614155b1561071b576001818154811061061a57fe5b9060005260206000200160009054906101000a90046001600160a01b03168260018151811061064557fe5b60200260200101906001600160a01b031690816001600160a01b0316815250506000610679610672610ae5565b8985610b58565b60018451038151811061068857fe5b6020026020010151905083811115610719576040805160038082526080820190925291945084919060208201606080368337019050509450600182815481106106cd57fe5b9060005260206000200160009054906101000a90046001600160a01b0316856001815181106106f857fe5b60200260200101906001600160a01b031690816001600160a01b0316815250505b505b6001016105a6565b50825160031480156107355750600082115b15610a635760408051600480825260a082019092529060208201608080368337019050509050878160008151811061076957fe5b60200260200101906001600160a01b031690816001600160a01b031681525050868160038151811061079757fe5b6001600160a01b039092166020928302919091019091015260005b600154811015610a615760005b600154811015610a58578082141580156107fd5750600182815481106107e157fe5b6000918252602090912001546001600160a01b038b8116911614155b801561082d57506001828154811061081157fe5b6000918252602090912001546001600160a01b038a8116911614155b801561085d57506001818154811061084157fe5b6000918252602090912001546001600160a01b038b8116911614155b801561088d57506001818154811061087157fe5b6000918252602090912001546001600160a01b038a8116911614155b15610a50576001828154811061089f57fe5b9060005260206000200160009054906101000a90046001600160a01b0316836001815181106108ca57fe5b60200260200101906001600160a01b031690816001600160a01b031681525050600181815481106108f757fe5b9060005260206000200160009054906101000a90046001600160a01b03168360028151811061092257fe5b60200260200101906001600160a01b031690816001600160a01b031681525050600061095661094f610ae5565b8a86610b58565b60018551038151811061096557fe5b6020026020010151905084811115610a4e5760408051600480825260a0820190925291955085919060208201608080368337019050509550600183815481106109aa57fe5b9060005260206000200160009054906101000a90046001600160a01b0316866001815181106109d557fe5b60200260200101906001600160a01b031690816001600160a01b03168152505060018281548110610a0257fe5b9060005260206000200160009054906101000a90046001600160a01b031686600281518110610a2d57fe5b60200260200101906001600160a01b031690816001600160a01b0316815250505b505b6001016107bf565b506001016107b2565b505b8783600081518110610a7157fe5b60200260200101906001600160a01b031690816001600160a01b0316815250508683600185510381518110610aa257fe5b6001600160a01b03909216602092830291909101909101525092509050935093915050565b303b1590565b7305ff2b0db69458a0750badebc4f9e13add608c7f90565b6000610aef610acd565b6001600160a01b031663c45a01556040518163ffffffff1660e01b815260040160206040518083038186803b158015610b2757600080fd5b505afa158015610b3b573d6000803e3d6000fd5b505050506040513d6020811015610b5157600080fd5b5051905090565b6060600282511015610bb1576040805162461bcd60e51b815260206004820152601c60248201527f50616e63616b654c6962726172793a20494e56414c49445f5041544800000000604482015290519081900360640190fd5b815167ffffffffffffffff81118015610bc957600080fd5b50604051908082528060200260200182016040528015610bf3578160200160208202803683370190505b5090508281600081518110610c0457fe5b60200260200101818152505060005b6001835103811015610c9c57600080610c5687868581518110610c3257fe5b6020026020010151878660010181518110610c4957fe5b6020026020010151610ca4565b91509150610c78848481518110610c6957fe5b60200260200101518383610d9d565b848460010181518110610c8757fe5b60209081029190910101525050600101610c13565b509392505050565b6000806000610cb38585610e2e565b5090506000610cc3878787610f0c565b9050610cce81610fcc565b610cde5760009350839250610d93565b600080610cec898989610f0c565b6001600160a01b0316630902f1ac6040518163ffffffff1660e01b815260040160606040518083038186803b158015610d2457600080fd5b505afa158015610d38573d6000803e3d6000fd5b505050506040513d6060811015610d4e57600080fd5b5080516020909101516dffffffffffffffffffffffffffff91821693501690506001600160a01b0388811690851614610d88578082610d8b565b81815b909650945050505b5050935093915050565b60008084118015610dae5750600083115b8015610dba5750600082115b15610e23576000610dd3856103e663ffffffff610fd216565b90506000610de7828563ffffffff610fd216565b90506000610e0d83610e01886103e863ffffffff610fd216565b9063ffffffff61103416565b9050808281610e1857fe5b049350505050610e27565b5060005b9392505050565b600080826001600160a01b0316846001600160a01b03161415610e825760405162461bcd60e51b815260040180806020018281038252602381526020018061108f6023913960400191505060405180910390fd5b826001600160a01b0316846001600160a01b031610610ea2578284610ea5565b83835b90925090506001600160a01b038216610f05576040805162461bcd60e51b815260206004820152601c60248201527f50616e63616b654c6962726172793a205a45524f5f4144445245535300000000604482015290519081900360640190fd5b9250929050565b6000806000610f1b8585610e2e565b604080516bffffffffffffffffffffffff19606094851b811660208084019190915293851b81166034830152825160288184030181526048830184528051908501206001600160f81b031960688401529a90941b9093166069840152607d8301989098527fd0d4c4cd0848c93cb4fd1f498d7013ee6bfb25783ea21593d5834f5d250ece66609d808401919091528851808403909101815260bd909201909752805196019590952095945050505050565b3b151590565b600082610fe15750600061102e565b82820282848281610fee57fe5b041461102b5760405162461bcd60e51b81526004018080602001828103825260218152602001806110e06021913960400191505060405180910390fd5b90505b92915050565b60008282018381101561102b576040805162461bcd60e51b815260206004820152601b60248201527f536166654d6174683a206164646974696f6e206f766572666c6f770000000000604482015290519081900360640190fdfe50616e63616b654c6962726172793a204944454e544943414c5f414444524553534553496e697469616c697a61626c653a20636f6e747261637420697320616c726561647920696e697469616c697a6564536166654d6174683a206d756c7469706c69636174696f6e206f766572666c6f77a2646970667358221220457fbcac80691edb15ecd5c6e7268fac5df97d01137d47dcc226a0c03bb43f4464736f6c63430006060033",
  "immutableReferences": {},
  "source": "// SPDX-License-Identifier: MIT\npragma solidity 0.6.6;\n\nimport \"@openzeppelin/contracts-upgradeable/proxy/Initializable.sol\";\nimport \"@openzeppelin/contracts-upgradeable/utils/AddressUpgradeable.sol\";\nimport \"@openzeppelin/contracts-upgradeable/math/SafeMathUpgradeable.sol\";\nimport \"./pancake/interfaces/IPancakeRouter01.sol\";\nimport \"./pancake/interfaces/IPancakePair.sol\";\nimport \"./interfaces/IAssetValuationManager.sol\";\n\ncontract PancakePathFinder is Initializable, IAssetValuationManager{\n  using SafeMathUpgradeable for uint256;\n\n  address[] internal intermediateTokens;\n\n  function initialize() public initializer {\n    intermediateTokens.push(IPancakeRouter01(pancakeRouter()).WETH()); //wbnb\n    intermediateTokens.push(0xe9e7CEA3DedcA5984780Bafc599bD69ADd087D56); //busd\n    intermediateTokens.push(0x55d398326f99059fF775485246999027B3197955); //usdt\n  }\n\n  function findPath(address fromToken, address toToken) public view returns (address[] memory path) {\n    (, path) = evaluatePath(fromToken, toToken, 1000);\n  }\n\n  function evaluate(address fromToken, address toToken, uint256 fromTokenAmt) public view returns (uint256, address[] memory) {\n    return evaluatePath(fromToken, toToken, fromTokenAmt);\n  }\n\n  function getAssetValuation(address basicToken, address assetToken, uint256 assetAmount) public override view returns (uint256 valuation) {\n      (valuation, ) = evaluatePath(assetToken, basicToken, assetAmount);\n  }\n\n  function getAssetUSDValuation(address assetToken, uint256 assetTokenAmt) public override view returns (uint256 assetTokenOut) {\n    address usdPeggedCoinAddress = 0xe9e7CEA3DedcA5984780Bafc599bD69ADd087D56; //busd\n    if(assetToken == usdPeggedCoinAddress){\n      assetTokenOut = assetTokenAmt;\n    }\n    else {\n     (assetTokenOut,) = evaluatePath(assetToken, usdPeggedCoinAddress, assetTokenAmt);\n    }\n  }\n\n  function pancakePositionCap(address basicToken, address toToken, uint256 liquidity) internal view returns (uint256){\n      (uint reserveB, uint reserveA) = getReserves(IPancakeRouter01(pancakeRouter()).factory(), basicToken, toToken);\n      return getAmountOut(liquidity, reserveA, reserveB);\n  }\n\n  function pancakeRouter() internal view returns (address){\n      return 0x05fF2B0DB69458A0750badebc4f9e13aDd608C7F;\n  }\n\n  function pancakeFactory() internal view returns (address){\n      return IPancakeRouter01(pancakeRouter()).factory();\n  } \n\n  function evaluatePath(address fromToken, address toToken, uint256 fromTokenAmt) internal view returns (uint256, address[] memory) {\n    if(fromToken == toToken)\n      return (fromTokenAmt, new address[](0));\n    address[] memory path = new address[](2);\n    path[0] = fromToken;\n    path[1] = toToken;\n    uint256 resultingAmt = getAmountsOut(pancakeFactory(),fromTokenAmt,path)[1];\n\n    address[] memory internalPath = new address[](3);\n    internalPath[0] = fromToken;\n    internalPath[2] = toToken;\n    for(uint i =0;i < intermediateTokens.length; i++){\n      if(fromToken != intermediateTokens[i] && toToken!= intermediateTokens[i]){\n        internalPath[1] = intermediateTokens[i];\n        uint256 internalResultAmt = getAmountsOut(pancakeFactory(),fromTokenAmt,internalPath)[internalPath.length-1];\n        if(internalResultAmt > resultingAmt){\n          resultingAmt = internalResultAmt;\n          path = new address[](3);\n          path[1] = intermediateTokens[i];\n        }\n      }\n    }\n\n    if(path.length == 3 && resultingAmt>0) { //avoid trying path[4] if intermediate was not successful && direct path gives non zero result\n      internalPath = new address[](4);\n      internalPath[0] = fromToken;\n      internalPath[3] = toToken;\n      for(uint i = 0;i < intermediateTokens.length; i++){\n        for (uint j = 0; j < intermediateTokens.length; j++){\n          if( i != j && fromToken != intermediateTokens[i] && toToken!= intermediateTokens[i] && fromToken != intermediateTokens[j] && toToken != intermediateTokens[j]) {\n            internalPath[1] = intermediateTokens[i];\n            internalPath[2] = intermediateTokens[j];\n            uint256 internalResultAmt = getAmountsOut(pancakeFactory(),fromTokenAmt,internalPath)[internalPath.length-1];\n            if(internalResultAmt > resultingAmt){\n              resultingAmt = internalResultAmt;\n              path = new address[](4);\n              path[1] = intermediateTokens[i];\n              path[2] = intermediateTokens[j];\n            }\n          }\n        }\n      }\n    }\n\n    path[0] = fromToken;\n    path[path.length-1] = toToken;\n\n    return (resultingAmt,path);\n  }\n\n // returns sorted token addresses, used to handle return values from pairs sorted in this order\n    function sortTokens(address tokenA, address tokenB) internal pure returns (address token0, address token1) {\n        require(tokenA != tokenB, 'PancakeLibrary: IDENTICAL_ADDRESSES');\n        (token0, token1) = tokenA < tokenB ? (tokenA, tokenB) : (tokenB, tokenA);\n        require(token0 != address(0), 'PancakeLibrary: ZERO_ADDRESS');\n    }\n\n   // calculates the CREATE2 address for a pair without making any external calls\n    function pairFor(address factory, address tokenA, address tokenB) internal pure returns (address pair) {\n        (address token0, address token1) = sortTokens(tokenA, tokenB);\n        pair = address(uint(keccak256(abi.encodePacked(\n                hex'ff',\n                factory,\n                keccak256(abi.encodePacked(token0, token1)),\n                hex'd0d4c4cd0848c93cb4fd1f498d7013ee6bfb25783ea21593d5834f5d250ece66' // init code hash\n            ))));\n    }\n\n\n    // fetches and sorts the reserves for a pair\n    function getReserves(address factory, address tokenA, address tokenB) internal view returns (uint reserveA, uint reserveB) {\n        (address token0,) = sortTokens(tokenA, tokenB);\n        address pairAddress = pairFor(factory, tokenA, tokenB);\n        if(!AddressUpgradeable.isContract(pairAddress)){\n          (reserveA, reserveB) = (0,0);\n        } else{ \n          (uint reserve0, uint reserve1,) = IPancakePair(pairFor(factory, tokenA, tokenB)).getReserves();\n          (reserveA, reserveB) = tokenA == token0 ? (reserve0, reserve1) : (reserve1, reserve0);\n        }\n    }\n\n        // given an input amount of an asset and pair reserves, returns the maximum output amount of the other asset\n    function getAmountOut(uint amountIn, uint reserveIn, uint reserveOut) internal pure returns (uint amountOut) {\n        // require(amountIn > 0, 'PancakeLibrary: INSUFFICIENT_INPUT_AMOUNT');\n        // require(reserveIn > 0 && reserveOut > 0, 'PancakeLibrary: INSUFFICIENT_LIQUIDITY');\n        if(amountIn>0 && reserveIn > 0 && reserveOut > 0 ){\n          uint amountInWithFee = amountIn.mul(998);\n          uint numerator = amountInWithFee.mul(reserveOut);\n          uint denominator = reserveIn.mul(1000).add(amountInWithFee);\n          amountOut = numerator / denominator;\n        }else {\n          amountOut = 0;\n        }\n    }\n\n    // performs chained getAmountOut calculations on any number of pairs\n    function getAmountsOut(address factory, uint amountIn, address[] memory path) internal view returns (uint[] memory amounts) {\n        require(path.length >= 2, 'PancakeLibrary: INVALID_PATH');\n        amounts = new uint[](path.length);\n        amounts[0] = amountIn;\n        for (uint i; i < path.length - 1; i++) {\n            (uint reserveIn, uint reserveOut) = getReserves(factory, path[i], path[i + 1]);\n            amounts[i + 1] = getAmountOut(amounts[i], reserveIn, reserveOut);\n        }\n    }\n}\n",
  "sourcePath": "/Users/Burger/dexe/contracts1/dexe-asset-management/contracts/PancakePathFinder.sol",
  "compiler": {
    "name": "solc",
    "version": "0.6.6+commit.6c089d02.Emscripten.clang"
  },
  "schemaVersion": "3.2.4",
  "updatedAt": "2021-05-31T12:09:06.665Z",
  "devdoc": {
    "methods": {}
  },
  "userdoc": {
    "methods": {}
  }
}