{
  "contractName": "ParamKeeper",
  "abi": [
    {
      "inputs": [],
      "stateMutability": "nonpayable",
      "type": "constructor"
    },
    {
      "anonymous": false,
      "inputs": [
        {
          "indexed": true,
          "internalType": "address",
          "name": "previousOwner",
          "type": "address"
        },
        {
          "indexed": true,
          "internalType": "address",
          "name": "newOwner",
          "type": "address"
        }
      ],
      "name": "OwnershipTransferred",
      "type": "event"
    },
    {
      "anonymous": false,
      "inputs": [
        {
          "indexed": true,
          "internalType": "bytes32",
          "name": "role",
          "type": "bytes32"
        },
        {
          "indexed": true,
          "internalType": "bytes32",
          "name": "previousAdminRole",
          "type": "bytes32"
        },
        {
          "indexed": true,
          "internalType": "bytes32",
          "name": "newAdminRole",
          "type": "bytes32"
        }
      ],
      "name": "RoleAdminChanged",
      "type": "event"
    },
    {
      "anonymous": false,
      "inputs": [
        {
          "indexed": true,
          "internalType": "bytes32",
          "name": "role",
          "type": "bytes32"
        },
        {
          "indexed": true,
          "internalType": "address",
          "name": "account",
          "type": "address"
        },
        {
          "indexed": true,
          "internalType": "address",
          "name": "sender",
          "type": "address"
        }
      ],
      "name": "RoleGranted",
      "type": "event"
    },
    {
      "anonymous": false,
      "inputs": [
        {
          "indexed": true,
          "internalType": "bytes32",
          "name": "role",
          "type": "bytes32"
        },
        {
          "indexed": true,
          "internalType": "address",
          "name": "account",
          "type": "address"
        },
        {
          "indexed": true,
          "internalType": "address",
          "name": "sender",
          "type": "address"
        }
      ],
      "name": "RoleRevoked",
      "type": "event"
    },
    {
      "inputs": [],
      "name": "DEFAULT_ADMIN_ROLE",
      "outputs": [
        {
          "internalType": "bytes32",
          "name": "",
          "type": "bytes32"
        }
      ],
      "stateMutability": "view",
      "type": "function"
    },
    {
      "inputs": [],
      "name": "MANAGER_ROLE",
      "outputs": [
        {
          "internalType": "bytes32",
          "name": "",
          "type": "bytes32"
        }
      ],
      "stateMutability": "view",
      "type": "function"
    },
    {
      "inputs": [
        {
          "internalType": "uint16",
          "name": "",
          "type": "uint16"
        }
      ],
      "name": "addressParams",
      "outputs": [
        {
          "internalType": "address",
          "name": "",
          "type": "address"
        }
      ],
      "stateMutability": "view",
      "type": "function"
    },
    {
      "inputs": [
        {
          "internalType": "address",
          "name": "",
          "type": "address"
        }
      ],
      "name": "assetManagers",
      "outputs": [
        {
          "internalType": "bool",
          "name": "",
          "type": "bool"
        }
      ],
      "stateMutability": "view",
      "type": "function"
    },
    {
      "inputs": [
        {
          "internalType": "bytes32",
          "name": "role",
          "type": "bytes32"
        }
      ],
      "name": "getRoleAdmin",
      "outputs": [
        {
          "internalType": "bytes32",
          "name": "",
          "type": "bytes32"
        }
      ],
      "stateMutability": "view",
      "type": "function"
    },
    {
      "inputs": [
        {
          "internalType": "bytes32",
          "name": "role",
          "type": "bytes32"
        },
        {
          "internalType": "uint256",
          "name": "index",
          "type": "uint256"
        }
      ],
      "name": "getRoleMember",
      "outputs": [
        {
          "internalType": "address",
          "name": "",
          "type": "address"
        }
      ],
      "stateMutability": "view",
      "type": "function"
    },
    {
      "inputs": [
        {
          "internalType": "bytes32",
          "name": "role",
          "type": "bytes32"
        }
      ],
      "name": "getRoleMemberCount",
      "outputs": [
        {
          "internalType": "uint256",
          "name": "",
          "type": "uint256"
        }
      ],
      "stateMutability": "view",
      "type": "function"
    },
    {
      "inputs": [
        {
          "internalType": "address",
          "name": "",
          "type": "address"
        }
      ],
      "name": "globalWhitelist",
      "outputs": [
        {
          "internalType": "bool",
          "name": "",
          "type": "bool"
        }
      ],
      "stateMutability": "view",
      "type": "function"
    },
    {
      "inputs": [
        {
          "internalType": "bytes32",
          "name": "role",
          "type": "bytes32"
        },
        {
          "internalType": "address",
          "name": "account",
          "type": "address"
        }
      ],
      "name": "grantRole",
      "outputs": [],
      "stateMutability": "nonpayable",
      "type": "function"
    },
    {
      "inputs": [
        {
          "internalType": "bytes32",
          "name": "role",
          "type": "bytes32"
        },
        {
          "internalType": "address",
          "name": "account",
          "type": "address"
        }
      ],
      "name": "hasRole",
      "outputs": [
        {
          "internalType": "bool",
          "name": "",
          "type": "bool"
        }
      ],
      "stateMutability": "view",
      "type": "function"
    },
    {
      "inputs": [],
      "name": "owner",
      "outputs": [
        {
          "internalType": "address",
          "name": "",
          "type": "address"
        }
      ],
      "stateMutability": "view",
      "type": "function"
    },
    {
      "inputs": [],
      "name": "renounceOwnership",
      "outputs": [],
      "stateMutability": "nonpayable",
      "type": "function"
    },
    {
      "inputs": [
        {
          "internalType": "bytes32",
          "name": "role",
          "type": "bytes32"
        },
        {
          "internalType": "address",
          "name": "account",
          "type": "address"
        }
      ],
      "name": "renounceRole",
      "outputs": [],
      "stateMutability": "nonpayable",
      "type": "function"
    },
    {
      "inputs": [
        {
          "internalType": "bytes32",
          "name": "role",
          "type": "bytes32"
        },
        {
          "internalType": "address",
          "name": "account",
          "type": "address"
        }
      ],
      "name": "revokeRole",
      "outputs": [],
      "stateMutability": "nonpayable",
      "type": "function"
    },
    {
      "inputs": [
        {
          "internalType": "address",
          "name": "newOwner",
          "type": "address"
        }
      ],
      "name": "transferOwnership",
      "outputs": [],
      "stateMutability": "nonpayable",
      "type": "function"
    },
    {
      "inputs": [
        {
          "internalType": "uint16",
          "name": "",
          "type": "uint16"
        }
      ],
      "name": "uintParams",
      "outputs": [
        {
          "internalType": "uint256",
          "name": "",
          "type": "uint256"
        }
      ],
      "stateMutability": "view",
      "type": "function"
    },
    {
      "inputs": [
        {
          "internalType": "uint16",
          "name": "_key",
          "type": "uint16"
        },
        {
          "internalType": "address",
          "name": "_value",
          "type": "address"
        }
      ],
      "name": "setParamAddress",
      "outputs": [],
      "stateMutability": "nonpayable",
      "type": "function"
    },
    {
      "inputs": [
        {
          "internalType": "uint16",
          "name": "_key",
          "type": "uint16"
        },
        {
          "internalType": "uint256",
          "name": "_value",
          "type": "uint256"
        }
      ],
      "name": "setParamUInt256",
      "outputs": [],
      "stateMutability": "nonpayable",
      "type": "function"
    },
    {
      "inputs": [
        {
          "internalType": "address",
          "name": "_address",
          "type": "address"
        }
      ],
      "name": "setAssetAutomaticExchangeManager",
      "outputs": [],
      "stateMutability": "nonpayable",
      "type": "function"
    },
    {
      "inputs": [
        {
          "internalType": "address",
          "name": "_address",
          "type": "address"
        }
      ],
      "name": "setAssetValuationManager",
      "outputs": [],
      "stateMutability": "nonpayable",
      "type": "function"
    },
    {
      "inputs": [
        {
          "internalType": "address",
          "name": "_manager",
          "type": "address"
        }
      ],
      "name": "addAssetManager",
      "outputs": [],
      "stateMutability": "nonpayable",
      "type": "function"
    },
    {
      "inputs": [
        {
          "internalType": "address",
          "name": "_manager",
          "type": "address"
        }
      ],
      "name": "removeAssetManager",
      "outputs": [],
      "stateMutability": "nonpayable",
      "type": "function"
    },
    {
      "inputs": [
        {
          "internalType": "address",
          "name": "_token",
          "type": "address"
        }
      ],
      "name": "whitelistToken",
      "outputs": [],
      "stateMutability": "nonpayable",
      "type": "function"
    },
    {
      "inputs": [
        {
          "internalType": "address",
          "name": "_token",
          "type": "address"
        }
      ],
      "name": "delistToken",
      "outputs": [],
      "stateMutability": "nonpayable",
      "type": "function"
    },
    {
      "inputs": [
        {
          "internalType": "uint16",
          "name": "key",
          "type": "uint16"
        }
      ],
      "name": "getAddress",
      "outputs": [
        {
          "internalType": "address",
          "name": "",
          "type": "address"
        }
      ],
      "stateMutability": "view",
      "type": "function"
    },
    {
      "inputs": [
        {
          "internalType": "uint16",
          "name": "key",
          "type": "uint16"
        }
      ],
      "name": "getUInt256",
      "outputs": [
        {
          "internalType": "uint256",
          "name": "",
          "type": "uint256"
        }
      ],
      "stateMutability": "view",
      "type": "function"
    },
    {
      "inputs": [
        {
          "internalType": "address",
          "name": "token",
          "type": "address"
        }
      ],
      "name": "isWhitelisted",
      "outputs": [
        {
          "internalType": "bool",
          "name": "",
          "type": "bool"
        }
      ],
      "stateMutability": "view",
      "type": "function"
    },
    {
      "inputs": [
        {
          "internalType": "address",
          "name": "_manager",
          "type": "address"
        }
      ],
      "name": "isAllowedAssetManager",
      "outputs": [
        {
          "internalType": "bool",
          "name": "",
          "type": "bool"
        }
      ],
      "stateMutability": "view",
      "type": "function"
    },
    {
      "inputs": [],
      "name": "getAssetAutomaticExchangeManager",
      "outputs": [
        {
          "internalType": "contract IAssetAutomaticExchangeManager",
          "name": "",
          "type": "address"
        }
      ],
      "stateMutability": "view",
      "type": "function"
    },
    {
      "inputs": [],
      "name": "getAssetValuationManager",
      "outputs": [
        {
          "internalType": "contract IAssetValuationManager",
          "name": "",
          "type": "address"
        }
      ],
      "stateMutability": "view",
      "type": "function"
    }
  ],
  "bytecode": "0x60806040523480156200001157600080fd5b506000620000276001600160e01b03620000d816565b600080546001600160a01b0319166001600160a01b0383169081178255604051929350917f8be0079c531659141344cd1fd0a4f28419497f9722a3daafe3b4186f6b6457e0908290a3506200009960006200008a6001600160e01b03620000d816565b6001600160e01b03620000dc16565b604080516b4d414e414745525f524f4c4560a01b8152905190819003600c019020620000d2906200008a6001600160e01b03620000d816565b62000212565b3390565b620000f182826001600160e01b03620000f516565b5050565b60008281526001602090815260409091206200011c91839062000fef62000179821b17901c565b15620000f157620001356001600160e01b03620000d816565b6001600160a01b0316816001600160a01b0316837f2f8788117e7eff1d82e926ec794901d17c78024a50270940304540a733656f0d60405160405180910390a45050565b600062000199836001600160a01b0384166001600160e01b03620001a216565b90505b92915050565b6000620001b983836001600160e01b03620001fa16565b620001f1575081546001818101845560008481526020808220909301849055845484825282860190935260409020919091556200019c565b5060006200019c565b60009081526001919091016020526040902054151590565b6112d580620002226000396000f3fe608060405234801561001057600080fd5b50600436106101da5760003560e01c80639cdd876e11610104578063d54e945b116100a2578063f2fde38b11610071578063f2fde38b1461054a578063f6d9325b14610570578063fda1213b14610596578063fef0c4a1146105b7576101da565b8063d54e945b146104f3578063d6a235f914610514578063dbdf793e1461051c578063ec87621c14610542576101da565b8063abffc9ac116100de578063abffc9ac14610454578063c9513e6a1461047a578063ca15c873146104aa578063d547741f146104c7576101da565b80639cdd876e1461041e578063a217fddf14610426578063a6e65ca61461042e576101da565b806356314c3a1161017c5780638da5cb5b1161014b5780638da5cb5b146103a15780639010d07c146103a957806391d14854146103cc578063987ea899146103f8576101da565b806356314c3a1461032b5780635b0465211461034c5780636247f6f214610373578063715018a614610399576101da565b806336568abe116101b857806336568abe1461026257806336a3762f1461028e578063381906d6146102cb5780633af32abf146102f1576101da565b8063248a9ca3146101df5780632f2ff15d1461020e578063358bca771461023c575b600080fd5b6101fc600480360360208110156101f557600080fd5b50356105dd565b60408051918252519081900360200190f35b61023a6004803603604081101561022457600080fd5b50803590602001356001600160a01b03166105f2565b005b61023a6004803603602081101561025257600080fd5b50356001600160a01b031661065e565b61023a6004803603604081101561027857600080fd5b50803590602001356001600160a01b03166106e9565b6102af600480360360208110156102a457600080fd5b503561ffff1661074a565b604080516001600160a01b039092168252519081900360200190f35b61023a600480360360208110156102e157600080fd5b50356001600160a01b0316610765565b6103176004803603602081101561030757600080fd5b50356001600160a01b03166107f1565b604080519115158252519081900360200190f35b6101fc6004803603602081101561034157600080fd5b503561ffff1661080f565b61023a6004803603604081101561036257600080fd5b5061ffff8135169060200135610825565b61023a6004803603602081101561038957600080fd5b50356001600160a01b03166108a6565b61023a610934565b6102af6109fc565b6102af600480360360408110156103bf57600080fd5b5080359060200135610a0b565b610317600480360360408110156103e257600080fd5b50803590602001356001600160a01b0316610a32565b61023a6004803603602081101561040e57600080fd5b50356001600160a01b0316610a50565b6102af610ade565b6101fc610aed565b6103176004803603602081101561044457600080fd5b50356001600160a01b0316610af2565b61023a6004803603602081101561046a57600080fd5b50356001600160a01b0316610b07565b61023a6004803603604081101561049057600080fd5b50803561ffff1690602001356001600160a01b0316610b92565b6101fc600480360360208110156104c057600080fd5b5035610c30565b61023a600480360360408110156104dd57600080fd5b50803590602001356001600160a01b0316610c47565b6101fc6004803603602081101561050957600080fd5b503561ffff16610ca0565b6102af610cb2565b61023a6004803603602081101561053257600080fd5b50356001600160a01b0316610cc1565b6101fc610d4d565b61023a6004803603602081101561056057600080fd5b50356001600160a01b0316610d71565b6103176004803603602081101561058657600080fd5b50356001600160a01b0316610e8f565b6102af600480360360208110156105ac57600080fd5b503561ffff16610ead565b610317600480360360208110156105cd57600080fd5b50356001600160a01b0316610ecc565b60009081526001602052604090206002015490565b60008281526001602052604090206002015461061590610610610ee1565b610a32565b6106505760405162461bcd60e51b815260040180806020018281038252602f8152602001806111cc602f913960400191505060405180910390fd5b61065a8282610ee5565b5050565b604080516b4d414e414745525f524f4c4560a01b8152905190819003600c0190206106899033610a32565b6106c8576040805162461bcd60e51b81526020600482015260196024820152600080516020611251833981519152604482015290519081900360640190fd5b6001600160a01b03166000908152600560205260409020805460ff19169055565b6106f1610ee1565b6001600160a01b0316816001600160a01b0316146107405760405162461bcd60e51b815260040180806020018281038252602f815260200180611271602f913960400191505060405180910390fd5b61065a8282610f54565b6003602052600090815260409020546001600160a01b031681565b604080516b4d414e414745525f524f4c4560a01b8152905190819003600c0190206107909033610a32565b6107cf576040805162461bcd60e51b81526020600482015260196024820152600080516020611251833981519152604482015290519081900360640190fd5b600680546001600160a01b0319166001600160a01b0392909216919091179055565b6001600160a01b031660009081526002602052604090205460ff1690565b61ffff1660009081526004602052604090205490565b604080516b4d414e414745525f524f4c4560a01b8152905190819003600c0190206108509033610a32565b61088f576040805162461bcd60e51b81526020600482015260196024820152600080516020611251833981519152604482015290519081900360640190fd5b61ffff909116600090815260046020526040902055565b604080516b4d414e414745525f524f4c4560a01b8152905190819003600c0190206108d19033610a32565b610910576040805162461bcd60e51b81526020600482015260196024820152600080516020611251833981519152604482015290519081900360640190fd5b6001600160a01b03166000908152600260205260409020805460ff19166001179055565b61093c610ee1565b6000546001600160a01b039081169116148061096157506000546001600160a01b0316155b6109b2576040805162461bcd60e51b815260206004820181905260248201527f4f776e61626c653a2063616c6c6572206973206e6f7420746865206f776e6572604482015290519081900360640190fd5b600080546040516001600160a01b03909116907f8be0079c531659141344cd1fd0a4f28419497f9722a3daafe3b4186f6b6457e0908390a3600080546001600160a01b0319169055565b6000546001600160a01b031690565b6000828152600160205260408120610a29908363ffffffff610fc316565b90505b92915050565b6000828152600160205260408120610a29908363ffffffff610fcf16565b604080516b4d414e414745525f524f4c4560a01b8152905190819003600c019020610a7b9033610a32565b610aba576040805162461bcd60e51b81526020600482015260196024820152600080516020611251833981519152604482015290519081900360640190fd5b6001600160a01b03166000908152600560205260409020805460ff19166001179055565b6006546001600160a01b031690565b600081565b60056020526000908152604090205460ff1681565b604080516b4d414e414745525f524f4c4560a01b8152905190819003600c019020610b329033610a32565b610b71576040805162461bcd60e51b81526020600482015260196024820152600080516020611251833981519152604482015290519081900360640190fd5b6001600160a01b03166000908152600260205260409020805460ff19169055565b604080516b4d414e414745525f524f4c4560a01b8152905190819003600c019020610bbd9033610a32565b610bfc576040805162461bcd60e51b81526020600482015260196024820152600080516020611251833981519152604482015290519081900360640190fd5b61ffff91909116600090815260036020526040902080546001600160a01b0319166001600160a01b03909216919091179055565b6000818152600160205260408120610a2c90610fe4565b600082815260016020526040902060020154610c6590610610610ee1565b6107405760405162461bcd60e51b81526004018080602001828103825260308152602001806112216030913960400191505060405180910390fd5b60046020526000908152604090205481565b6007546001600160a01b031690565b604080516b4d414e414745525f524f4c4560a01b8152905190819003600c019020610cec9033610a32565b610d2b576040805162461bcd60e51b81526020600482015260196024820152600080516020611251833981519152604482015290519081900360640190fd5b600780546001600160a01b0319166001600160a01b0392909216919091179055565b604080516b4d414e414745525f524f4c4560a01b8152905190819003600c01902081565b610d79610ee1565b6000546001600160a01b0390811691161480610d9e57506000546001600160a01b0316155b610def576040805162461bcd60e51b815260206004820181905260248201527f4f776e61626c653a2063616c6c6572206973206e6f7420746865206f776e6572604482015290519081900360640190fd5b6001600160a01b038116610e345760405162461bcd60e51b81526004018080602001828103825260268152602001806111fb6026913960400191505060405180910390fd5b600080546040516001600160a01b03808516939216917f8be0079c531659141344cd1fd0a4f28419497f9722a3daafe3b4186f6b6457e091a3600080546001600160a01b0319166001600160a01b0392909216919091179055565b6001600160a01b031660009081526005602052604090205460ff1690565b61ffff166000908152600360205260409020546001600160a01b031690565b60026020526000908152604090205460ff1681565b3390565b6000828152600160205260409020610f03908263ffffffff610fef16565b1561065a57610f10610ee1565b6001600160a01b0316816001600160a01b0316837f2f8788117e7eff1d82e926ec794901d17c78024a50270940304540a733656f0d60405160405180910390a45050565b6000828152600160205260409020610f72908263ffffffff61100416565b1561065a57610f7f610ee1565b6001600160a01b0316816001600160a01b0316837ff6391f5c32d9c69d2a47ea670b442974b53935d1edc7fd64eb21e047a839171b60405160405180910390a45050565b6000610a298383611019565b6000610a29836001600160a01b03841661107d565b6000610a2c82611095565b6000610a29836001600160a01b038416611099565b6000610a29836001600160a01b0384166110e3565b8154600090821061105b5760405162461bcd60e51b81526004018080602001828103825260228152602001806111aa6022913960400191505060405180910390fd5b82600001828154811061106a57fe5b9060005260206000200154905092915050565b60009081526001919091016020526040902054151590565b5490565b60006110a5838361107d565b6110db57508154600181810184556000848152602080822090930184905584548482528286019093526040902091909155610a2c565b506000610a2c565b6000818152600183016020526040812054801561119f578354600019808301919081019060009087908390811061111657fe5b906000526020600020015490508087600001848154811061113357fe5b60009182526020808320909101929092558281526001898101909252604090209084019055865487908061116357fe5b60019003818190600052602060002001600090559055866001016000878152602001908152602001600020600090556001945050505050610a2c565b6000915050610a2c56fe456e756d657261626c655365743a20696e646578206f7574206f6620626f756e6473416363657373436f6e74726f6c3a2073656e646572206d75737420626520616e2061646d696e20746f206772616e744f776e61626c653a206e6577206f776e657220697320746865207a65726f2061646472657373416363657373436f6e74726f6c3a2073656e646572206d75737420626520616e2061646d696e20746f207265766f6b6543616c6c6572206973206e6f7420746865204d616e6167657200000000000000416363657373436f6e74726f6c3a2063616e206f6e6c792072656e6f756e636520726f6c657320666f722073656c66a2646970667358221220281612bdf90b6e53f649ced5a88897f208e8cbdeb002301ad527a9e5b488c1f164736f6c63430006060033",
  "immutableReferences": {},
  "source": "// SPDX-License-Identifier: MIT\npragma solidity 0.6.6;\n\nimport \"./access/Ownable.sol\";\nimport \"./access/AccessControl.sol\";\nimport \"./interfaces/IParamStorage.sol\";\nimport \"./interfaces/IAssetValuationManager.sol\";\nimport \"./interfaces/IAssetAutomaticExchangeManager.sol\";\n\ncontract ParamKeeper is Ownable, AccessControl, IParamStorage{\n\n  bytes32 public constant MANAGER_ROLE = keccak256(\"MANAGER_ROLE\");\n\n  //global token address whitelist\n  mapping (address => bool) public globalWhitelist;\n  //address params storage\n  mapping (uint16 => address) public addressParams;\n  //uint params storage\n  mapping (uint16 => uint256) public uintParams;\n  //list of trading instruments by index \n  mapping (address => bool) public assetManagers;\n\n  // address public priceFeeder;\n\n  IAssetValuationManager internal valuationManager;\n\n  IAssetAutomaticExchangeManager internal automaticExchangeManager;\n  \n  constructor() public {\n    _setupRole(DEFAULT_ADMIN_ROLE, _msgSender());\n    _setupRole(MANAGER_ROLE, _msgSender());\n  }\n\n  /**\n  * @dev Throws if called by any account other than the one with the Manager role granted.\n  */\n  modifier onlyManager() {\n      require(hasRole(MANAGER_ROLE, msg.sender), \"Caller is not the Manager\");\n      _;\n  }\n  function setParamAddress(uint16 _key, address _value) public onlyManager {\n    addressParams[_key] = _value;\n  }\n\n  function setParamUInt256(uint16 _key, uint256 _value) public onlyManager {\n    uintParams[_key] = _value;\n  }\n\n  function setAssetAutomaticExchangeManager(address _address) public onlyManager {\n      automaticExchangeManager = IAssetAutomaticExchangeManager(_address);\n  }\n\n  function setAssetValuationManager(address _address) public onlyManager {\n      valuationManager = IAssetValuationManager(_address);\n  }\n\n  function addAssetManager(address _manager) public onlyManager {\n      assetManagers[_manager] = true;\n  }\n\n  function removeAssetManager(address _manager) public onlyManager {\n      delete assetManagers[_manager];\n  }\n\n  function whitelistToken(address _token) public onlyManager {\n    globalWhitelist[_token] = true;\n  }\n\n  function delistToken(address _token) public onlyManager {\n    delete globalWhitelist[_token];\n  }\n\n  function getAddress(uint16 key) external override view returns (address){\n    return addressParams[key];\n  }\n\n  function getUInt256(uint16 key) external override view returns (uint256){\n    return uintParams[key];\n  }\n\n  function isWhitelisted(address token) public override view returns (bool) {\n    return globalWhitelist[token];\n  }\n\n  function isAllowedAssetManager(address _manager) public override view returns (bool){\n     return assetManagers[_manager];\n  }\n\n  function getAssetAutomaticExchangeManager() public override view returns (IAssetAutomaticExchangeManager){\n    return automaticExchangeManager;\n  }\n\n  function getAssetValuationManager() public override view returns (IAssetValuationManager){\n    return valuationManager;\n  }\n\n}\n",
  "sourcePath": "/Users/Burger/dexe/contracts1/dexe-asset-management/contracts/ParamKeeper.sol",
  "compiler": {
    "name": "solc",
    "version": "0.6.6+commit.6c089d02.Emscripten.clang"
  },
  "schemaVersion": "3.2.4",
  "updatedAt": "2021-05-31T12:09:06.677Z",
  "devdoc": {
    "methods": {
      "getRoleAdmin(bytes32)": {
        "details": "Returns the admin role that controls `role`. See {grantRole} and {revokeRole}.     * To change a role's admin, use {_setRoleAdmin}."
      },
      "getRoleMember(bytes32,uint256)": {
        "details": "Returns one of the accounts that have `role`. `index` must be a value between 0 and {getRoleMemberCount}, non-inclusive.     * Role bearers are not sorted in any particular way, and their ordering may change at any point.     * WARNING: When using {getRoleMember} and {getRoleMemberCount}, make sure you perform all queries on the same block. See the following https://forum.openzeppelin.com/t/iterating-over-elements-on-enumerableset-in-openzeppelin-contracts/2296[forum post] for more information."
      },
      "getRoleMemberCount(bytes32)": {
        "details": "Returns the number of accounts that have `role`. Can be used together with {getRoleMember} to enumerate all bearers of a role."
      },
      "grantRole(bytes32,address)": {
        "details": "Grants `role` to `account`.     * If `account` had not been already granted `role`, emits a {RoleGranted} event.     * Requirements:     * - the caller must have ``role``'s admin role."
      },
      "hasRole(bytes32,address)": {
        "details": "Returns `true` if `account` has been granted `role`."
      },
      "owner()": {
        "details": "Returns the address of the current owner."
      },
      "renounceOwnership()": {
        "details": "Leaves the contract without owner. It will not be possible to call `onlyOwner` functions anymore. Can only be called by the current owner.     * NOTE: Renouncing ownership will leave the contract without an owner, thereby removing any functionality that is only available to the owner."
      },
      "renounceRole(bytes32,address)": {
        "details": "Revokes `role` from the calling account.     * Roles are often managed via {grantRole} and {revokeRole}: this function's purpose is to provide a mechanism for accounts to lose their privileges if they are compromised (such as when a trusted device is misplaced).     * If the calling account had been granted `role`, emits a {RoleRevoked} event.     * Requirements:     * - the caller must be `account`."
      },
      "revokeRole(bytes32,address)": {
        "details": "Revokes `role` from `account`.     * If `account` had been granted `role`, emits a {RoleRevoked} event.     * Requirements:     * - the caller must have ``role``'s admin role."
      },
      "transferOwnership(address)": {
        "details": "Transfers ownership of the contract to a new account (`newOwner`). Can only be called by the current owner."
      }
    }
  },
  "userdoc": {
    "methods": {}
  }
}