{
  "contractName": "PoolLiquidityTokenUpgradeable",
  "abi": [
    {
      "anonymous": false,
      "inputs": [
        {
          "indexed": true,
          "internalType": "address",
          "name": "owner",
          "type": "address"
        },
        {
          "indexed": true,
          "internalType": "address",
          "name": "spender",
          "type": "address"
        },
        {
          "indexed": false,
          "internalType": "uint256",
          "name": "value",
          "type": "uint256"
        }
      ],
      "name": "Approval",
      "type": "event"
    },
    {
      "anonymous": false,
      "inputs": [
        {
          "indexed": true,
          "internalType": "address",
          "name": "previousOwner",
          "type": "address"
        },
        {
          "indexed": true,
          "internalType": "address",
          "name": "newOwner",
          "type": "address"
        }
      ],
      "name": "OwnershipTransferred",
      "type": "event"
    },
    {
      "anonymous": false,
      "inputs": [
        {
          "indexed": true,
          "internalType": "address",
          "name": "from",
          "type": "address"
        },
        {
          "indexed": true,
          "internalType": "address",
          "name": "to",
          "type": "address"
        },
        {
          "indexed": false,
          "internalType": "uint256",
          "name": "value",
          "type": "uint256"
        }
      ],
      "name": "Transfer",
      "type": "event"
    },
    {
      "inputs": [
        {
          "internalType": "address",
          "name": "owner",
          "type": "address"
        },
        {
          "internalType": "address",
          "name": "spender",
          "type": "address"
        }
      ],
      "name": "allowance",
      "outputs": [
        {
          "internalType": "uint256",
          "name": "",
          "type": "uint256"
        }
      ],
      "stateMutability": "view",
      "type": "function"
    },
    {
      "inputs": [
        {
          "internalType": "address",
          "name": "spender",
          "type": "address"
        },
        {
          "internalType": "uint256",
          "name": "amount",
          "type": "uint256"
        }
      ],
      "name": "approve",
      "outputs": [
        {
          "internalType": "bool",
          "name": "",
          "type": "bool"
        }
      ],
      "stateMutability": "nonpayable",
      "type": "function"
    },
    {
      "inputs": [
        {
          "internalType": "address",
          "name": "account",
          "type": "address"
        }
      ],
      "name": "balanceOf",
      "outputs": [
        {
          "internalType": "uint256",
          "name": "",
          "type": "uint256"
        }
      ],
      "stateMutability": "view",
      "type": "function"
    },
    {
      "inputs": [],
      "name": "decimals",
      "outputs": [
        {
          "internalType": "uint8",
          "name": "",
          "type": "uint8"
        }
      ],
      "stateMutability": "view",
      "type": "function"
    },
    {
      "inputs": [
        {
          "internalType": "address",
          "name": "spender",
          "type": "address"
        },
        {
          "internalType": "uint256",
          "name": "subtractedValue",
          "type": "uint256"
        }
      ],
      "name": "decreaseAllowance",
      "outputs": [
        {
          "internalType": "bool",
          "name": "",
          "type": "bool"
        }
      ],
      "stateMutability": "nonpayable",
      "type": "function"
    },
    {
      "inputs": [],
      "name": "fixedSupply",
      "outputs": [
        {
          "internalType": "bool",
          "name": "",
          "type": "bool"
        }
      ],
      "stateMutability": "view",
      "type": "function"
    },
    {
      "inputs": [
        {
          "internalType": "address",
          "name": "spender",
          "type": "address"
        },
        {
          "internalType": "uint256",
          "name": "addedValue",
          "type": "uint256"
        }
      ],
      "name": "increaseAllowance",
      "outputs": [
        {
          "internalType": "bool",
          "name": "",
          "type": "bool"
        }
      ],
      "stateMutability": "nonpayable",
      "type": "function"
    },
    {
      "inputs": [],
      "name": "name",
      "outputs": [
        {
          "internalType": "string",
          "name": "",
          "type": "string"
        }
      ],
      "stateMutability": "view",
      "type": "function"
    },
    {
      "inputs": [],
      "name": "owner",
      "outputs": [
        {
          "internalType": "address",
          "name": "",
          "type": "address"
        }
      ],
      "stateMutability": "view",
      "type": "function"
    },
    {
      "inputs": [],
      "name": "renounceOwnership",
      "outputs": [],
      "stateMutability": "nonpayable",
      "type": "function"
    },
    {
      "inputs": [],
      "name": "symbol",
      "outputs": [
        {
          "internalType": "string",
          "name": "",
          "type": "string"
        }
      ],
      "stateMutability": "view",
      "type": "function"
    },
    {
      "inputs": [],
      "name": "totalSupply",
      "outputs": [
        {
          "internalType": "uint256",
          "name": "",
          "type": "uint256"
        }
      ],
      "stateMutability": "view",
      "type": "function"
    },
    {
      "inputs": [
        {
          "internalType": "address",
          "name": "recipient",
          "type": "address"
        },
        {
          "internalType": "uint256",
          "name": "amount",
          "type": "uint256"
        }
      ],
      "name": "transfer",
      "outputs": [
        {
          "internalType": "bool",
          "name": "",
          "type": "bool"
        }
      ],
      "stateMutability": "nonpayable",
      "type": "function"
    },
    {
      "inputs": [
        {
          "internalType": "address",
          "name": "sender",
          "type": "address"
        },
        {
          "internalType": "address",
          "name": "recipient",
          "type": "address"
        },
        {
          "internalType": "uint256",
          "name": "amount",
          "type": "uint256"
        }
      ],
      "name": "transferFrom",
      "outputs": [
        {
          "internalType": "bool",
          "name": "",
          "type": "bool"
        }
      ],
      "stateMutability": "nonpayable",
      "type": "function"
    },
    {
      "inputs": [
        {
          "internalType": "address",
          "name": "newOwner",
          "type": "address"
        }
      ],
      "name": "transferOwnership",
      "outputs": [],
      "stateMutability": "nonpayable",
      "type": "function"
    },
    {
      "inputs": [
        {
          "internalType": "address",
          "name": "_owner",
          "type": "address"
        },
        {
          "internalType": "uint256",
          "name": "_maxPoolTotalSupply",
          "type": "uint256"
        },
        {
          "internalType": "string",
          "name": "name_",
          "type": "string"
        },
        {
          "internalType": "string",
          "name": "symbol_",
          "type": "string"
        }
      ],
      "name": "initialize",
      "outputs": [],
      "stateMutability": "nonpayable",
      "type": "function"
    },
    {
      "inputs": [
        {
          "internalType": "address",
          "name": "to",
          "type": "address"
        },
        {
          "internalType": "uint256",
          "name": "amount",
          "type": "uint256"
        }
      ],
      "name": "mint",
      "outputs": [],
      "stateMutability": "nonpayable",
      "type": "function"
    },
    {
      "inputs": [
        {
          "internalType": "address",
          "name": "from",
          "type": "address"
        },
        {
          "internalType": "uint256",
          "name": "amountLiquidity",
          "type": "uint256"
        }
      ],
      "name": "burn",
      "outputs": [],
      "stateMutability": "nonpayable",
      "type": "function"
    }
  ],
  "bytecode": "0x608060405234801561001057600080fd5b50611758806100206000396000f3fe608060405234801561001057600080fd5b50600436106101165760003560e01c8063715018a6116100a2578063a457c2d711610071578063a457c2d714610468578063a9059cbb14610494578063dd62ed3e146104c0578063f2fde38b146104ee578063ff99574b1461051457610116565b8063715018a6146104085780638da5cb5b1461041057806395d89b41146104345780639dc29fac1461043c57610116565b806323b872dd116100e957806323b872dd14610336578063313ce5671461036c578063395093511461038a57806340c10f19146103b657806370a08231146103e257610116565b806306fdde031461011b578063095ea7b314610198578063148f51f3146101d857806318160ddd1461031c575b600080fd5b61012361051c565b6040805160208082528351818301528351919283929083019185019080838360005b8381101561015d578181015183820152602001610145565b50505050905090810190601f16801561018a5780820380516001836020036101000a031916815260200191505b509250505060405180910390f35b6101c4600480360360408110156101ae57600080fd5b506001600160a01b0381351690602001356105b3565b604080519115158252519081900360200190f35b61031a600480360360808110156101ee57600080fd5b6001600160a01b038235169160208101359181019060608101604082013564010000000081111561021e57600080fd5b82018360208201111561023057600080fd5b8035906020019184600183028401116401000000008311171561025257600080fd5b91908080601f01602080910402602001604051908101604052809392919081815260200183838082843760009201919091525092959493602081019350359150506401000000008111156102a557600080fd5b8201836020820111156102b757600080fd5b803590602001918460018302840111640100000000831117156102d957600080fd5b91908080601f0160208091040260200160405190810160405280939291908181526020018383808284376000920191909152509295506105d0945050505050565b005b610324610692565b60408051918252519081900360200190f35b6101c46004803603606081101561034c57600080fd5b506001600160a01b03813581169160208101359091169060400135610698565b610374610725565b6040805160ff9092168252519081900360200190f35b6101c4600480360360408110156103a057600080fd5b506001600160a01b03813516906020013561072e565b61031a600480360360408110156103cc57600080fd5b506001600160a01b038135169060200135610782565b610324600480360360208110156103f857600080fd5b50356001600160a01b0316610803565b61031a61081e565b6104186108c0565b604080516001600160a01b039092168252519081900360200190f35b6101236108cf565b61031a6004803603604081101561045257600080fd5b506001600160a01b038135169060200135610930565b6101c46004803603604081101561047e57600080fd5b506001600160a01b0381351690602001356109a8565b6101c4600480360360408110156104aa57600080fd5b506001600160a01b038135169060200135610a16565b610324600480360360408110156104d657600080fd5b506001600160a01b0381358116916020013516610a2a565b61031a6004803603602081101561050457600080fd5b50356001600160a01b0316610a55565b6101c4610b4e565b60368054604080516020601f60026000196101006001881615020190951694909404938401819004810282018101909252828152606093909290918301828280156105a85780601f1061057d576101008083540402835291602001916105a8565b820191906000526020600020905b81548152906001019060200180831161058b57829003601f168201915b505050505090505b90565b60006105c76105c0610b57565b8484610b5b565b50600192915050565b600054610100900460ff16806105e957506105e9610c47565b806105f7575060005460ff16155b6106325760405162461bcd60e51b815260040180806020018281038252602e81526020018061161e602e913960400191505060405180910390fd5b600054610100900460ff1615801561065d576000805460ff1961ff0019909116610100171660011790555b6106678383610c4d565b61066f610d03565b6106798585610dfd565b801561068b576000805461ff00191690555b5050505050565b60355490565b60006106a5848484610eb0565b61071b846106b1610b57565b6107168560405180606001604052806028815260200161164c602891396001600160a01b038a166000908152603460205260408120906106ef610b57565b6001600160a01b03168152602081019190915260400160002054919063ffffffff61101916565b610b5b565b5060019392505050565b60385460ff1690565b60006105c761073b610b57565b84610716856034600061074c610b57565b6001600160a01b03908116825260208083019390935260409182016000908120918c16815292529020549063ffffffff6110b016565b61078a610b57565b6065546001600160a01b039081169116146107da576040805162461bcd60e51b81526020600482018190526024820152600080516020611674833981519152604482015290519081900360640190fd5b60975460ff16156107f5576107f0308383610eb0565b6107ff565b6107ff8282611111565b5050565b6001600160a01b031660009081526033602052604090205490565b610826610b57565b6065546001600160a01b03908116911614610876576040805162461bcd60e51b81526020600482018190526024820152600080516020611674833981519152604482015290519081900360640190fd5b6065546040516000916001600160a01b0316907f8be0079c531659141344cd1fd0a4f28419497f9722a3daafe3b4186f6b6457e0908390a3606580546001600160a01b0319169055565b6065546001600160a01b031690565b60378054604080516020601f60026000196101006001881615020190951694909404938401819004810282018101909252828152606093909290918301828280156105a85780601f1061057d576101008083540402835291602001916105a8565b610938610b57565b6065546001600160a01b03908116911614610988576040805162461bcd60e51b81526020600482018190526024820152600080516020611674833981519152604482015290519081900360640190fd5b60975460ff161561099e576107f0823083610eb0565b6107ff828261120f565b60006105c76109b5610b57565b84610716856040518060600160405280602581526020016116fe60259139603460006109df610b57565b6001600160a01b03908116825260208083019390935260409182016000908120918d1681529252902054919063ffffffff61101916565b60006105c7610a23610b57565b8484610eb0565b6001600160a01b03918216600090815260346020908152604080832093909416825291909152205490565b610a5d610b57565b6065546001600160a01b03908116911614610aad576040805162461bcd60e51b81526020600482018190526024820152600080516020611674833981519152604482015290519081900360640190fd5b6001600160a01b038116610af25760405162461bcd60e51b81526004018080602001828103825260268152602001806115b06026913960400191505060405180910390fd5b6065546040516001600160a01b038084169216907f8be0079c531659141344cd1fd0a4f28419497f9722a3daafe3b4186f6b6457e090600090a3606580546001600160a01b0319166001600160a01b0392909216919091179055565b60975460ff1681565b3390565b6001600160a01b038316610ba05760405162461bcd60e51b81526004018080602001828103825260248152602001806116da6024913960400191505060405180910390fd5b6001600160a01b038216610be55760405162461bcd60e51b81526004018080602001828103825260228152602001806115d66022913960400191505060405180910390fd5b6001600160a01b03808416600081815260346020908152604080832094871680845294825291829020859055815185815291517f8c5be1e5ebec7d5bd14f71427d1e84f3dd0314c0f7b2291e5b200ac8c7c3b9259281900390910190a3505050565b303b1590565b600054610100900460ff1680610c665750610c66610c47565b80610c74575060005460ff16155b610caf5760405162461bcd60e51b815260040180806020018281038252602e81526020018061161e602e913960400191505060405180910390fd5b600054610100900460ff16158015610cda576000805460ff1961ff0019909116610100171660011790555b610ce2611317565b610cec83836113b8565b8015610cfe576000805461ff00191690555b505050565b600054610100900460ff1680610d1c5750610d1c610c47565b80610d2a575060005460ff16155b610d655760405162461bcd60e51b815260040180806020018281038252602e81526020018061161e602e913960400191505060405180910390fd5b600054610100900460ff16158015610d90576000805460ff1961ff0019909116610100171660011790555b6000610d9a610b57565b606580546001600160a01b0319166001600160a01b038316908117909155604051919250906000907f8be0079c531659141344cd1fd0a4f28419497f9722a3daafe3b4186f6b6457e0908290a3508015610dfa576000805461ff00191690555b50565b600054610100900460ff1680610e165750610e16610c47565b80610e24575060005460ff16155b610e5f5760405162461bcd60e51b815260040180806020018281038252602e81526020018061161e602e913960400191505060405180910390fd5b600054610100900460ff16158015610e8a576000805460ff1961ff0019909116610100171660011790555b610e9383610a55565b8115610cec576097805460ff19166001179055610cec3083611111565b6001600160a01b038316610ef55760405162461bcd60e51b81526004018080602001828103825260258152602001806116b56025913960400191505060405180910390fd5b6001600160a01b038216610f3a5760405162461bcd60e51b815260040180806020018281038252602381526020018061156b6023913960400191505060405180910390fd5b610f45838383610cfe565b610f88816040518060600160405280602681526020016115f8602691396001600160a01b038616600090815260336020526040902054919063ffffffff61101916565b6001600160a01b038085166000908152603360205260408082209390935590841681522054610fbd908263ffffffff6110b016565b6001600160a01b0380841660008181526033602090815260409182902094909455805185815290519193928716927fddf252ad1be2c89b69c2b068fc378daa952ba7f163c4a11628f55a4df523b3ef92918290030190a3505050565b600081848411156110a85760405162461bcd60e51b81526004018080602001828103825283818151815260200191508051906020019080838360005b8381101561106d578181015183820152602001611055565b50505050905090810190601f16801561109a5780820380516001836020036101000a031916815260200191505b509250505060405180910390fd5b505050900390565b60008282018381101561110a576040805162461bcd60e51b815260206004820152601b60248201527f536166654d6174683a206164646974696f6e206f766572666c6f770000000000604482015290519081900360640190fd5b9392505050565b6001600160a01b03821661116c576040805162461bcd60e51b815260206004820152601f60248201527f45524332303a206d696e7420746f20746865207a65726f206164647265737300604482015290519081900360640190fd5b61117860008383610cfe565b60355461118b908263ffffffff6110b016565b6035556001600160a01b0382166000908152603360205260409020546111b7908263ffffffff6110b016565b6001600160a01b03831660008181526033602090815260408083209490945583518581529351929391927fddf252ad1be2c89b69c2b068fc378daa952ba7f163c4a11628f55a4df523b3ef9281900390910190a35050565b6001600160a01b0382166112545760405162461bcd60e51b81526004018080602001828103825260218152602001806116946021913960400191505060405180910390fd5b61126082600083610cfe565b6112a38160405180606001604052806022815260200161158e602291396001600160a01b038516600090815260336020526040902054919063ffffffff61101916565b6001600160a01b0383166000908152603360205260409020556035546112cf908263ffffffff61149016565b6035556040805182815290516000916001600160a01b038516917fddf252ad1be2c89b69c2b068fc378daa952ba7f163c4a11628f55a4df523b3ef9181900360200190a35050565b600054610100900460ff16806113305750611330610c47565b8061133e575060005460ff16155b6113795760405162461bcd60e51b815260040180806020018281038252602e81526020018061161e602e913960400191505060405180910390fd5b600054610100900460ff161580156113a4576000805460ff1961ff0019909116610100171660011790555b8015610dfa576000805461ff001916905550565b600054610100900460ff16806113d157506113d1610c47565b806113df575060005460ff16155b61141a5760405162461bcd60e51b815260040180806020018281038252602e81526020018061161e602e913960400191505060405180910390fd5b600054610100900460ff16158015611445576000805460ff1961ff0019909116610100171660011790555b82516114589060369060208601906114d2565b50815161146c9060379060208501906114d2565b506038805460ff191660121790558015610cfe576000805461ff0019169055505050565b600061110a83836040518060400160405280601e81526020017f536166654d6174683a207375627472616374696f6e206f766572666c6f770000815250611019565b828054600181600116156101000203166002900490600052602060002090601f016020900481019282601f1061151357805160ff1916838001178555611540565b82800160010185558215611540579182015b82811115611540578251825591602001919060010190611525565b5061154c929150611550565b5090565b6105b091905b8082111561154c576000815560010161155656fe45524332303a207472616e7366657220746f20746865207a65726f206164647265737345524332303a206275726e20616d6f756e7420657863656564732062616c616e63654f776e61626c653a206e6577206f776e657220697320746865207a65726f206164647265737345524332303a20617070726f766520746f20746865207a65726f206164647265737345524332303a207472616e7366657220616d6f756e7420657863656564732062616c616e6365496e697469616c697a61626c653a20636f6e747261637420697320616c726561647920696e697469616c697a656445524332303a207472616e7366657220616d6f756e74206578636565647320616c6c6f77616e63654f776e61626c653a2063616c6c6572206973206e6f7420746865206f776e657245524332303a206275726e2066726f6d20746865207a65726f206164647265737345524332303a207472616e736665722066726f6d20746865207a65726f206164647265737345524332303a20617070726f76652066726f6d20746865207a65726f206164647265737345524332303a2064656372656173656420616c6c6f77616e63652062656c6f77207a65726fa2646970667358221220171e82d66b628f9a5533a36d7898d2078ec1a720761f48d173c599c0845a141664736f6c63430006060033",
  "immutableReferences": {},
  "source": "pragma solidity 0.6.6;\n\n\nimport \"@openzeppelin/contracts-upgradeable/access/OwnableUpgradeable.sol\";\nimport \"@openzeppelin/contracts-upgradeable/token/ERC20/ERC20Upgradeable.sol\";\nimport \"../interfaces/IPoolLiquidityToken.sol\";\n\ncontract PoolLiquidityTokenUpgradeable is ERC20Upgradeable, OwnableUpgradeable, IPoolLiquidityToken {\n\n    // uint256 public maxPoolTotalSupply;\n    bool public fixedSupply;\n\n    function initialize(address _owner, uint256 _maxPoolTotalSupply, string memory name_, string memory symbol_) public override initializer {\n        __ERC20_init(name_, symbol_);\n        __Ownable_init_unchained();\n        __PoolLiquidityTokenUpgradeable_init_unchained(_owner, _maxPoolTotalSupply);\n    }\n\n    function __PoolLiquidityTokenUpgradeable_init_unchained(address _owner, uint256 _maxPoolTotalSupply) internal initializer {\n        transferOwnership(_owner);\n        if(_maxPoolTotalSupply > 0){\n            fixedSupply = true;\n            _mint(address(this), _maxPoolTotalSupply);\n        }\n    }\n\n    function mint(address to, uint256 amount) public override onlyOwner{\n        if(fixedSupply){\n            _transfer(address(this), to, amount);\n        }else {\n            _mint(to, amount);\n        }\n        // require (maxPoolTotalSupply == 0 || totalSupply() <= maxPoolTotalSupply, \"Pool reached its max allowed liquidity\");   \n    }\n\n    function burn(address from, uint256 amountLiquidity) public override onlyOwner{\n        if(fixedSupply){\n            _transfer(from, address(this), amountLiquidity);\n        } else {\n            _burn(from, amountLiquidity);\n        }\n        \n    } \n}",
  "sourcePath": "/Users/Burger/dexe/contracts1/dexe-asset-management/contracts/pool/PoolLiquidityTokenUpgradeable.sol",
  "compiler": {
    "name": "solc",
    "version": "0.6.6+commit.6c089d02.Emscripten.clang"
  },
  "schemaVersion": "3.2.4",
  "updatedAt": "2021-06-08T10:00:09.477Z",
  "devdoc": {
    "methods": {
      "allowance(address,address)": {
        "details": "See {IERC20-allowance}."
      },
      "approve(address,uint256)": {
        "details": "See {IERC20-approve}.     * Requirements:     * - `spender` cannot be the zero address."
      },
      "balanceOf(address)": {
        "details": "See {IERC20-balanceOf}."
      },
      "decimals()": {
        "details": "Returns the number of decimals used to get its user representation. For example, if `decimals` equals `2`, a balance of `505` tokens should be displayed to a user as `5,05` (`505 / 10 ** 2`).     * Tokens usually opt for a value of 18, imitating the relationship between Ether and Wei. This is the value {ERC20} uses, unless {_setupDecimals} is called.     * NOTE: This information is only used for _display_ purposes: it in no way affects any of the arithmetic of the contract, including {IERC20-balanceOf} and {IERC20-transfer}."
      },
      "decreaseAllowance(address,uint256)": {
        "details": "Atomically decreases the allowance granted to `spender` by the caller.     * This is an alternative to {approve} that can be used as a mitigation for problems described in {IERC20-approve}.     * Emits an {Approval} event indicating the updated allowance.     * Requirements:     * - `spender` cannot be the zero address. - `spender` must have allowance for the caller of at least `subtractedValue`."
      },
      "increaseAllowance(address,uint256)": {
        "details": "Atomically increases the allowance granted to `spender` by the caller.     * This is an alternative to {approve} that can be used as a mitigation for problems described in {IERC20-approve}.     * Emits an {Approval} event indicating the updated allowance.     * Requirements:     * - `spender` cannot be the zero address."
      },
      "name()": {
        "details": "Returns the name of the token."
      },
      "owner()": {
        "details": "Returns the address of the current owner."
      },
      "renounceOwnership()": {
        "details": "Leaves the contract without owner. It will not be possible to call `onlyOwner` functions anymore. Can only be called by the current owner.     * NOTE: Renouncing ownership will leave the contract without an owner, thereby removing any functionality that is only available to the owner."
      },
      "symbol()": {
        "details": "Returns the symbol of the token, usually a shorter version of the name."
      },
      "totalSupply()": {
        "details": "See {IERC20-totalSupply}."
      },
      "transfer(address,uint256)": {
        "details": "See {IERC20-transfer}.     * Requirements:     * - `recipient` cannot be the zero address. - the caller must have a balance of at least `amount`."
      },
      "transferFrom(address,address,uint256)": {
        "details": "See {IERC20-transferFrom}.     * Emits an {Approval} event indicating the updated allowance. This is not required by the EIP. See the note at the beginning of {ERC20}.     * Requirements:     * - `sender` and `recipient` cannot be the zero address. - `sender` must have a balance of at least `amount`. - the caller must have allowance for ``sender``'s tokens of at least `amount`."
      },
      "transferOwnership(address)": {
        "details": "Transfers ownership of the contract to a new account (`newOwner`). Can only be called by the current owner."
      }
    }
  },
  "userdoc": {
    "methods": {}
  }
}