{
  "contractName": "TraderPoolFactoryUpgradeable",
  "abi": [
    {
      "anonymous": false,
      "inputs": [
        {
          "indexed": true,
          "internalType": "bytes32",
          "name": "role",
          "type": "bytes32"
        },
        {
          "indexed": true,
          "internalType": "bytes32",
          "name": "previousAdminRole",
          "type": "bytes32"
        },
        {
          "indexed": true,
          "internalType": "bytes32",
          "name": "newAdminRole",
          "type": "bytes32"
        }
      ],
      "name": "RoleAdminChanged",
      "type": "event"
    },
    {
      "anonymous": false,
      "inputs": [
        {
          "indexed": true,
          "internalType": "bytes32",
          "name": "role",
          "type": "bytes32"
        },
        {
          "indexed": true,
          "internalType": "address",
          "name": "account",
          "type": "address"
        },
        {
          "indexed": true,
          "internalType": "address",
          "name": "sender",
          "type": "address"
        }
      ],
      "name": "RoleGranted",
      "type": "event"
    },
    {
      "anonymous": false,
      "inputs": [
        {
          "indexed": true,
          "internalType": "bytes32",
          "name": "role",
          "type": "bytes32"
        },
        {
          "indexed": true,
          "internalType": "address",
          "name": "account",
          "type": "address"
        },
        {
          "indexed": true,
          "internalType": "address",
          "name": "sender",
          "type": "address"
        }
      ],
      "name": "RoleRevoked",
      "type": "event"
    },
    {
      "anonymous": false,
      "inputs": [
        {
          "indexed": false,
          "internalType": "address",
          "name": "newContractAddress",
          "type": "address"
        }
      ],
      "name": "TraderContractCreated",
      "type": "event"
    },
    {
      "inputs": [],
      "name": "DEFAULT_ADMIN_ROLE",
      "outputs": [
        {
          "internalType": "bytes32",
          "name": "",
          "type": "bytes32"
        }
      ],
      "stateMutability": "view",
      "type": "function"
    },
    {
      "inputs": [],
      "name": "dexeAdmin",
      "outputs": [
        {
          "internalType": "address",
          "name": "",
          "type": "address"
        }
      ],
      "stateMutability": "view",
      "type": "function"
    },
    {
      "inputs": [
        {
          "internalType": "bytes32",
          "name": "role",
          "type": "bytes32"
        }
      ],
      "name": "getRoleAdmin",
      "outputs": [
        {
          "internalType": "bytes32",
          "name": "",
          "type": "bytes32"
        }
      ],
      "stateMutability": "view",
      "type": "function"
    },
    {
      "inputs": [
        {
          "internalType": "bytes32",
          "name": "role",
          "type": "bytes32"
        },
        {
          "internalType": "uint256",
          "name": "index",
          "type": "uint256"
        }
      ],
      "name": "getRoleMember",
      "outputs": [
        {
          "internalType": "address",
          "name": "",
          "type": "address"
        }
      ],
      "stateMutability": "view",
      "type": "function"
    },
    {
      "inputs": [
        {
          "internalType": "bytes32",
          "name": "role",
          "type": "bytes32"
        }
      ],
      "name": "getRoleMemberCount",
      "outputs": [
        {
          "internalType": "uint256",
          "name": "",
          "type": "uint256"
        }
      ],
      "stateMutability": "view",
      "type": "function"
    },
    {
      "inputs": [
        {
          "internalType": "bytes32",
          "name": "role",
          "type": "bytes32"
        },
        {
          "internalType": "address",
          "name": "account",
          "type": "address"
        }
      ],
      "name": "grantRole",
      "outputs": [],
      "stateMutability": "nonpayable",
      "type": "function"
    },
    {
      "inputs": [
        {
          "internalType": "bytes32",
          "name": "role",
          "type": "bytes32"
        },
        {
          "internalType": "address",
          "name": "account",
          "type": "address"
        }
      ],
      "name": "hasRole",
      "outputs": [
        {
          "internalType": "bool",
          "name": "",
          "type": "bool"
        }
      ],
      "stateMutability": "view",
      "type": "function"
    },
    {
      "inputs": [],
      "name": "paramkeeper",
      "outputs": [
        {
          "internalType": "contract IParamStorage",
          "name": "",
          "type": "address"
        }
      ],
      "stateMutability": "view",
      "type": "function"
    },
    {
      "inputs": [],
      "name": "pltBeaconAddress",
      "outputs": [
        {
          "internalType": "address",
          "name": "",
          "type": "address"
        }
      ],
      "stateMutability": "view",
      "type": "function"
    },
    {
      "inputs": [],
      "name": "positionToolManager",
      "outputs": [
        {
          "internalType": "address",
          "name": "",
          "type": "address"
        }
      ],
      "stateMutability": "view",
      "type": "function"
    },
    {
      "inputs": [
        {
          "internalType": "bytes32",
          "name": "role",
          "type": "bytes32"
        },
        {
          "internalType": "address",
          "name": "account",
          "type": "address"
        }
      ],
      "name": "renounceRole",
      "outputs": [],
      "stateMutability": "nonpayable",
      "type": "function"
    },
    {
      "inputs": [
        {
          "internalType": "bytes32",
          "name": "role",
          "type": "bytes32"
        },
        {
          "internalType": "address",
          "name": "account",
          "type": "address"
        }
      ],
      "name": "revokeRole",
      "outputs": [],
      "stateMutability": "nonpayable",
      "type": "function"
    },
    {
      "inputs": [],
      "name": "traderContractBeaconAddress",
      "outputs": [
        {
          "internalType": "address",
          "name": "",
          "type": "address"
        }
      ],
      "stateMutability": "view",
      "type": "function"
    },
    {
      "inputs": [],
      "name": "wethAddress",
      "outputs": [
        {
          "internalType": "address",
          "name": "",
          "type": "address"
        }
      ],
      "stateMutability": "view",
      "type": "function"
    },
    {
      "inputs": [
        {
          "internalType": "address",
          "name": "_admin",
          "type": "address"
        },
        {
          "internalType": "address",
          "name": "_traderContractBeaconAddress",
          "type": "address"
        },
        {
          "internalType": "address",
          "name": "_pltBeaconAddress",
          "type": "address"
        },
        {
          "internalType": "address",
          "name": "_paramkeeper",
          "type": "address"
        },
        {
          "internalType": "address",
          "name": "_positionToolManager",
          "type": "address"
        },
        {
          "internalType": "address",
          "name": "_weth",
          "type": "address"
        }
      ],
      "name": "initialize",
      "outputs": [],
      "stateMutability": "nonpayable",
      "type": "function"
    },
    {
      "inputs": [
        {
          "internalType": "address",
          "name": "_traderContractBeaconAddress",
          "type": "address"
        }
      ],
      "name": "setTraderContractBeaconAddress",
      "outputs": [],
      "stateMutability": "nonpayable",
      "type": "function"
    },
    {
      "inputs": [
        {
          "internalType": "address",
          "name": "_dexeAdmin",
          "type": "address"
        }
      ],
      "name": "setDexeAdminAddress",
      "outputs": [],
      "stateMutability": "nonpayable",
      "type": "function"
    },
    {
      "inputs": [
        {
          "internalType": "address",
          "name": "_traderWallet",
          "type": "address"
        },
        {
          "internalType": "address",
          "name": "_basicToken",
          "type": "address"
        },
        {
          "internalType": "uint256",
          "name": "_totalSupply",
          "type": "uint256"
        },
        {
          "internalType": "uint16[6]",
          "name": "_comm",
          "type": "uint16[6]"
        },
        {
          "internalType": "bool",
          "name": "_actual",
          "type": "bool"
        },
        {
          "internalType": "bool",
          "name": "_investorRestricted",
          "type": "bool"
        },
        {
          "internalType": "string",
          "name": "_name",
          "type": "string"
        },
        {
          "internalType": "string",
          "name": "_symbol",
          "type": "string"
        }
      ],
      "name": "createTraderContract",
      "outputs": [
        {
          "internalType": "address",
          "name": "",
          "type": "address"
        }
      ],
      "stateMutability": "nonpayable",
      "type": "function"
    },
    {
      "inputs": [],
      "name": "getInsuranceAddress",
      "outputs": [
        {
          "internalType": "address",
          "name": "",
          "type": "address"
        }
      ],
      "stateMutability": "view",
      "type": "function"
    },
    {
      "inputs": [],
      "name": "getDexeCommissionAddress",
      "outputs": [
        {
          "internalType": "address",
          "name": "",
          "type": "address"
        }
      ],
      "stateMutability": "view",
      "type": "function"
    }
  ],
  "bytecode": "0x608060405234801561001057600080fd5b50611eb3806100206000396000f3fe60806040523480156200001157600080fd5b5060043610620001485760003560e01c80634f0e0ef311620000bd578063a217fddf116200007b578063a217fddf1462000492578063ca15c873146200049c578063cc2a9a5b14620004bc578063d547741f146200050d578063d768ca46146200053c5762000148565b80634f0e0ef3146200040b5780635db71d4714620004155780639010d07c146200041f57806391d1485414620004455780639461ecee14620004885762000148565b80632e68a5e0116200010b5780632e68a5e0146200034f5780632f2ff15d146200037a57806334fa0c8f14620003a957806336568abe14620003b35780634b99538d14620003e25762000148565b806304122aa8146200014d5780630e6cd14614620001735780631b39fe2f14620003095780631f5df62d1462000313578063248a9ca3146200031d575b600080fd5b6200015762000546565b604080516001600160a01b039092168252519081900360200190f35b6200015760048036036101a08110156200018c57600080fd5b6040805160c081810183526001600160a01b03853581169560208101359091169493810135938101929091610120830191906060840190600690839083908082843760009201919091525091948335151594602085013515159491935091506060810190604001356401000000008111156200020757600080fd5b8201836020820111156200021a57600080fd5b803590602001918460018302840111640100000000831117156200023d57600080fd5b91908080601f01602080910402602001604051908101604052809392919081815260200183838082843760009201919091525092959493602081019350359150506401000000008111156200029157600080fd5b820183602082011115620002a457600080fd5b80359060200191846001830284011164010000000083111715620002c757600080fd5b91908080601f016020809104026020016040519081016040528093929190818152602001838380828437600092019190915250929550620005c9945050505050565b6200015762000ba3565b6200015762000bb2565b6200033d600480360360208110156200033557600080fd5b503562000bc1565b60408051918252519081900360200190f35b62000378600480360360208110156200036757600080fd5b50356001600160a01b031662000bd6565b005b62000378600480360360408110156200039257600080fd5b50803590602001356001600160a01b031662000c51565b6200015762000cc5565b6200037860048036036040811015620003cb57600080fd5b50803590602001356001600160a01b031662000cd4565b6200037860048036036020811015620003fa57600080fd5b50356001600160a01b031662000d3b565b6200015762000db6565b6200015762000dc5565b62000157600480360360408110156200043757600080fd5b508035906020013562000e12565b62000474600480360360408110156200045d57600080fd5b50803590602001356001600160a01b031662000e3b565b604080519115158252519081900360200190f35b6200015762000e5b565b6200033d62000e6a565b6200033d60048036036020811015620004b457600080fd5b503562000e6f565b62000378600480360360c0811015620004d457600080fd5b506001600160a01b038135811691602081013582169160408201358116916060810135821691608082013581169160a001351662000e88565b62000378600480360360408110156200052557600080fd5b50803590602001356001600160a01b031662000fb1565b620001576200100f565b606580546040805163fda1213b60e01b81526004810193909352516000926001600160a01b039092169163fda1213b916024808301926020929190829003018186803b1580156200059657600080fd5b505afa158015620005ab573d6000803e3d6000fd5b505050506040513d6020811015620005c257600080fd5b5051905090565b6067546040805160208101825260008082529151919283926001600160a01b039091169190620005f99062001474565b6001600160a01b0383168152604060208083018281528451928401929092528351606084019185019080838360005b838110156200064257818101518382015260200162000628565b50505050905090810190601f168015620006705780820380516001836020036101000a031916815260200191505b509350505050604051809103906000f08015801562000693573d6000803e3d6000fd5b50606854604080516020810182526000808252915193945090926001600160a01b0390921691620006c49062001474565b6001600160a01b0383168152604060208083018281528451928401929092528351606084019185019080838360005b838110156200070d578181015183820152602001620006f3565b50505050905090810190601f1680156200073b5780820380516001836020036101000a031916815260200191505b509350505050604051809103906000f0801580156200075e573d6000803e3d6000fd5b509050806001600160a01b031663148f51f3838b88886040518563ffffffff1660e01b815260040180856001600160a01b03166001600160a01b031681526020018481526020018060200180602001838103835285818151815260200191508051906020019080838360005b83811015620007e4578181015183820152602001620007ca565b50505050905090810190601f168015620008125780820380516001836020036101000a031916815260200191505b50838103825284518152845160209182019186019080838360005b83811015620008475781810151838201526020016200082d565b50505050905090810190601f168015620008755780820380516001836020036101000a031916815260200191505b509650505050505050600060405180830381600087803b1580156200089957600080fd5b505af1158015620008ae573d6000803e3d6000fd5b505089516000925061ffff1615159050620008fb5760405162461bcd60e51b815260040180806020018281038252602181526020018062001e0b6021913960400191505060405180910390fd5b885161ffff16016020896001602002015161ffff16901b016000896002602002015161ffff16116200095f5760405162461bcd60e51b815260040180806020018281038252602381526020018062001e2c6023913960400191505060405180910390fd5b6040896002602002015161ffff16901b016060896003602002015161ffff16901b016000896004602002015161ffff1611620009e2576040805162461bcd60e51b815260206004820152601f60248201527f496e636f7272656374206465786520636f6d6d697373696f6e2064656e6f6d00604482015290519081900360640190fd5b6080896004602002015161ffff16901b0160a0896005602002015161ffff16901b0162000a0e62001482565b60408051610120810182526069546001600160a01b0390811682528f811660208301528e811692820192909252606a54821660608201526065548216608082015260665490911660a082015260c0810162000a6862000dc5565b6001600160a01b0316815260200162000a8062000546565b6001600160a01b03166001600160a01b03168152602001846001600160a01b03166001600160a01b03168152509050836001600160a01b031662cfb42c82848c8c6040518563ffffffff1660e01b81526004018085600960200280838360005b8381101562000afa57818101518382015260200162000ae0565b505050509050018481526020018315151515815260200182151515158152602001945050505050600060405180830381600087803b15801562000b3c57600080fd5b505af115801562000b51573d6000803e3d6000fd5b5050604080516001600160a01b038816815290517fb33bba3c0be1fdacdbf1f4097e07aaff9340c62a4084d9d80c37bb899c77eb339350908190036020019150a150919b9a5050505050505050505050565b6069546001600160a01b031681565b6068546001600160a01b031681565b60009081526033602052604090206002015490565b62000be360003362000e3b565b62000c2f576040805162461bcd60e51b815260206004820152601760248201527621b0b63632b91034b9903737ba103a34329020b236b4b760491b604482015290519081900360640190fd5b606980546001600160a01b0319166001600160a01b0392909216919091179055565b60008281526033602052604090206002015462000c789062000c726200101e565b62000e3b565b62000cb55760405162461bcd60e51b815260040180806020018281038252602f81526020018062001d7e602f913960400191505060405180910390fd5b62000cc1828262001022565b5050565b6067546001600160a01b031681565b62000cde6200101e565b6001600160a01b0316816001600160a01b03161462000d2f5760405162461bcd60e51b815260040180806020018281038252602f81526020018062001e4f602f913960400191505060405180910390fd5b62000cc1828262001096565b62000d4860003362000e3b565b62000d94576040805162461bcd60e51b815260206004820152601760248201527621b0b63632b91034b9903737ba103a34329020b236b4b760491b604482015290519081900360640190fd5b606780546001600160a01b0319166001600160a01b0392909216919091179055565b606a546001600160a01b031681565b6065546040805163fda1213b60e01b81526066600482015290516000926001600160a01b03169163fda1213b916024808301926020929190829003018186803b1580156200059657600080fd5b600082815260336020526040812062000e32908363ffffffff6200110a16565b90505b92915050565b600082815260336020526040812062000e32908363ffffffff6200111816565b6065546001600160a01b031681565b600081565b600081815260336020526040812062000e35906200112f565b600054610100900460ff168062000ea4575062000ea46200113c565b8062000eb3575060005460ff16155b62000ef05760405162461bcd60e51b815260040180806020018281038252602e81526020018062001ddd602e913960400191505060405180910390fd5b600054610100900460ff1615801562000f1c576000805460ff1961ff0019909116610100171660011790555b62000f2662001142565b62000f3360008862000cb5565b606980546001600160a01b03199081166001600160a01b038a811691909117909255606a8054821685841617905560678054821689841617905560688054821688841617905560658054821687841617905560668054909116918516919091179055801562000fa8576000805461ff00191690555b50505050505050565b60008281526033602052604090206002015462000fd29062000c726200101e565b62000d2f5760405162461bcd60e51b815260040180806020018281038252603081526020018062001dad6030913960400191505060405180910390fd5b6066546001600160a01b031681565b3390565b600082815260336020526040902062001042908263ffffffff6200120016565b1562000cc157620010526200101e565b6001600160a01b0316816001600160a01b0316837f2f8788117e7eff1d82e926ec794901d17c78024a50270940304540a733656f0d60405160405180910390a45050565b6000828152603360205260409020620010b6908263ffffffff6200121716565b1562000cc157620010c66200101e565b6001600160a01b0316816001600160a01b0316837ff6391f5c32d9c69d2a47ea670b442974b53935d1edc7fd64eb21e047a839171b60405160405180910390a45050565b600062000e3283836200122e565b600062000e32836001600160a01b03841662001295565b600062000e3582620012ad565b303b1590565b600054610100900460ff16806200115e57506200115e6200113c565b806200116d575060005460ff16155b620011aa5760405162461bcd60e51b815260040180806020018281038252602e81526020018062001ddd602e913960400191505060405180910390fd5b600054610100900460ff16158015620011d6576000805460ff1961ff0019909116610100171660011790555b620011e0620012b1565b620011ea620012b1565b8015620011fd576000805461ff00191690555b50565b600062000e32836001600160a01b03841662001359565b600062000e32836001600160a01b038416620013a8565b81546000908210620012725760405162461bcd60e51b815260040180806020018281038252602281526020018062001d5c6022913960400191505060405180910390fd5b8260000182815481106200128257fe5b9060005260206000200154905092915050565b60009081526001919091016020526040902054151590565b5490565b600054610100900460ff1680620012cd5750620012cd6200113c565b80620012dc575060005460ff16155b620013195760405162461bcd60e51b815260040180806020018281038252602e81526020018062001ddd602e913960400191505060405180910390fd5b600054610100900460ff16158015620011ea576000805460ff1961ff0019909116610100171660011790558015620011fd576000805461ff001916905550565b600062001367838362001295565b6200139f5750815460018181018455600084815260208082209093018490558454848252828601909352604090209190915562000e35565b50600062000e35565b60008181526001830160205260408120548015620014695783546000198083019190810190600090879083908110620013dd57fe5b9060005260206000200154905080876000018481548110620013fb57fe5b6000918252602080832090910192909255828152600189810190925260409020908401905586548790806200142c57fe5b6001900381819060005260206000200160009055905586600101600087815260200190815260200160002060009055600194505050505062000e35565b600091505062000e35565b6108ba80620014a283390190565b604051806101200160405280600990602082028036833750919291505056fe60806040526040516108ba3803806108ba8339818101604052604081101561002657600080fd5b81516020830180516040519294929383019291908464010000000082111561004d57600080fd5b90830190602082018581111561006257600080fd5b825164010000000081118282018810171561007c57600080fd5b82525081516020918201929091019080838360005b838110156100a9578181015183820152602001610091565b50505050905090810190601f1680156100d65780820380516001836020036101000a031916815260200191505b5060408181527f656970313936372e70726f78792e626561636f6e0000000000000000000000008252519081900360140190206000805160206107fa83398151915260001990910114925061012a91505057fe5b61013d82826001600160e01b0361014416565b50506104f3565b610157826102a260201b6100ed1760201c565b6101925760405162461bcd60e51b815260040180806020018281038252602581526020018061083b6025913960400191505060405180910390fd5b61020a826001600160a01b0316635c60da1b6040518163ffffffff1660e01b815260040160206040518083038186803b1580156101ce57600080fd5b505afa1580156101e2573d6000803e3d6000fd5b505050506040513d60208110156101f857600080fd5b50516102a2602090811b6100ed17901c565b6102455760405162461bcd60e51b81526004018080602001828103825260348152602001806108866034913960400191505060405180910390fd5b6000805160206107fa83398151915282815581511561029d5761029b6102726001600160e01b036102a816565b8360405180606001604052806021815260200161081a6021913961032460201b6100f31760201c565b505b505050565b3b151590565b60006102bb6001600160e01b0361043c16565b6001600160a01b0316635c60da1b6040518163ffffffff1660e01b815260040160206040518083038186803b1580156102f357600080fd5b505afa158015610307573d6000803e3d6000fd5b505050506040513d602081101561031d57600080fd5b5051905090565b6060610338846001600160e01b036102a216565b6103735760405162461bcd60e51b81526004018080602001828103825260268152602001806108606026913960400191505060405180910390fd5b60006060856001600160a01b0316856040518082805190602001908083835b602083106103b15780518252601f199092019160209182019101610392565b6001836020036101000a038019825116818451168082178552505050505050905001915050600060405180830381855af49150503d8060008114610411576040519150601f19603f3d011682016040523d82523d6000602084013e610416565b606091505b5090925090506104308282866001600160e01b0361044f16565b925050505b9392505050565b6000805160206107fa8339815191525490565b6060831561045e575081610435565b82511561046e5782518084602001fd5b8160405162461bcd60e51b81526004018080602001828103825283818151815260200191508051906020019080838360005b838110156104b85781810151838201526020016104a0565b50505050905090810190601f1680156104e55780820380516001836020036101000a031916815260200191505b509250505060405180910390fd5b6102f8806105026000396000f3fe60806040523661001357610011610017565b005b6100115b61001f61002f565b61002f61002a610031565b6100a4565b565b600061003b6100c8565b6001600160a01b0316635c60da1b6040518163ffffffff1660e01b815260040160206040518083038186803b15801561007357600080fd5b505afa158015610087573d6000803e3d6000fd5b505050506040513d602081101561009d57600080fd5b5051905090565b3660008037600080366000845af43d6000803e8080156100c3573d6000f35b3d6000fd5b7fa3f0ad74e5423aebfd80d3ef4346578335a9a72aeaee59ff6cb3582b35133d505490565b3b151590565b60606100fe846100ed565b6101395760405162461bcd60e51b815260040180806020018281038252602681526020018061029d6026913960400191505060405180910390fd5b60006060856001600160a01b0316856040518082805190602001908083835b602083106101775780518252601f199092019160209182019101610158565b6001836020036101000a038019825116818451168082178552505050505050905001915050600060405180830381855af49150503d80600081146101d7576040519150601f19603f3d011682016040523d82523d6000602084013e6101dc565b606091505b50915091506101ec8282866101f8565b925050505b9392505050565b606083156102075750816101f1565b8251156102175782518084602001fd5b8160405162461bcd60e51b81526004018080602001828103825283818151815260200191508051906020019080838360005b83811015610261578181015183820152602001610249565b50505050905090810190601f16801561028e5780820380516001836020036101000a031916815260200191505b509250505060405180910390fdfe416464726573733a2064656c65676174652063616c6c20746f206e6f6e2d636f6e7472616374a2646970667358221220d13f652e1935309fd1422373338ee6fe301c9326498f39dc269190d1074ea4e064736f6c63430006060033a3f0ad74e5423aebfd80d3ef4346578335a9a72aeaee59ff6cb3582b35133d50426561636f6e50726f78793a2066756e6374696f6e2063616c6c206661696c6564426561636f6e50726f78793a20626561636f6e206973206e6f74206120636f6e7472616374416464726573733a2064656c65676174652063616c6c20746f206e6f6e2d636f6e7472616374426561636f6e50726f78793a20626561636f6e20696d706c656d656e746174696f6e206973206e6f74206120636f6e7472616374456e756d657261626c655365743a20696e646578206f7574206f6620626f756e6473416363657373436f6e74726f6c3a2073656e646572206d75737420626520616e2061646d696e20746f206772616e74416363657373436f6e74726f6c3a2073656e646572206d75737420626520616e2061646d696e20746f207265766f6b65496e697469616c697a61626c653a20636f6e747261637420697320616c726561647920696e697469616c697a6564496e636f72726563742074726164657220636f6d6d697373696f6e2064656e6f6d496e636f727265637420696e766573746f7220636f6d6d697373696f6e2064656e6f6d416363657373436f6e74726f6c3a2063616e206f6e6c792072656e6f756e636520726f6c657320666f722073656c66a2646970667358221220205f26a71fe8bdb7ac13a7231bb14436dbee8a0271cee4e190ebd52835d21df064736f6c63430006060033",
  "immutableReferences": {},
  "source": "// SPDX-License-Identifier: MIT\npragma solidity 0.6.6;\n\n\nimport \"@openzeppelin/contracts-upgradeable/access/AccessControlUpgradeable.sol\";\n\nimport \"./upgradeable/BeaconProxy.sol\";\nimport \"./interfaces/IParamStorage.sol\";\nimport \"./interfaces/ITraderPoolInitializable.sol\";\nimport \"./interfaces/IPoolLiquidityToken.sol\";\n\ncontract TraderPoolFactoryUpgradeable is AccessControlUpgradeable {\n\n  IParamStorage public paramkeeper;\n\n  address public positionToolManager;\n\n  address public traderContractBeaconAddress;\n  address public pltBeaconAddress;\n\n  address public dexeAdmin;\n  address public wethAddress;\n\n  event TraderContractCreated(address newContractAddress);\n\n   /**\n    * @dev Throws if called by any account other than the one with the Admin role granted.\n    */\n    modifier onlyAdmin() {\n        require(hasRole(DEFAULT_ADMIN_ROLE, msg.sender), \"Caller is not the Admin\");\n        _;\n    }\n\n  function initialize(address _admin, address _traderContractBeaconAddress, address _pltBeaconAddress, address _paramkeeper, address _positionToolManager, address _weth) public initializer {\n    __AccessControl_init();\n\n    _setupRole(DEFAULT_ADMIN_ROLE, _admin);\n    \n    dexeAdmin = _admin;\n    wethAddress = _weth;\n    traderContractBeaconAddress = _traderContractBeaconAddress;\n    pltBeaconAddress = _pltBeaconAddress;\n    paramkeeper = IParamStorage(_paramkeeper);\n    positionToolManager = _positionToolManager;\n  }\n\n  function setTraderContractBeaconAddress(address _traderContractBeaconAddress) public onlyAdmin {\n    traderContractBeaconAddress = _traderContractBeaconAddress;\n  }\n\n  function setDexeAdminAddress(address _dexeAdmin) public onlyAdmin {\n    dexeAdmin = _dexeAdmin;\n  }\n\n  /**\n  * Creates Trader Contract instance.\n  * @param _traderWallet - trader's wallet that will be managing Trader Contract\n  * @param _basicToken - basicToken for trader contract\n  * @param _totalSupply - maxTotalSupply of Trader Contract liquidity token. 0 for unlimited supply.\n  * @param _comm - commissions. Array of 3 commissions, specified in a form of natural fration each (i.e. nominator and denominator.). Format: [traderCommDenom, traderCommNom, investorCommDenom, investorCommNom, platformCommDenom, platformCommNom]\n  * @param _actual - flag for setting up \"actual portfolio\". Set to true to enable.\n  * @param _investorRestricted - flag to enable investor whitelist. Set to true to enable.\n  * @param _name - Trader ERC20 token name\n  * @param _symbol - Trader ERC20 token symbol\n  **/\n  function createTraderContract(address _traderWallet, address _basicToken, uint256 _totalSupply, uint16[6] memory _comm, bool _actual, bool _investorRestricted, string memory _name, string memory _symbol) public returns (address){\n    address traderContractProxy = address(new BeaconProxy(traderContractBeaconAddress, bytes(\"\")));\n    address poolTokenProxy = address(new BeaconProxy(pltBeaconAddress, bytes(\"\")));\n    IPoolLiquidityToken(poolTokenProxy).initialize(traderContractProxy, _totalSupply, _name, _symbol);\n\n      /**\n        address[] iaddr = [\n            0... _admin,\n            1... _traderWallet,\n            2... _basicToken,\n            3... _weth,\n            4... _paramkeeper,\n            5... _positiontoolmanager,\n            6... _dexeComm,\n            7... _insurance,\n            8... _pltTokenAddress,\n            ]\n        uint256[] iuint = [\n            0... _tcNom,\n            1... _tcDenom,\n            ]\n         */\n    uint256 commissions = 0;\n    //trader\n    require (_comm[0] > 0, \"Incorrect trader commission denom\");\n    commissions = commissions + _comm[0];\n    commissions = commissions + (uint256(_comm[1]) << 32);\n    require (_comm[2] > 0, \"Incorrect investor commission denom\");\n    commissions = commissions + (uint256(_comm[2]) << 64);\n    commissions = commissions + (uint256(_comm[3]) << 96);\n    require (_comm[4] > 0, \"Incorrect dexe commission denom\");\n    commissions = commissions + (uint256(_comm[4]) << 128);\n    commissions = commissions + (uint256(_comm[5]) << 160);\n\n    address[9] memory iaddr = [dexeAdmin, _traderWallet, _basicToken, wethAddress, address(paramkeeper),positionToolManager, getDexeCommissionAddress(), getInsuranceAddress(), poolTokenProxy];\n    // uint256[4] memory iuint = [uint256(_tcNom),uint256(_tcDenom),uint256(_icNom),uint256(_icDenom)];\n\n    ITraderPoolInitializable(traderContractProxy).initialize(iaddr, commissions, _actual, _investorRestricted);\n    //\n    emit TraderContractCreated(traderContractProxy);\n\n    return traderContractProxy;\n  }\n\n  function getInsuranceAddress() public view returns (address) {\n    return paramkeeper.getAddress(101);\n  }\n\n  function getDexeCommissionAddress() public view returns (address) {\n    return paramkeeper.getAddress(102);\n  }\n\n}\n",
  "sourcePath": "/Users/Burger/dexe/contracts1/dexe-asset-management/contracts/TraderPoolFactoryUpgradeable.sol",
  "compiler": {
    "name": "solc",
    "version": "0.6.6+commit.6c089d02.Emscripten.clang"
  },
  "schemaVersion": "3.2.4",
  "updatedAt": "2021-06-08T10:00:09.342Z",
  "devdoc": {
    "methods": {
      "createTraderContract(address,address,uint256,uint16[6],bool,bool,string,string)": {
        "params": {
          "_actual": "- flag for setting up \"actual portfolio\". Set to true to enable.",
          "_basicToken": "- basicToken for trader contract",
          "_comm": "- commissions. Array of 3 commissions, specified in a form of natural fration each (i.e. nominator and denominator.). Format: [traderCommDenom, traderCommNom, investorCommDenom, investorCommNom, platformCommDenom, platformCommNom]",
          "_investorRestricted": "- flag to enable investor whitelist. Set to true to enable.",
          "_name": "- Trader ERC20 token name",
          "_symbol": "- Trader ERC20 token symbol*",
          "_totalSupply": "- maxTotalSupply of Trader Contract liquidity token. 0 for unlimited supply.",
          "_traderWallet": "- trader's wallet that will be managing Trader Contract"
        }
      },
      "getRoleAdmin(bytes32)": {
        "details": "Returns the admin role that controls `role`. See {grantRole} and {revokeRole}.     * To change a role's admin, use {_setRoleAdmin}."
      },
      "getRoleMember(bytes32,uint256)": {
        "details": "Returns one of the accounts that have `role`. `index` must be a value between 0 and {getRoleMemberCount}, non-inclusive.     * Role bearers are not sorted in any particular way, and their ordering may change at any point.     * WARNING: When using {getRoleMember} and {getRoleMemberCount}, make sure you perform all queries on the same block. See the following https://forum.openzeppelin.com/t/iterating-over-elements-on-enumerableset-in-openzeppelin-contracts/2296[forum post] for more information."
      },
      "getRoleMemberCount(bytes32)": {
        "details": "Returns the number of accounts that have `role`. Can be used together with {getRoleMember} to enumerate all bearers of a role."
      },
      "grantRole(bytes32,address)": {
        "details": "Grants `role` to `account`.     * If `account` had not been already granted `role`, emits a {RoleGranted} event.     * Requirements:     * - the caller must have ``role``'s admin role."
      },
      "hasRole(bytes32,address)": {
        "details": "Returns `true` if `account` has been granted `role`."
      },
      "renounceRole(bytes32,address)": {
        "details": "Revokes `role` from the calling account.     * Roles are often managed via {grantRole} and {revokeRole}: this function's purpose is to provide a mechanism for accounts to lose their privileges if they are compromised (such as when a trusted device is misplaced).     * If the calling account had been granted `role`, emits a {RoleRevoked} event.     * Requirements:     * - the caller must be `account`."
      },
      "revokeRole(bytes32,address)": {
        "details": "Revokes `role` from `account`.     * If `account` had been granted `role`, emits a {RoleRevoked} event.     * Requirements:     * - the caller must have ``role``'s admin role."
      }
    }
  },
  "userdoc": {
    "methods": {
      "createTraderContract(address,address,uint256,uint16[6],bool,bool,string,string)": {
        "notice": "Creates Trader Contract instance."
      }
    }
  }
}