{
  "contractName": "TraderPoolUpgradeable",
  "abi": [
    {
      "anonymous": false,
      "inputs": [
        {
          "indexed": true,
          "internalType": "address",
          "name": "who",
          "type": "address"
        },
        {
          "indexed": false,
          "internalType": "uint256",
          "name": "amountBT",
          "type": "uint256"
        },
        {
          "indexed": false,
          "internalType": "uint256",
          "name": "liquidity",
          "type": "uint256"
        },
        {
          "indexed": false,
          "internalType": "int128",
          "name": "price",
          "type": "int128"
        }
      ],
      "name": "Deposit",
      "type": "event"
    },
    {
      "anonymous": false,
      "inputs": [
        {
          "indexed": false,
          "internalType": "address",
          "name": "fromAsset",
          "type": "address"
        },
        {
          "indexed": false,
          "internalType": "address",
          "name": "toAsset",
          "type": "address"
        },
        {
          "indexed": false,
          "internalType": "uint256",
          "name": "fromAmt",
          "type": "uint256"
        },
        {
          "indexed": false,
          "internalType": "uint256",
          "name": "toAmt",
          "type": "uint256"
        }
      ],
      "name": "Exchanged",
      "type": "event"
    },
    {
      "anonymous": false,
      "inputs": [
        {
          "indexed": false,
          "internalType": "uint256",
          "name": "amount",
          "type": "uint256"
        }
      ],
      "name": "Loss",
      "type": "event"
    },
    {
      "anonymous": false,
      "inputs": [
        {
          "indexed": false,
          "internalType": "address",
          "name": "account",
          "type": "address"
        }
      ],
      "name": "Paused",
      "type": "event"
    },
    {
      "anonymous": false,
      "inputs": [
        {
          "indexed": false,
          "internalType": "uint256",
          "name": "amount",
          "type": "uint256"
        }
      ],
      "name": "Profit",
      "type": "event"
    },
    {
      "anonymous": false,
      "inputs": [
        {
          "indexed": true,
          "internalType": "bytes32",
          "name": "role",
          "type": "bytes32"
        },
        {
          "indexed": true,
          "internalType": "bytes32",
          "name": "previousAdminRole",
          "type": "bytes32"
        },
        {
          "indexed": true,
          "internalType": "bytes32",
          "name": "newAdminRole",
          "type": "bytes32"
        }
      ],
      "name": "RoleAdminChanged",
      "type": "event"
    },
    {
      "anonymous": false,
      "inputs": [
        {
          "indexed": true,
          "internalType": "bytes32",
          "name": "role",
          "type": "bytes32"
        },
        {
          "indexed": true,
          "internalType": "address",
          "name": "account",
          "type": "address"
        },
        {
          "indexed": true,
          "internalType": "address",
          "name": "sender",
          "type": "address"
        }
      ],
      "name": "RoleGranted",
      "type": "event"
    },
    {
      "anonymous": false,
      "inputs": [
        {
          "indexed": true,
          "internalType": "bytes32",
          "name": "role",
          "type": "bytes32"
        },
        {
          "indexed": true,
          "internalType": "address",
          "name": "account",
          "type": "address"
        },
        {
          "indexed": true,
          "internalType": "address",
          "name": "sender",
          "type": "address"
        }
      ],
      "name": "RoleRevoked",
      "type": "event"
    },
    {
      "anonymous": false,
      "inputs": [
        {
          "indexed": false,
          "internalType": "address",
          "name": "account",
          "type": "address"
        }
      ],
      "name": "Unpaused",
      "type": "event"
    },
    {
      "anonymous": false,
      "inputs": [
        {
          "indexed": true,
          "internalType": "address",
          "name": "who",
          "type": "address"
        },
        {
          "indexed": false,
          "internalType": "uint256",
          "name": "amountBT",
          "type": "uint256"
        },
        {
          "indexed": false,
          "internalType": "uint256",
          "name": "liquidity",
          "type": "uint256"
        },
        {
          "indexed": false,
          "internalType": "uint256",
          "name": "commision",
          "type": "uint256"
        }
      ],
      "name": "Withdraw",
      "type": "event"
    },
    {
      "stateMutability": "payable",
      "type": "fallback"
    },
    {
      "inputs": [],
      "name": "DEFAULT_ADMIN_ROLE",
      "outputs": [
        {
          "internalType": "bytes32",
          "name": "",
          "type": "bytes32"
        }
      ],
      "stateMutability": "view",
      "type": "function"
    },
    {
      "inputs": [],
      "name": "TRADER_ROLE",
      "outputs": [
        {
          "internalType": "bytes32",
          "name": "",
          "type": "bytes32"
        }
      ],
      "stateMutability": "view",
      "type": "function"
    },
    {
      "inputs": [
        {
          "internalType": "uint256",
          "name": "",
          "type": "uint256"
        }
      ],
      "name": "assetTokenAddresses",
      "outputs": [
        {
          "internalType": "address",
          "name": "",
          "type": "address"
        }
      ],
      "stateMutability": "view",
      "type": "function"
    },
    {
      "inputs": [],
      "name": "availableCap",
      "outputs": [
        {
          "internalType": "uint256",
          "name": "",
          "type": "uint256"
        }
      ],
      "stateMutability": "view",
      "type": "function"
    },
    {
      "inputs": [],
      "name": "basicToken",
      "outputs": [
        {
          "internalType": "contract IERC20Token",
          "name": "",
          "type": "address"
        }
      ],
      "stateMutability": "view",
      "type": "function"
    },
    {
      "inputs": [],
      "name": "commissions",
      "outputs": [
        {
          "internalType": "uint256",
          "name": "",
          "type": "uint256"
        }
      ],
      "stateMutability": "view",
      "type": "function"
    },
    {
      "inputs": [
        {
          "internalType": "uint256",
          "name": "amount",
          "type": "uint256"
        }
      ],
      "name": "deposit",
      "outputs": [],
      "stateMutability": "nonpayable",
      "type": "function"
    },
    {
      "inputs": [
        {
          "internalType": "address",
          "name": "to",
          "type": "address"
        }
      ],
      "name": "depositETHTo",
      "outputs": [],
      "stateMutability": "payable",
      "type": "function"
    },
    {
      "inputs": [
        {
          "internalType": "uint256",
          "name": "amount",
          "type": "uint256"
        },
        {
          "internalType": "address",
          "name": "to",
          "type": "address"
        }
      ],
      "name": "depositTo",
      "outputs": [],
      "stateMutability": "nonpayable",
      "type": "function"
    },
    {
      "inputs": [
        {
          "internalType": "address",
          "name": "",
          "type": "address"
        }
      ],
      "name": "deposits",
      "outputs": [
        {
          "internalType": "uint256",
          "name": "amount",
          "type": "uint256"
        },
        {
          "internalType": "int128",
          "name": "price",
          "type": "int128"
        }
      ],
      "stateMutability": "view",
      "type": "function"
    },
    {
      "inputs": [],
      "name": "dexeCommissionAddress",
      "outputs": [
        {
          "internalType": "address",
          "name": "",
          "type": "address"
        }
      ],
      "stateMutability": "view",
      "type": "function"
    },
    {
      "inputs": [],
      "name": "dexeCommissionBalance",
      "outputs": [
        {
          "internalType": "uint256",
          "name": "",
          "type": "uint256"
        }
      ],
      "stateMutability": "view",
      "type": "function"
    },
    {
      "inputs": [
        {
          "internalType": "bytes32",
          "name": "role",
          "type": "bytes32"
        }
      ],
      "name": "getRoleAdmin",
      "outputs": [
        {
          "internalType": "bytes32",
          "name": "",
          "type": "bytes32"
        }
      ],
      "stateMutability": "view",
      "type": "function"
    },
    {
      "inputs": [
        {
          "internalType": "bytes32",
          "name": "role",
          "type": "bytes32"
        },
        {
          "internalType": "uint256",
          "name": "index",
          "type": "uint256"
        }
      ],
      "name": "getRoleMember",
      "outputs": [
        {
          "internalType": "address",
          "name": "",
          "type": "address"
        }
      ],
      "stateMutability": "view",
      "type": "function"
    },
    {
      "inputs": [
        {
          "internalType": "bytes32",
          "name": "role",
          "type": "bytes32"
        }
      ],
      "name": "getRoleMemberCount",
      "outputs": [
        {
          "internalType": "uint256",
          "name": "",
          "type": "uint256"
        }
      ],
      "stateMutability": "view",
      "type": "function"
    },
    {
      "inputs": [
        {
          "internalType": "bytes32",
          "name": "role",
          "type": "bytes32"
        },
        {
          "internalType": "address",
          "name": "account",
          "type": "address"
        }
      ],
      "name": "grantRole",
      "outputs": [],
      "stateMutability": "nonpayable",
      "type": "function"
    },
    {
      "inputs": [
        {
          "internalType": "bytes32",
          "name": "role",
          "type": "bytes32"
        },
        {
          "internalType": "address",
          "name": "account",
          "type": "address"
        }
      ],
      "name": "hasRole",
      "outputs": [
        {
          "internalType": "bool",
          "name": "",
          "type": "bool"
        }
      ],
      "stateMutability": "view",
      "type": "function"
    },
    {
      "inputs": [],
      "name": "insuranceContractAddress",
      "outputs": [
        {
          "internalType": "address",
          "name": "",
          "type": "address"
        }
      ],
      "stateMutability": "view",
      "type": "function"
    },
    {
      "inputs": [
        {
          "internalType": "address",
          "name": "",
          "type": "address"
        }
      ],
      "name": "investorWhitelist",
      "outputs": [
        {
          "internalType": "bool",
          "name": "",
          "type": "bool"
        }
      ],
      "stateMutability": "view",
      "type": "function"
    },
    {
      "inputs": [],
      "name": "isActualOn",
      "outputs": [
        {
          "internalType": "bool",
          "name": "",
          "type": "bool"
        }
      ],
      "stateMutability": "view",
      "type": "function"
    },
    {
      "inputs": [],
      "name": "isInvestorsWhitelistEnabled",
      "outputs": [
        {
          "internalType": "bool",
          "name": "",
          "type": "bool"
        }
      ],
      "stateMutability": "view",
      "type": "function"
    },
    {
      "inputs": [],
      "name": "maxDepositedTokenPrice",
      "outputs": [
        {
          "internalType": "int128",
          "name": "",
          "type": "int128"
        }
      ],
      "stateMutability": "view",
      "type": "function"
    },
    {
      "inputs": [],
      "name": "paused",
      "outputs": [
        {
          "internalType": "bool",
          "name": "",
          "type": "bool"
        }
      ],
      "stateMutability": "view",
      "type": "function"
    },
    {
      "inputs": [],
      "name": "plt",
      "outputs": [
        {
          "internalType": "address",
          "name": "",
          "type": "address"
        }
      ],
      "stateMutability": "view",
      "type": "function"
    },
    {
      "inputs": [
        {
          "internalType": "bytes32",
          "name": "role",
          "type": "bytes32"
        },
        {
          "internalType": "address",
          "name": "account",
          "type": "address"
        }
      ],
      "name": "renounceRole",
      "outputs": [],
      "stateMutability": "nonpayable",
      "type": "function"
    },
    {
      "inputs": [
        {
          "internalType": "bytes32",
          "name": "role",
          "type": "bytes32"
        },
        {
          "internalType": "address",
          "name": "account",
          "type": "address"
        }
      ],
      "name": "revokeRole",
      "outputs": [],
      "stateMutability": "nonpayable",
      "type": "function"
    },
    {
      "inputs": [],
      "name": "storageVersion",
      "outputs": [
        {
          "internalType": "uint128",
          "name": "",
          "type": "uint128"
        }
      ],
      "stateMutability": "view",
      "type": "function"
    },
    {
      "inputs": [],
      "name": "totalSupply",
      "outputs": [
        {
          "internalType": "uint256",
          "name": "",
          "type": "uint256"
        }
      ],
      "stateMutability": "view",
      "type": "function"
    },
    {
      "inputs": [],
      "name": "traderCommissionAddress",
      "outputs": [
        {
          "internalType": "address",
          "name": "",
          "type": "address"
        }
      ],
      "stateMutability": "view",
      "type": "function"
    },
    {
      "inputs": [],
      "name": "traderCommissionBalance",
      "outputs": [
        {
          "internalType": "uint256",
          "name": "",
          "type": "uint256"
        }
      ],
      "stateMutability": "view",
      "type": "function"
    },
    {
      "inputs": [],
      "name": "traderLiquidityBalance",
      "outputs": [
        {
          "internalType": "uint256",
          "name": "",
          "type": "uint256"
        }
      ],
      "stateMutability": "view",
      "type": "function"
    },
    {
      "inputs": [
        {
          "internalType": "address",
          "name": "",
          "type": "address"
        }
      ],
      "name": "traderWhitelist",
      "outputs": [
        {
          "internalType": "bool",
          "name": "",
          "type": "bool"
        }
      ],
      "stateMutability": "view",
      "type": "function"
    },
    {
      "inputs": [
        {
          "internalType": "uint256",
          "name": "amount",
          "type": "uint256"
        }
      ],
      "name": "withdraw",
      "outputs": [],
      "stateMutability": "nonpayable",
      "type": "function"
    },
    {
      "inputs": [
        {
          "internalType": "uint256",
          "name": "amount",
          "type": "uint256"
        }
      ],
      "name": "withdrawETH",
      "outputs": [],
      "stateMutability": "nonpayable",
      "type": "function"
    },
    {
      "inputs": [
        {
          "internalType": "uint256",
          "name": "amount",
          "type": "uint256"
        },
        {
          "internalType": "address payable",
          "name": "to",
          "type": "address"
        }
      ],
      "name": "withdrawETHTo",
      "outputs": [],
      "stateMutability": "nonpayable",
      "type": "function"
    },
    {
      "inputs": [
        {
          "internalType": "uint256",
          "name": "amount",
          "type": "uint256"
        },
        {
          "internalType": "address",
          "name": "to",
          "type": "address"
        }
      ],
      "name": "withdrawTo",
      "outputs": [],
      "stateMutability": "nonpayable",
      "type": "function"
    },
    {
      "stateMutability": "payable",
      "type": "receive"
    },
    {
      "inputs": [],
      "name": "version",
      "outputs": [
        {
          "internalType": "uint32",
          "name": "",
          "type": "uint32"
        }
      ],
      "stateMutability": "view",
      "type": "function"
    },
    {
      "inputs": [
        {
          "internalType": "address[9]",
          "name": "iaddr",
          "type": "address[9]"
        },
        {
          "internalType": "uint256",
          "name": "_commissions",
          "type": "uint256"
        },
        {
          "internalType": "bool",
          "name": "_actual",
          "type": "bool"
        },
        {
          "internalType": "bool",
          "name": "_investorRestricted",
          "type": "bool"
        }
      ],
      "name": "initialize",
      "outputs": [],
      "stateMutability": "nonpayable",
      "type": "function"
    },
    {
      "inputs": [
        {
          "internalType": "address",
          "name": "_traderAddress",
          "type": "address"
        }
      ],
      "name": "addTraderAddress",
      "outputs": [],
      "stateMutability": "nonpayable",
      "type": "function"
    },
    {
      "inputs": [
        {
          "internalType": "address",
          "name": "_traderAddress",
          "type": "address"
        }
      ],
      "name": "removeTraderAddress",
      "outputs": [],
      "stateMutability": "nonpayable",
      "type": "function"
    },
    {
      "inputs": [
        {
          "internalType": "address[]",
          "name": "_investors",
          "type": "address[]"
        }
      ],
      "name": "addInvestorAddress",
      "outputs": [],
      "stateMutability": "nonpayable",
      "type": "function"
    },
    {
      "inputs": [
        {
          "internalType": "address[]",
          "name": "_investors",
          "type": "address[]"
        }
      ],
      "name": "removeInvestorAddress",
      "outputs": [],
      "stateMutability": "nonpayable",
      "type": "function"
    },
    {
      "inputs": [
        {
          "internalType": "address",
          "name": "fromAsset",
          "type": "address"
        },
        {
          "internalType": "address",
          "name": "toAsset",
          "type": "address"
        },
        {
          "internalType": "uint256",
          "name": "fromAmt",
          "type": "uint256"
        },
        {
          "internalType": "address",
          "name": "caller",
          "type": "address"
        },
        {
          "internalType": "bytes",
          "name": "_calldata",
          "type": "bytes"
        }
      ],
      "name": "initiateExchangeOperation",
      "outputs": [],
      "stateMutability": "nonpayable",
      "type": "function"
    },
    {
      "inputs": [],
      "name": "positionsLength",
      "outputs": [
        {
          "internalType": "uint256",
          "name": "",
          "type": "uint256"
        }
      ],
      "stateMutability": "view",
      "type": "function"
    },
    {
      "inputs": [
        {
          "internalType": "uint16",
          "name": "_index",
          "type": "uint16"
        }
      ],
      "name": "positionAt",
      "outputs": [
        {
          "internalType": "uint256",
          "name": "",
          "type": "uint256"
        },
        {
          "internalType": "uint256",
          "name": "",
          "type": "uint256"
        },
        {
          "internalType": "address",
          "name": "",
          "type": "address"
        }
      ],
      "stateMutability": "view",
      "type": "function"
    },
    {
      "inputs": [
        {
          "internalType": "address",
          "name": "asset",
          "type": "address"
        }
      ],
      "name": "positionFor",
      "outputs": [
        {
          "internalType": "uint256",
          "name": "",
          "type": "uint256"
        },
        {
          "internalType": "uint256",
          "name": "",
          "type": "uint256"
        },
        {
          "internalType": "address",
          "name": "",
          "type": "address"
        }
      ],
      "stateMutability": "view",
      "type": "function"
    },
    {
      "inputs": [
        {
          "internalType": "uint256",
          "name": "amount",
          "type": "uint256"
        }
      ],
      "name": "withdrawTraderCommission",
      "outputs": [],
      "stateMutability": "nonpayable",
      "type": "function"
    },
    {
      "inputs": [
        {
          "internalType": "uint256",
          "name": "amount",
          "type": "uint256"
        }
      ],
      "name": "withdrawDexeCommission",
      "outputs": [],
      "stateMutability": "nonpayable",
      "type": "function"
    },
    {
      "inputs": [
        {
          "internalType": "address",
          "name": "_traderCommissionAddress",
          "type": "address"
        }
      ],
      "name": "setTraderCommissionAddress",
      "outputs": [],
      "stateMutability": "nonpayable",
      "type": "function"
    },
    {
      "inputs": [
        {
          "internalType": "uint256",
          "name": "_type",
          "type": "uint256"
        },
        {
          "internalType": "uint16",
          "name": "_nom",
          "type": "uint16"
        },
        {
          "internalType": "uint16",
          "name": "_denom",
          "type": "uint16"
        }
      ],
      "name": "setCommission",
      "outputs": [],
      "stateMutability": "nonpayable",
      "type": "function"
    },
    {
      "inputs": [],
      "name": "pause",
      "outputs": [],
      "stateMutability": "nonpayable",
      "type": "function"
    },
    {
      "inputs": [],
      "name": "unpause",
      "outputs": [],
      "stateMutability": "nonpayable",
      "type": "function"
    },
    {
      "inputs": [],
      "name": "getMaxPositionOpenAmount",
      "outputs": [
        {
          "internalType": "uint256",
          "name": "",
          "type": "uint256"
        }
      ],
      "stateMutability": "view",
      "type": "function"
    },
    {
      "inputs": [
        {
          "internalType": "address",
          "name": "holder",
          "type": "address"
        }
      ],
      "name": "getUserData",
      "outputs": [
        {
          "internalType": "uint256",
          "name": "",
          "type": "uint256"
        },
        {
          "internalType": "int128",
          "name": "",
          "type": "int128"
        },
        {
          "internalType": "uint256",
          "name": "",
          "type": "uint256"
        }
      ],
      "stateMutability": "view",
      "type": "function"
    },
    {
      "inputs": [],
      "name": "getTotalValueLocked",
      "outputs": [
        {
          "internalType": "uint256",
          "name": "",
          "type": "uint256"
        },
        {
          "internalType": "uint256",
          "name": "",
          "type": "uint256"
        }
      ],
      "stateMutability": "view",
      "type": "function"
    },
    {
      "inputs": [
        {
          "internalType": "uint256",
          "name": "_type",
          "type": "uint256"
        }
      ],
      "name": "getCommission",
      "outputs": [
        {
          "internalType": "uint16",
          "name": "",
          "type": "uint16"
        },
        {
          "internalType": "uint16",
          "name": "",
          "type": "uint16"
        }
      ],
      "stateMutability": "view",
      "type": "function"
    }
  ],
  "bytecode": "0x608060405234801561001057600080fd5b50615503806100206000396000f3fe60806040526004361061036e5760003560e01c80638456cb59116101c6578063c86283c8116100f7578063e92ca57211610095578063f14210a61161006f578063f14210a614610ec9578063fc7e286d14610ef3578063fd93b17114610f44578063ffc9896b14610f7257610447565b8063e92ca57214610e75578063e9773ab814610e9f578063f0a56fc814610eb457610447565b8063d547741f116100d1578063d547741f14610dc0578063d6887bfa14610df9578063dbb5ecd314610e0e578063dca3a04114610e3c57610447565b8063c86283c814610d2a578063ca15c87314610d63578063cc42952814610d8d57610447565b8063a217fddf11610164578063b26025aa1161013e578063b26025aa14610c8a578063b6b55f2514610cb8578063bebdef2514610ce2578063c6bd0fad14610cf757610447565b8063a217fddf14610c25578063a66d8fad14610c3a578063ad3793fb14610c6057610447565b806391d14854116101a057806391d1485414610acf57806397776f6414610b085780639d6bc8fa14610bb6578063a1f1084f14610c1057610447565b80638456cb5914610a575780639010d07c14610a6c57806390f9cb0814610a9c57610447565b806336568abe116102a05780635c975abb1161023e5780636c1c4734116102185780636c1c4734146109c157806370aff70f146109f45780637108921f14610a2d578063790aed1714610a4257610447565b80635c975abb146108c25780635d252d82146108d7578063619ced0f1461091357610447565b80633f4ba83a1161027a5780633f4ba83a14610777578063403ebd031461078c5780634f083e8a146107bd57806354fd4d501461089457610447565b806336568abe146106de5780633c8bccd9146107175780633eb0b3121461076257610447565b80631bf8060c1161030d57806329228fb4116102e757806329228fb4146106515780632e1a7d4d146106665780632f2ff15d14610690578063324e449d146106c957610447565b80631bf8060c146105cb5780632453866014610612578063248a9ca31461062757610447565b806314c179c01161034957806314c179c01461055b57806317630ded1461058c57806318160ddd146105a1578063190b8dc5146105b657610447565b8062cfb42c1461049a5780630f36e00b1461050a5780630f9d04a11461053457610447565b3661044757609754609a546001600160a01b039081169116146103c6576040805162461bcd60e51b8152602060048201526018602482015260008051602061537b833981519152604482015290519081900360640190fd5b6097546001600160a01b031633146104455760975460408051630d0e30db60e41b8152905134926001600160a01b03169163d0e30db091849160048082019260009290919082900301818588803b15801561042057600080fd5b505af1158015610434573d6000803e3d6000fd5b50505050506104438133610fc8565b505b005b609754609a546001600160a01b039081169116146103c6576040805162461bcd60e51b8152602060048201526018602482015260008051602061537b833981519152604482015290519081900360640190fd5b3480156104a657600080fd5b5061044560048036036101808110156104be57600080fd5b81019080806101200190600980602002604051908101604052809291908260096020028082843760009201919091525091945050813592505060208101351515906040013515156112b2565b34801561051657600080fd5b506104456004803603602081101561052d57600080fd5b5035611491565b34801561054057600080fd5b5061054961157e565b60408051918252519081900360200190f35b34801561056757600080fd5b5061057061174c565b604080516001600160a01b039092168252519081900360200190f35b34801561059857600080fd5b5061054961175b565b3480156105ad57600080fd5b50610549611761565b3480156105c257600080fd5b506105706117d7565b3480156105d757600080fd5b506105fe600480360360208110156105ee57600080fd5b50356001600160a01b03166117e6565b604080519115158252519081900360200190f35b34801561061e57600080fd5b506105496117fb565b34801561063357600080fd5b506105496004803603602081101561064a57600080fd5b5035611801565b34801561065d57600080fd5b50610570611816565b34801561067257600080fd5b506104456004803603602081101561068957600080fd5b503561182b565b34801561069c57600080fd5b50610445600480360360408110156106b357600080fd5b50803590602001356001600160a01b0316611838565b3480156106d557600080fd5b506105706118a4565b3480156106ea57600080fd5b506104456004803603604081101561070157600080fd5b50803590602001356001600160a01b03166118b3565b34801561072357600080fd5b506107416004803603602081101561073a57600080fd5b5035611914565b6040805161ffff938416815291909216602082015281519081900390910190f35b34801561076e57600080fd5b50610549611929565b34801561078357600080fd5b5061044561192f565b34801561079857600080fd5b506107a161198f565b604080516001600160801b039092168252519081900360200190f35b3480156107c957600080fd5b50610445600480360360a08110156107e057600080fd5b6001600160a01b0382358116926020810135821692604082013592606083013516919081019060a081016080820135600160201b81111561082057600080fd5b82018360208201111561083257600080fd5b803590602001918460018302840111600160201b8311171561085357600080fd5b91908080601f01602080910402602001604051908101604052809392919081815260200183838082843760009201919091525092955061199e945050505050565b3480156108a057600080fd5b506108a96126c9565b6040805163ffffffff9092168252519081900360200190f35b3480156108ce57600080fd5b506105fe6126d0565b3480156108e357600080fd5b50610445600480360360608110156108fa57600080fd5b5080359061ffff602082013581169160400135166126d9565b34801561091f57600080fd5b506104456004803603602081101561093657600080fd5b810190602081018135600160201b81111561095057600080fd5b82018360208201111561096257600080fd5b803590602001918460208302840111600160201b8311171561098357600080fd5b91908080602002602001604051908101604052809392919081815260200183836020028082843760009201919091525092955061290b945050505050565b3480156109cd57600080fd5b506105fe600480360360208110156109e457600080fd5b50356001600160a01b03166129f1565b348015610a0057600080fd5b5061044560048036036040811015610a1757600080fd5b50803590602001356001600160a01b0316612a06565b348015610a3957600080fd5b50610549612a2e565b348015610a4e57600080fd5b50610549612a34565b348015610a6357600080fd5b50610445612a3a565b348015610a7857600080fd5b5061057060048036036040811015610a8f57600080fd5b5080359060200135612a98565b348015610aa857600080fd5b5061044560048036036020811015610abf57600080fd5b50356001600160a01b0316612abf565b348015610adb57600080fd5b506105fe60048036036040811015610af257600080fd5b50803590602001356001600160a01b0316612b52565b348015610b1457600080fd5b5061044560048036036020811015610b2b57600080fd5b810190602081018135600160201b811115610b4557600080fd5b820183602082011115610b5757600080fd5b803590602001918460208302840111600160201b83111715610b7857600080fd5b919080806020026020016040519081016040528093929190818152602001838360200280828437600092019190915250929550612b70945050505050565b348015610bc257600080fd5b50610be960048036036020811015610bd957600080fd5b50356001600160a01b0316612c6c565b6040805193845260208401929092526001600160a01b031682820152519081900360600190f35b348015610c1c57600080fd5b506105fe612c98565b348015610c3157600080fd5b50610549612ca1565b61044560048036036020811015610c5057600080fd5b50356001600160a01b0316612ca6565b348015610c6c57600080fd5b5061044560048036036020811015610c8357600080fd5b5035612d64565b348015610c9657600080fd5b50610c9f612de1565b6040805192835260208301919091528051918290030190f35b348015610cc457600080fd5b5061044560048036036020811015610cdb57600080fd5b5035612dfc565b348015610cee57600080fd5b50610570612e24565b348015610d0357600080fd5b5061044560048036036020811015610d1a57600080fd5b50356001600160a01b0316612e33565b348015610d3657600080fd5b5061044560048036036040811015610d4d57600080fd5b50803590602001356001600160a01b0316612ec0565b348015610d6f57600080fd5b5061054960048036036020811015610d8657600080fd5b5035612eca565b348015610d9957600080fd5b5061044560048036036020811015610db057600080fd5b50356001600160a01b0316612ee1565b348015610dcc57600080fd5b5061044560048036036040811015610de357600080fd5b50803590602001356001600160a01b0316612f6b565b348015610e0557600080fd5b50610549612fc4565b348015610e1a57600080fd5b50610e23612fca565b60408051600f92830b90920b8252519081900360200190f35b348015610e4857600080fd5b5061044560048036036040811015610e5f57600080fd5b50803590602001356001600160a01b0316612fda565b348015610e8157600080fd5b5061057060048036036020811015610e9857600080fd5b503561302d565b348015610eab57600080fd5b506105fe613054565b348015610ec057600080fd5b50610549613062565b348015610ed557600080fd5b5061044560048036036020811015610eec57600080fd5b5035613085565b348015610eff57600080fd5b50610f2660048036036020811015610f1657600080fd5b50356001600160a01b03166130d8565b60408051928352600f91820b90910b60208301528051918290030190f35b348015610f5057600080fd5b50610be960048036036020811015610f6757600080fd5b503561ffff166130f4565b348015610f7e57600080fd5b50610fa560048036036020811015610f9557600080fd5b50356001600160a01b031661315d565b60408051938452600f92830b90920b602084015282820152519081900360600190f35b610fd3823383613209565b6000610fdd6132f9565b90506000609860009054906101000a90046001600160a01b03166001600160a01b03166318160ddd6040518163ffffffff1660e01b815260040160206040518083038186803b15801561102f57600080fd5b505afa158015611043573d6000803e3d6000fd5b505050506040513d602081101561105957600080fd5b5051905060008083156110b05761108761108161107461330e565b869063ffffffff61341916565b84613472565b91506110a98461109d888663ffffffff61341916565b9063ffffffff6134a916565b90506110d7565b6110ba60016134eb565b91506110d46110c761330e565b879063ffffffff61341916565b90505b609854604080516340c10f1960e01b81526001600160a01b03888116600483015260248201859052915191909216916340c10f1991604480830192600092919082900301818387803b15801561112c57600080fd5b505af1158015611140573d6000803e3d6000fd5b5050609954611158925090508763ffffffff61350916565b6099556111e86111b9611175600f85900b8963ffffffff61356316565b6001600160a01b0388166000908152609b6020526040902080546001909101546111ad91600f91820b90910b9063ffffffff61356316565b9063ffffffff61350916565b6001600160a01b0387166000908152609b60205260409020546111e390899063ffffffff61350916565b613472565b6001600160a01b0386166000908152609b60205260409020600181018054600f9390930b6001600160801b03166001600160801b03199093169290921790915554611239908763ffffffff61350916565b6001600160a01b0386166000818152609b6020908152604091829020939093558051898152928301849052600f85810b900b838201525190917f70d4722f7c84cf1ff653224133fa245bde8c50ee9ce56636429f4ee954445a11919081900360600190a26112aa86823388866135cb565b505050505050565b600054610100900460ff16806112cb57506112cb613bd3565b806112d9575060005460ff16155b6113145760405162461bcd60e51b815260040180806020018281038252602e81526020018061532c602e913960400191505060405180910390fd5b600054610100900460ff1615801561133f576000805460ff1961ff0019909116610100171660011790555b6040850151610100860151606087015161135a929190613bd9565b611362613c89565b61136a613d34565b61137c600086815b6020020151611896565b604080516a5452414445525f524f4c4560a81b8152905190819003600b0190206113a890866001611372565b60208581015160a6805460aa88905562010000600160b01b031916620100006001600160a01b039384169081029190911760ff199081168815151761ff0019166101008815150217909255600090815260af9093526040909220805490921660011790915560c086015160a780546001600160a01b031990811692841692909217905560e087015160a880548316918416919091179055608087015160a98054909216921691909117905561145b6126c9565b60ae80546001600160801b03191663ffffffff92909216919091179055801561148a576000805461ff00191690555b5050505050565b604080516a5452414445525f524f4c4560a81b8152905190819003600b0190206114bb9033612b52565b6114fa576040805162461bcd60e51b81526020600482015260186024820152600080516020615225833981519152604482015290519081900360640190fd5b60ab5481111561153b5760405162461bcd60e51b81526004018080602001828103825260408152602001806152966040913960400191505060405180910390fd5b60a654609a54611565916001600160a01b039182169162010000909104168363ffffffff613dd516565b60ab54611578908263ffffffff613e2716565b60ab5550565b600080611589613e69565b9050600060a960009054906101000a90046001600160a01b03166001600160a01b0316639cdd876e6040518163ffffffff1660e01b815260040160206040518083038186803b1580156115db57600080fd5b505afa1580156115ef573d6000803e3d6000fd5b505050506040513d602081101561160557600080fd5b5051609a5460ad5460408051630d87958760e31b81526001600160a01b0393841660048201526024810192909252519190921691636c3cac38916044808301926020929190829003018186803b15801561165e57600080fd5b505afa158015611672573d6000803e3d6000fd5b505050506040513d602081101561168857600080fd5b5051905080611696575060ad545b60006116da670de0b6b3a764000061109d6107d061109d6116b5611761565b61109d6116cd6099548b61350990919063ffffffff16565b899063ffffffff61341916565b905060006117236116e9611761565b61109d6117016099548861350990919063ffffffff16565b60ad54611717908188600163ffffffff61350916565b9063ffffffff61341916565b9050838111611733576000611743565b611743818563ffffffff613e2716565b94505050505090565b60a8546001600160a01b031681565b60995481565b609854604080516318160ddd60e01b815290516000926001600160a01b0316916318160ddd916004808301926020929190829003018186803b1580156117a657600080fd5b505afa1580156117ba573d6000803e3d6000fd5b505050506040513d60208110156117d057600080fd5b5051905090565b609a546001600160a01b031681565b60b16020526000908152604090205460ff1681565b60ab5481565b60009081526033602052604090206002015490565b60a6546201000090046001600160a01b031681565b611835813361403e565b50565b60008281526033602052604090206002015461185b90611856614317565b612b52565b6118965760405162461bcd60e51b815260040180806020018281038252602f8152602001806151f6602f913960400191505060405180910390fd5b6118a0828261431b565b5050565b60a7546001600160a01b031681565b6118bb614317565b6001600160a01b0316816001600160a01b03161461190a5760405162461bcd60e51b815260040180806020018281038252602f81526020018061549f602f913960400191505060405180910390fd5b6118a0828261438a565b600080611920836143f9565b91509150915091565b60ad5481565b61193a600033612b52565b611985576040805162461bcd60e51b815260206004820152601760248201527621b0b63632b91034b9903737ba103a34329020b236b4b760491b604482015290519081900360640190fd5b61198d614478565b565b60ae546001600160801b031681565b60a9546040805163f6d9325b60e01b815233600482015290516001600160a01b039092169163f6d9325b91602480820192602092909190829003018186803b1580156119e957600080fd5b505afa1580156119fd573d6000803e3d6000fd5b505050506040513d6020811015611a1357600080fd5b5051611a505760405162461bcd60e51b815260040180806020018281038252602181526020018061535a6021913960400191505060405180910390fd5b836001600160a01b0316856001600160a01b03161415611ab0576040805162461bcd60e51b8152602060048201526016602482015275696e636f727265637420617373657420706172616d7360501b604482015290519081900360640190fd5b6001600160a01b038516611b0b576040805162461bcd60e51b815260206004820152601960248201527f696e636f72726563742066726f6d417373657420706172616d00000000000000604482015290519081900360640190fd5b6001600160a01b038416611b66576040805162461bcd60e51b815260206004820152601760248201527f696e636f727265637420746f417373657420706172616d000000000000000000604482015290519081900360640190fd5b604080516a5452414445525f524f4c4560a81b8152905190819003600b019020611b909083612b52565b611bcf576040805162461bcd60e51b81526020600482015260186024820152600080516020615225833981519152604482015290519081900360640190fd5b60a95460408051633af32abf60e01b81526001600160a01b03878116600483015291519190921691633af32abf916024808301926020929190829003018186803b158015611c1c57600080fd5b505afa158015611c30573d6000803e3d6000fd5b505050506040513d6020811015611c4657600080fd5b505180611c6b57506001600160a01b038416600090815260b0602052604090205460ff165b80611c835750609a546001600160a01b038581169116145b611cbe5760405162461bcd60e51b815260040180806020018281038252602a815260200180615245602a913960400191505060405180910390fd5b6000306001600160a01b0316630f9d04a16040518163ffffffff1660e01b815260040160206040518083038186803b158015611cf957600080fd5b505afa158015611d0d573d6000803e3d6000fd5b505050506040513d6020811015611d2357600080fd5b5051609a549091506000906001600160a01b0388811691161415611d48575083611d85565b6001600160a01b038716600090815260b3602090815260408083205460b290925290912054611d82919061109d908863ffffffff61341916565b90505b81811115611dda576040805162461bcd60e51b815260206004820181905260248201527f416d6f756e742072656163686564206d6178696d756d20617661696c61626c65604482015290519081900360640190fd5b50506000806000876001600160a01b03166370a08231306040518263ffffffff1660e01b815260040180826001600160a01b03166001600160a01b0316815260200191505060206040518083038186803b158015611e3757600080fd5b505afa158015611e4b573d6000803e3d6000fd5b505050506040513d6020811015611e6157600080fd5b5051604080516370a0823160e01b815230600482015290519192506000916001600160a01b038a16916370a08231916024808301926020929190829003018186803b158015611eaf57600080fd5b505afa158015611ec3573d6000803e3d6000fd5b505050506040513d6020811015611ed957600080fd5b50519050611ef76001600160a01b038a16338963ffffffff613dd516565b6040516304e2f55f60e11b815260206004820181815287516024840152875133936309c5eabe938a939283926044019185019080838360005b83811015611f48578181015183820152602001611f30565b50505050905090810190601f168015611f755780820380516001836020036101000a031916815260200191505b5092505050602060405180830381600087803b158015611f9457600080fd5b505af1158015611fa8573d6000803e3d6000fd5b505050506040513d6020811015611fbe57600080fd5b5051611ffb5760405162461bcd60e51b815260040180806020018281038252602781526020018061526f6027913960400191505060405180910390fd5b604080516370a0823160e01b8152306004820152905161207f916001600160a01b038c16916370a0823191602480820192602092909190829003018186803b15801561204657600080fd5b505afa15801561205a573d6000803e3d6000fd5b505050506040513d602081101561207057600080fd5b5051839063ffffffff613e2716565b935061211381896001600160a01b03166370a08231306040518263ffffffff1660e01b815260040180826001600160a01b03166001600160a01b0316815260200191505060206040518083038186803b1580156120db57600080fd5b505afa1580156120ef573d6000803e3d6000fd5b505050506040513d602081101561210557600080fd5b50519063ffffffff613e2716565b604080516001600160a01b03808d1682528b1660208201528082018790526060810183905290519194507f9a406bc63ac2307f5ee52002fb44c825e70ce5c177ca9cd148425d32053ed68d93508190036080019150a1609a546001600160a01b0388811691161415612264576001600160a01b038616600090815260b260205260409020546121e85760b480546001810182556000919091527f1c5f5ac147ec2dee04d8ce29bdbebbc58f578e0e1392da66f352a62e5c09c5030180546001600160a01b0319166001600160a01b0388161790555b6001600160a01b038616600090815260b26020526040902054612211908363ffffffff61350916565b6001600160a01b038716600090815260b2602090815260408083209390935560b390522054612246908263ffffffff61350916565b6001600160a01b038716600090815260b360205260409020556126c0565b609a546001600160a01b0387811691161415612533576001600160a01b038716600090815260b2602090815260408083205460b3909252909120546122af818563ffffffff613e2716565b6001600160a01b038a16600090815260b360205260408120919091556122df8261109d858863ffffffff61341916565b6001600160a01b038b16600090815260b2602052604090205490915061230b908263ffffffff613e2716565b6001600160a01b038b16600090815260b260205260409020819055612333576123338a614516565b6000808583116124b75761234d868463ffffffff613e2716565b905060008061235c60016143f9565b9150915061237f8161ffff1661109d8461ffff168661341990919063ffffffff16565b9350600061239661238e6132f9565b6111e3611761565b905060ae60109054906101000a9004600f0b600f0b81600f0b12156124095760ae546000906123d990600f84810b91600160801b9004900b63ffffffff61467a16565b90506123ef600f82900b8263ffffffff6146cd16565b9050612405600f82900b8763ffffffff61356316565b9550505b60008061241660036143f9565b91509150600061243b8261ffff1661109d8561ffff168b61341990919063ffffffff16565b60ac54909150612451908263ffffffff61350916565b60ac55612476612467898363ffffffff613e2716565b60ab549063ffffffff61350916565b60ab556040805188815290517f357d905f1831209797df4d55d79c5c5bf1d9f7311c976afd05e13d881eab9bc89181900360200190a1505050505050612503565b6124c7838763ffffffff613e2716565b604080518281529051600094509192507fb65b2e085d7d040c313f7d4e1ac90f5937026fee497e0e24a7eff16a55e1c5ea919081900360200190a15b612525612516828463ffffffff613e2716565b6099549063ffffffff61350916565b609955506126c09350505050565b6001600160a01b03808816600090815260b36020908152604080832054938a1683528083205460b2909252909120546125b25760b480546001810182556000919091527f1c5f5ac147ec2dee04d8ce29bdbebbc58f578e0e1392da66f352a62e5c09c5030180546001600160a01b0319166001600160a01b038a161790555b6125ee8261109d6125c9828863ffffffff613e2716565b6001600160a01b038d16600090815260b260205260409020549063ffffffff61341916565b6001600160a01b038a16600090815260b26020526040902055612617828563ffffffff613e2716565b6001600160a01b03808b16600090815260b36020908152604080832094909455918b16815260b2909152205461265b906111ad8461109d838963ffffffff61341916565b6001600160a01b038916600090815260b26020526040902055612684818463ffffffff61350916565b6001600160a01b03808a16600090815260b36020908152604080832094909455918c16815260b290915220546126bd576126bd89614516565b50505b50505050505050565b6298bd9190565b60655460ff1690565b6126e4600033612b52565b61272f576040805162461bcd60e51b815260206004820152601760248201527621b0b63632b91034b9903737ba103a34329020b236b4b760491b604482015290519081900360640190fd5b60008161ffff161161277a576040805162461bcd60e51b815260206004820152600f60248201526e496e636f72726563742064656e6f6d60881b604482015290519081900360640190fd5b82600114806127895750826002145b806127945750826003145b6127d6576040805162461bcd60e51b815260206004820152600e60248201526d496e636f7272656374207479706560901b604482015290519081900360640190fd5b6127de6151b5565b6127e860016143f9565b61ffff908116602084015216815261280060026143f9565b61ffff908116606084015216604082015261281b60036143f9565b61ffff90811660a084015216608082015260018414156128545761ffff83168152818160015b61ffff909216602092909202015261288c565b83600214156128705761ffff8316604082015281816003612841565b836003141561288c5761ffff8084166080830152821660a08201525b80516000906128a090829061ffff16613509565b90506128c560208360015b602002015161ffff16901b8261350990919063ffffffff16565b90506128d460408360026128ab565b90506128e360608360036128ab565b90506128f260808360046128ab565b905061290160a08360056128ab565b60aa555050505050565b604080516a5452414445525f524f4c4560a81b8152905190819003600b0190206129359033612b52565b612974576040805162461bcd60e51b81526020600482015260186024820152600080516020615225833981519152604482015290519081900360640190fd5b60005b81518110156118a05760006001600160a01b031682828151811061299757fe5b60200260200101516001600160a01b0316146129e95760b160008383815181106129bd57fe5b6020908102919091018101516001600160a01b03168252810191909152604001600020805460ff191690555b600101612977565b60b06020526000908152604090205460ff1681565b609a54612a24906001600160a01b031633308563ffffffff61470316565b6118a08282610fc8565b60ac5481565b60aa5481565b612a45600033612b52565b612a90576040805162461bcd60e51b815260206004820152601760248201527621b0b63632b91034b9903737ba103a34329020b236b4b760491b604482015290519081900360640190fd5b61198d61475d565b6000828152603360205260408120612ab6908363ffffffff6147de16565b90505b92915050565b604080516a5452414445525f524f4c4560a81b8152905190819003600b019020612ae99033612b52565b612b28576040805162461bcd60e51b81526020600482015260186024820152600080516020615225833981519152604482015290519081900360640190fd5b60a680546001600160a01b03909216620100000262010000600160b01b0319909216919091179055565b6000828152603360205260408120612ab6908363ffffffff6147ea16565b604080516a5452414445525f524f4c4560a81b8152905190819003600b019020612b9a9033612b52565b612bd9576040805162461bcd60e51b81526020600482015260186024820152600080516020615225833981519152604482015290519081900360640190fd5b60005b81518110156118a05760006001600160a01b0316828281518110612bfc57fe5b60200260200101516001600160a01b031614612c6457600160b16000848481518110612c2457fe5b60200260200101516001600160a01b03166001600160a01b0316815260200190815260200160002060006101000a81548160ff0219169083151502179055505b600101612bdc565b6001600160a01b038116600090815260b2602090815260408083205460b3909252909120549092909190565b60a65460ff1681565b600081565b609754609a546001600160a01b03908116911614612cf9576040805162461bcd60e51b8152602060048201526018602482015260008051602061537b833981519152604482015290519081900360640190fd5b60975460408051630d0e30db60e41b8152905134926001600160a01b03169163d0e30db091849160048082019260009290919082900301818588803b158015612d4157600080fd5b505af1158015612d55573d6000803e3d6000fd5b50505050506118a08183610fc8565b60ac54811115612da55760405162461bcd60e51b81526004018080602001828103825260408152602001806152966040913960400191505060405180910390fd5b60a754609a54612dc8916001600160a01b0391821691168363ffffffff613dd516565b60ac54612ddb908263ffffffff613e2716565b60ac5550565b600080612dec6132f9565b612df4611761565b915091509091565b609a54612e1a906001600160a01b031633308463ffffffff61470316565b6118358133610fc8565b6098546001600160a01b031681565b604080516a5452414445525f524f4c4560a81b8152905190819003600b019020612e5d9033612b52565b612e9c576040805162461bcd60e51b81526020600482015260186024820152600080516020615225833981519152604482015290519081900360640190fd5b6001600160a01b0316600090815260af60205260409020805460ff19166001179055565b6118a0828261403e565b6000818152603360205260408120612ab9906147ff565b604080516a5452414445525f524f4c4560a81b8152905190819003600b019020612f0b9033612b52565b612f4a576040805162461bcd60e51b81526020600482015260186024820152600080516020615225833981519152604482015290519081900360640190fd5b6001600160a01b0316600090815260af60205260409020805460ff19169055565b600082815260336020526040902060020154612f8990611856614317565b61190a5760405162461bcd60e51b81526004018080602001828103825260308152602001806152fc6030913960400191505060405180910390fd5b60b45490565b60ae54600160801b9004600f0b81565b609754609a546001600160a01b03908116911614612ec0576040805162461bcd60e51b8152602060048201526018602482015260008051602061537b833981519152604482015290519081900360640190fd5b60b4818154811061303a57fe5b6000918252602090912001546001600160a01b0316905081565b60a654610100900460ff1681565b604080516a5452414445525f524f4c4560a81b8152905190819003600b01902081565b609754609a546001600160a01b0390811691161461182b576040805162461bcd60e51b8152602060048201526018602482015260008051602061537b833981519152604482015290519081900360640190fd5b609b6020526000908152604090208054600190910154600f0b82565b600080600060b4805490508461ffff161061310e57600080fd5b600060b48561ffff168154811061312157fe5b60009182526020808320909101546001600160a01b031680835260b2825260408084205460b39093529092205490955093509150509193909250565b6001600160a01b038082166000818152609b60209081526040808320805460019091015460985483516370a0823160e01b8152600481019790975292519496879687969395600f9390930b94909116926370a0823192602480840193919291829003018186803b1580156131d057600080fd5b505afa1580156131e4573d6000803e3d6000fd5b505050506040513d60208110156131fa57600080fd5b50519196909550909350915050565b6132116126d0565b15613263576040805162461bcd60e51b815260206004820152601a60248201527f43616e6e6f74206465706f736974207768656e20706175736564000000000000604482015290519081900360640190fd5b60a654610100900460ff161580613289575033600090815260b1602052604090205460ff165b806132a3575033600090815260af602052604090205460ff165b6132f4576040805162461bcd60e51b815260206004820152601860248201527f496e766573746f72206e6f742077686974656c69737465640000000000000000604482015290519081900360640190fd5b505050565b60006133096099546111ad613e69565b905090565b6000613309609a60009054906101000a90046001600160a01b03166001600160a01b031663313ce5676040518163ffffffff1660e01b815260040160206040518083038186803b15801561336157600080fd5b505afa158015613375573d6000803e3d6000fd5b505050506040513d602081101561338b57600080fd5b50516098546040805163313ce56760e01b8152905160ff909316600a0a926001600160a01b039092169163313ce56791600480820192602092909190829003018186803b1580156133db57600080fd5b505afa1580156133ef573d6000803e3d6000fd5b505050506040513d602081101561340557600080fd5b505160ff16600a0a9063ffffffff6134a916565b60008261342857506000612ab9565b8282028284828161343557fe5b0414612ab65760405162461bcd60e51b815260040180806020018281038252602181526020018061539b6021913960400191505060405180910390fd5b60008161347e57600080fd5b600061348a848461480a565b905060016001607f1b036001600160801b0382161115612ab657600080fd5b6000612ab683836040518060400160405280601a81526020017f536166654d6174683a206469766973696f6e206279207a65726f000000000000815250614953565b6000677fffffffffffffff82111561350257600080fd5b5060401b90565b600082820183811015612ab6576040805162461bcd60e51b815260206004820152601b60248201527f536166654d6174683a206164646974696f6e206f766572666c6f770000000000604482015290519081900360640190fd5b60008161357257506000612ab9565b600083600f0b121561358357600080fd5b600f83900b6001600160801b038316810260401c90608084901c026001600160c01b038111156135b257600080fd5b60401b81198111156135c357600080fd5b019392505050565b6001600160a01b038216600090815260af602052604090205460ff16156136035760ad546135ff908563ffffffff61350916565b60ad555b60ae54600f82810b600160801b909204810b900b1261362e5760ae54600160801b9004600f0b613630565b805b60ae8054600f9290920b6001600160801b03908116600160801b02921691909117905560a9546040805163d6a235f960e01b815290516000926001600160a01b03169163d6a235f9916004808301926020929190829003018186803b15801561369857600080fd5b505afa1580156136ac573d6000803e3d6000fd5b505050506040513d60208110156136c257600080fd5b505160a65490915060ff1680156136da575060b45415155b156112aa576000805b60b45481101561373d5761373360b2600060b4848154811061370157fe5b60009182526020808320909101546001600160a01b03168352820192909252604001902054839063ffffffff61350916565b91506001016136e3565b508660005b60b45461ffff821610156126bd5760006137a08461109d60b2600060b48761ffff168154811061376e57fe5b60009182526020808320909101546001600160a01b031683528201929092526040019020548d9063ffffffff61341916565b9050828110156137ad5750815b609a54604080516370a0823160e01b81523060048201529051600092839283926001600160a01b03909216916370a0823191602480820192602092909190829003018186803b1580156137ff57600080fd5b505afa158015613813573d6000803e3d6000fd5b505050506040513d602081101561382957600080fd5b505160b4805491925060009161ffff881690811061384357fe5b60009182526020918290200154604080516370a0823160e01b815230600482015290516001600160a01b03909216926370a0823192602480840193829003018186803b15801561389257600080fd5b505afa1580156138a6573d6000803e3d6000fd5b505050506040513d60208110156138bc57600080fd5b5051609a549091506138de906001600160a01b03168a8763ffffffff613dd516565b609a5460b480546001600160a01b03808d1693631c798cff9391169161ffff8b1690811061390857fe5b6000918252602080832090910154604080516001600160e01b031960e088901b1681526001600160a01b039586166004820152949091166024850152604484018b905251606480850194929391928390030190829087803b15801561396c57600080fd5b505af1158015613980573d6000803e3d6000fd5b505050506040513d602081101561399657600080fd5b5050609a54604080516370a0823160e01b815230600482015290516139e4926001600160a01b0316916370a08231916024808301926020929190829003018186803b15801561204657600080fd5b9350613a4a8160b48861ffff16815481106139fb57fe5b60009182526020918290200154604080516370a0823160e01b815230600482015290516001600160a01b03909216926370a0823192602480840193829003018186803b1580156120db57600080fd5b925050507f9a406bc63ac2307f5ee52002fb44c825e70ce5c177ca9cd148425d32053ed68d609a60009054906101000a90046001600160a01b031660b48661ffff1681548110613a9657fe5b60009182526020918290200154604080516001600160a01b039485168152939091169183019190915281810185905260608201849052519081900360800190a1613b208260b2600060b48861ffff1681548110613aef57fe5b60009182526020808320909101546001600160a01b031683528201929092526040019020549063ffffffff61350916565b60b2600060b48761ffff1681548110613b3557fe5b60009182526020808320909101546001600160a01b0316835282019290925260400181209190915560b48054613b7892849260b39261ffff8a16908110613aef57fe5b60b3600060b48761ffff1681548110613b8d57fe5b60009182526020808320909101546001600160a01b03168352820192909252604001902055613bc2858363ffffffff613e2716565b945050600190920191506137429050565b303b1590565b600054610100900460ff1680613bf25750613bf2613bd3565b80613c00575060005460ff16155b613c3b5760405162461bcd60e51b815260040180806020018281038252602e81526020018061532c602e913960400191505060405180910390fd5b600054610100900460ff16158015613c66576000805460ff1961ff0019909116610100171660011790555b613c718484846149f7565b8015613c83576000805461ff00191690555b50505050565b600054610100900460ff1680613ca25750613ca2613bd3565b80613cb0575060005460ff16155b613ceb5760405162461bcd60e51b815260040180806020018281038252602e81526020018061532c602e913960400191505060405180910390fd5b600054610100900460ff16158015613d16576000805460ff1961ff0019909116610100171660011790555b6065805460ff191690558015611835576000805461ff001916905550565b600054610100900460ff1680613d4d5750613d4d613bd3565b80613d5b575060005460ff16155b613d965760405162461bcd60e51b815260040180806020018281038252602e81526020018061532c602e913960400191505060405180910390fd5b600054610100900460ff16158015613dc1576000805460ff1961ff0019909116610100171660011790555b8015611835576000805461ff001916905550565b604080516001600160a01b038416602482015260448082018490528251808303909101815260649091019091526020810180516001600160e01b031663a9059cbb60e01b1790526132f4908490614bdc565b6000612ab683836040518060400160405280601e81526020017f536166654d6174683a207375627472616374696f6e206f766572666c6f770000815250614c8d565b600080805b60b4548110156140385760a95460408051634e6ec3b760e11b815290516000926001600160a01b031691639cdd876e916004808301926020929190829003018186803b158015613ebd57600080fd5b505afa158015613ed1573d6000803e3d6000fd5b505050506040513d6020811015613ee757600080fd5b5051609a5460b480546001600160a01b039384169363df22dbeb9316919086908110613f0f57fe5b9060005260206000200160009054906101000a90046001600160a01b031660b3600060b48881548110613f3e57fe5b60009182526020808320909101546001600160a01b0390811684528382019490945260409283019091205482516001600160e01b031960e089901b168152958416600487015293909216602485015260448401929092529051606480840193829003018186803b158015613fb157600080fd5b505afa158015613fc5573d6000803e3d6000fd5b505050506040513d6020811015613fdb57600080fd5b505190508061401d5760b2600060b48481548110613ff557fe5b60009182526020808320909101546001600160a01b0316835282019290925260400190205490505b61402d838263ffffffff61350916565b925050600101613e6e565b50905090565b609854604080516318160ddd60e01b815290516000926001600160a01b0316916318160ddd916004808301926020929190829003018186803b15801561408357600080fd5b505afa158015614097573d6000803e3d6000fd5b505050506040513d60208110156140ad57600080fd5b5051905080614103576040805162461bcd60e51b815260206004820152601e60248201527f43616e27742077697468647261772066726f6d20656d70747920706f6f6c0000604482015290519081900360640190fd5b82811015614158576040805162461bcd60e51b815260206004820152601860248201527f546869732073686f756c64206e657665722068617070656e0000000000000000604482015290519081900360640190fd5b614163833384614ce7565b600061416d6132f9565b905060008083116141875761418260016134eb565b6141a2565b6141a261108161419561330e565b849063ffffffff61341916565b905060006141ba8461109d888663ffffffff61341916565b905060006141c9823385614d1b565b905060006141dd838363ffffffff613e2716565b90506099548111156142205760405162461bcd60e51b815260040180806020018281038252603881526020018061543d6038913960400191505060405180910390fd5b609954614233908263ffffffff613e2716565b60995560985460408051632770a7eb60e21b8152336004820152602481018b905290516001600160a01b0390921691639dc29fac9160448082019260009290919082900301818387803b15801561428957600080fd5b505af115801561429d573d6000803e3d6000fd5b5050609a546142bf92506001600160a01b03169050888363ffffffff613dd516565b60408051848152602081018a9052808201849052905133917f02f25270a4d87bea75db541cdfe559334a275b4a233520ed6c0a2429667cca94919081900360600190a261430d8333896132f4565b5050505050505050565b3390565b6000828152603360205260409020614339908263ffffffff614df116565b156118a057614346614317565b6001600160a01b0316816001600160a01b0316837f2f8788117e7eff1d82e926ec794901d17c78024a50270940304540a733656f0d60405160405180910390a45050565b60008281526033602052604090206143a8908263ffffffff614e0616565b156118a0576143b5614317565b6001600160a01b0316816001600160a01b0316837ff6391f5c32d9c69d2a47ea670b442974b53935d1edc7fd64eb21e047a839171b60405160405180910390a45050565b600080600080846001141561441f57505060aa5463ffffffff8082169160201c1661446f565b846002141561444357505060aa5463ffffffff604082901c81169160601c1661446f565b846003141561446757505060aa5463ffffffff608082901c81169160a01c1661446f565b506001905060005b92509050915091565b60655460ff166144c6576040805162461bcd60e51b815260206004820152601460248201527314185d5cd8589b194e881b9bdd081c185d5cd95960621b604482015290519081900360640190fd5b6065805460ff191690557f5db9ee0a495bf2e6ff9c91a7834c1ba4fdd244a5e8aa4e537bd38aeae4b073aa6144f9614317565b604080516001600160a01b039092168252519081900360200190a1565b60b4546145545760405162461bcd60e51b81526004018080602001828103825260358152602001806153bc6035913960400191505060405180910390fd5b60b480546001600160a01b0383169190600019810190811061457257fe5b6000918252602090912001546001600160a01b031614156145925761464a565b60005b60b4546000190181101561464857816001600160a01b031660b482815481106145ba57fe5b6000918252602090912001546001600160a01b031614156146405760b4805460001981019081106145e757fe5b60009182526020909120015460b480546001600160a01b03909216918390811061460d57fe5b9060005260206000200160006101000a8154816001600160a01b0302191690836001600160a01b03160217905550614648565b600101614595565b505b60b480548061465557fe5b600082815260209020810160001990810180546001600160a01b031916905501905550565b600081600f0b6000141561468d57600080fd5b600082600f0b604085600f0b901b816146a257fe5b05905060016001607f1b031981128015906146c4575060016001607f1b038113155b612ab657600080fd5b6000600f83810b9083900b0260401d60016001607f1b031981128015906146c4575060016001607f1b03811315612ab657600080fd5b604080516001600160a01b0380861660248301528416604482015260648082018490528251808303909101815260849091019091526020810180516001600160e01b03166323b872dd60e01b179052613c83908590614bdc565b60655460ff16156147a8576040805162461bcd60e51b815260206004820152601060248201526f14185d5cd8589b194e881c185d5cd95960821b604482015290519081900360640190fd5b6065805460ff191660011790557f62e78cea01bee320cd4e420270b5ea74000d11b0c9f74754ebdbfc544b05a2586144f9614317565b6000612ab68383614e1b565b6000612ab6836001600160a01b038416614e7f565b6000612ab982614e97565b60008161481657600080fd5b60006001600160c01b03841161483b5782604085901b8161483357fe5b04905061493f565b60c084811c600160201b8110614853576020918201911c5b620100008110614865576010918201911c5b6101008110614876576008918201911c5b60108110614886576004918201911c5b60048110614896576002918201911c5b600281106148a5576001820191505b60bf820360018603901c6001018260ff0387901b816148c057fe5b0492506001600160801b038311156148d757600080fd5b608085901c83026001600160801b038616840260c088901c604089901b82811015614903576001820391505b608084901b9290038281101561491a576001820391505b829003608084901c821461492a57fe5b88818161493357fe5b04870196505050505050505b6001600160801b03811115612ab657600080fd5b600081836149df5760405162461bcd60e51b81526004018080602001828103825283818151815260200191508051906020019080838360005b838110156149a457818101518382015260200161498c565b50505050905090810190601f1680156149d15780820380516001836020036101000a031916815260200191505b509250505060405180910390fd5b5060008385816149eb57fe5b049150505b9392505050565b600054610100900460ff1680614a105750614a10613bd3565b80614a1e575060005460ff16155b614a595760405162461bcd60e51b815260040180806020018281038252602e81526020018061532c602e913960400191505060405180910390fd5b600054610100900460ff16158015614a84576000805460ff1961ff0019909116610100171660011790555b609a80546001600160a01b038087166001600160a01b03199283161790925560988054868416908316811790915560978054938616939092169290921790556040805163313ce56760e01b8152905163313ce56791600480820192602092909190829003018186803b158015614af957600080fd5b505afa158015614b0d573d6000803e3d6000fd5b505050506040513d6020811015614b2357600080fd5b5051609a546040805163313ce56760e01b8152905160ff909316926001600160a01b039092169163313ce56791600480820192602092909190829003018186803b158015614b7057600080fd5b505afa158015614b84573d6000803e3d6000fd5b505050506040513d6020811015614b9a57600080fd5b505160ff161115613c715760405162461bcd60e51b815260040180806020018281038252604c8152602001806153f1604c913960600191505060405180910390fd5b6060614c31826040518060400160405280602081526020017f5361666545524332303a206c6f772d6c6576656c2063616c6c206661696c6564815250856001600160a01b0316614e9b9092919063ffffffff16565b8051909150156132f457808060200190516020811015614c5057600080fd5b50516132f45760405162461bcd60e51b815260040180806020018281038252602a815260200180615475602a913960400191505060405180910390fd5b60008184841115614cdf5760405162461bcd60e51b81526020600482018181528351602484015283519092839260449091019190850190808383600083156149a457818101518382015260200161498c565b505050900390565b6001600160a01b038216600090815260af602052604090205460ff16156132f45760ad54613c83908463ffffffff613e2716565b6001600160a01b0382166000908152609b60205260408120600101548190600f90810b810b9084900b138015614d6a57506001600160a01b038416600090815260af602052604090205460ff16155b15614de5576001600160a01b0384166000908152609b6020526040812060010154614da290600f86810b91900b63ffffffff614eaa16565b9050600080614db160026143f9565b91509150614ddb8161ffff1661109d8461ffff166117178c88600f0b61356390919063ffffffff16565b9350505050614de9565b5060005b949350505050565b6000612ab6836001600160a01b038416614edd565b6000612ab6836001600160a01b038416614f27565b81546000908210614e5d5760405162461bcd60e51b81526004018080602001828103825260228152602001806151d46022913960400191505060405180910390fd5b826000018281548110614e6c57fe5b9060005260206000200154905092915050565b60009081526001919091016020526040902054151590565b5490565b6060614de98484600085614fed565b6000600f82810b9084900b0360016001607f1b031981128015906146c4575060016001607f1b03811315612ab657600080fd5b6000614ee98383614e7f565b614f1f57508154600181810184556000848152602080822090930184905584548482528286019093526040902091909155612ab9565b506000612ab9565b60008181526001830160205260408120548015614fe35783546000198083019190810190600090879083908110614f5a57fe5b9060005260206000200154905080876000018481548110614f7757fe5b600091825260208083209091019290925582815260018981019092526040902090840190558654879080614fa757fe5b60019003818190600052602060002001600090559055866001016000878152602001908152602001600020600090556001945050505050612ab9565b6000915050612ab9565b60608247101561502e5760405162461bcd60e51b81526004018080602001828103825260268152602001806152d66026913960400191505060405180910390fd5b61503785615149565b615088576040805162461bcd60e51b815260206004820152601d60248201527f416464726573733a2063616c6c20746f206e6f6e2d636f6e7472616374000000604482015290519081900360640190fd5b60006060866001600160a01b031685876040518082805190602001908083835b602083106150c75780518252601f1990920191602091820191016150a8565b6001836020036101000a03801982511681845116808217855250505050505090500191505060006040518083038185875af1925050503d8060008114615129576040519150601f19603f3d011682016040523d82523d6000602084013e61512e565b606091505b509150915061513e82828661514f565b979650505050505050565b3b151590565b6060831561515e5750816149f0565b82511561516e5782518084602001fd5b60405162461bcd60e51b81526020600482018181528451602484015284518593919283926044019190850190808383600083156149a457818101518382015260200161498c565b6040518060c00160405280600690602082028036833750919291505056fe456e756d657261626c655365743a20696e646578206f7574206f6620626f756e6473416363657373436f6e74726f6c3a2073656e646572206d75737420626520616e2061646d696e20746f206772616e7443616c6c6572206973206e6f7420746865205472616465720000000000000000506f736974696f6e20746f546f6b656e206164647265737320746f2062652077686974656c697374656441737365742065786368616e6765206d616e6167657220657865637574696f6e206661696c6564416d6f756e7420746f206265206c657373207468656e2065787465726e616c20636f6d6d697373696f6e20617661696c61626c6520746f207769746864726177416464726573733a20696e73756666696369656e742062616c616e636520666f722063616c6c416363657373436f6e74726f6c3a2073656e646572206d75737420626520616e2061646d696e20746f207265766f6b65496e697469616c697a61626c653a20636f6e747261637420697320616c726561647920696e697469616c697a656443616c6c6572206973206e6f7420616c6c7765642041737365744d616e616765724e6f7420777261707065642045544820636f6e74726163740000000000000000536166654d6174683a206d756c7469706c69636174696f6e206f766572666c6f7743616e6e6f742064656c6574652066726f6d2030206c656e677468206173736574546f6b656e416464726573736573206172726179426173696320746f6b656e73207769746820646563696d616c73203e20706f6f6c206c697175696469747920746f6b656e20646563696d616c7320617265206e6f7420737570706f727465644e6f7420656e6f75746820426173696320546f6b656e20746f6b656e73206f6e207468652062616c616e636520746f2077697468647261775361666545524332303a204552433230206f7065726174696f6e20646964206e6f742073756363656564416363657373436f6e74726f6c3a2063616e206f6e6c792072656e6f756e636520726f6c657320666f722073656c66a26469706673582212200eaa6ac98c3370572b6627191eb35c9a4fac925c6b9555c02f8d5d39796cbb5c64736f6c63430006060033",
  "immutableReferences": {},
  "source": "pragma solidity 0.6.6;\n\nimport \"@openzeppelin/contracts-upgradeable/access/AccessControlUpgradeable.sol\";\nimport \"@openzeppelin/contracts-upgradeable/utils/PausableUpgradeable.sol\";\n\nimport \"./pool/PoolUpgradeable.sol\";\nimport \"./interfaces/ITraderPoolInitializable.sol\";\nimport \"./interfaces/IParamStorage.sol\";\nimport \"./interfaces/IAssetExchangeManager.sol\";\nimport \"./interfaces/IAssetValuationManager.sol\";\nimport \"./interfaces/IAssetAutomaticExchangeManager.sol\";\nimport \"./interfaces/ITraderPool.sol\";\n\ncontract TraderPoolUpgradeable \n    is \n    AccessControlUpgradeable, \n    PausableUpgradeable, \n    PoolUpgradeable,\n    ITraderPoolInitializable,\n    ITraderPool\n    {\n\n    //ACL\n    //Manager is the person allowed to manage funds\n    bytes32 public constant TRADER_ROLE = keccak256(\"TRADER_ROLE\");\n    bool public isActualOn;\n    bool public isInvestorsWhitelistEnabled;\n\n    address public traderCommissionAddress;\n    address public dexeCommissionAddress;\n    address public insuranceContractAddress;\n    IParamStorage private paramkeeper;\n\n    uint256 public commissions;\n    uint256 public traderCommissionBalance;\n    uint256 public dexeCommissionBalance;\n     //funds on the contract that belongs to trader\n    uint256 public traderLiquidityBalance;\n    uint128 public storageVersion;\n    //max traderTokenPrice that any investor ever bought\n    int128 public maxDepositedTokenPrice;\n    //addresses that trader may fund from (funded from these addresses considered as a trader funds)\n    mapping (address => bool) traderFundAddresses;\n    //trader token address whitelist\n    mapping (address => bool) public traderWhitelist;\n    //trader investor address whitelist\n    mapping (address => bool) public investorWhitelist;\n\n    //positions\n    mapping(address => uint256) pAmtOpened;  //amount of basicTokens spent for opening position (i.e. position opening cost)\n    mapping(address => uint256) pAssetAmt; //amount of assets locked in the open position\n    address[] public assetTokenAddresses; //address of the asset ERC20 token\n\n    event Exchanged(address fromAsset, address toAsset, uint256 fromAmt, uint256 toAmt);\n    event Profit(uint256 amount);\n    event Loss(uint256 amount);\n\n    /**\n    * returns version of the contract\n    */\n    function version() public view returns (uint32){\n        //version in format aaa.bbb.ccc => aaa*1E6+bbb*1E3+ccc;\n        return uint32(10010001);\n    }\n    \n    function initialize(address[9] memory iaddr, uint256 _commissions, bool _actual, bool _investorRestricted) public override initializer{\n        /**\n        address[] iaddr = [\n            0... _admin,\n            1... _traderWallet,\n            2... _basicToken,\n            3... _weth,\n            4... _paramkeeper,\n            5... _positiontoolmanager,\n            6... _dexeComm,\n            7... _insurance,\n            8... _pltTokenAddress,\n            ]\n        uint256[] iuint = [\n            0... _maxPoolTotalSupply,\n            1... _tcNom,\n            2... _tcDenom,\n            ]\n         */\n\n        // address _basicToken, address _pltTokenAddress, address _weth\n        __Pool_init(iaddr[2],iaddr[8],iaddr[3]);\n        // __ReentrancyGuard_init_unchained();\n        __Pausable_init_unchained();\n        __AccessControl_init_unchained();\n        // address _paramstorage, address _positiontoolmanager\n\n        //access control initial setup\n        _setupRole(DEFAULT_ADMIN_ROLE, iaddr[0]);\n        _setupRole(TRADER_ROLE, iaddr[1]);\n\n        //safe mode \"on\" with commissions\n        traderCommissionAddress = iaddr[1];\n\n        commissions = _commissions;\n        // require (iuint[1]>0, \"Incorrect traderCommissionPercentDenom\");\n\n        isActualOn = _actual;\n        isInvestorsWhitelistEnabled = _investorRestricted;\n\n        traderFundAddresses[iaddr[1]] = true;\n\n        dexeCommissionAddress = iaddr[6];\n        insuranceContractAddress = iaddr[7];\n        paramkeeper = IParamStorage(iaddr[4]);  \n        storageVersion = version();\n    \n    }\n\n    /**\n    * @dev Throws if called by any account other than the one with the Admin role granted.\n    */\n    modifier onlyAdmin() {\n        require(hasRole(DEFAULT_ADMIN_ROLE, msg.sender), \"Caller is not the Admin\");\n        _;\n    }\n\n    /**\n    * @dev Throws if called by any account other than the one with the Trader role granted.\n    */\n    modifier onlyTrader() {\n        require(hasRole(TRADER_ROLE, msg.sender), \"Caller is not the Trader\");\n        _;\n    }\n\n    /**\n    * @dev Throws if called by any account other than the one with the onlyAssetManager role granted.\n    */\n    modifier onlyAssetManager() {\n        require(paramkeeper.isAllowedAssetManager(msg.sender), \"Caller is not allwed AssetManager\");\n        _;\n    }\n\n    /**\n    * adds new trader address (tokens received from this address considered to be the traders' tokens)\n    */\n    function addTraderAddress (address _traderAddress) public onlyTrader {\n        traderFundAddresses[_traderAddress] = true;\n    }\n\n    /**\n    * removes trader address (tokens received from trader address considered to be the traders' tokens)\n    */\n    function removeTraderAddress (address _traderAddress) public onlyTrader {\n        delete traderFundAddresses[_traderAddress];\n    }\n\n    /**\n    * whitelist new investors addresses. Investors whitelist is applied if isInvestorsWhitelistEnabled == 'true' only;\n    * @param _investors - array of investors addresses\n    */\n    function addInvestorAddress (address[] memory _investors) public onlyTrader {\n        for(uint i=0;i<_investors.length;i++){\n            if(_investors[i] != address(0))\n                investorWhitelist[_investors[i]] = true;\n        }\n    }\n\n    /**\n    * removes investors from whitelist. Investors whitelist is applied if isInvestorsWhitelistEnabled == 'true' only;\n    * @param _investors - array of investors addresses \n    */\n    function removeInvestorAddress (address[] memory _investors) public onlyTrader {\n        for(uint i=0;i<_investors.length;i++){\n            if(_investors[i] != address(0))\n                delete investorWhitelist[_investors[i]];\n        }\n    }\n\n    /**\n    * Function caled by Exchange operation manager to initiate exchange operation\n    * @param fromAsset - address of the ERC20 token that will be exchanged\n    * @param toAsset - address of the ERC20 token that fromAsset will be exchanged to\n    * @param caller - address of the Exchange Manager that will be invoked (same approach to flashloans)\n    * @param _calldata - calldata that Exchange Manager will be provided with (same approach to flashloans)\n    */\n    function initiateExchangeOperation(address fromAsset, address toAsset, uint256 fromAmt, address caller, bytes memory _calldata) public override onlyAssetManager {\n        require (fromAsset != toAsset, \"incorrect asset params\");\n        require (fromAsset != address(0), \"incorrect fromAsset param\");\n        require (toAsset != address(0), \"incorrect toAsset param\");\n        require(hasRole(TRADER_ROLE, caller), \"Caller is not the Trader\");\n        //1. check assetFrom price, multiply by amount, check resulting amount less then Leverage allowed. \n        {\n            require(paramkeeper.isWhitelisted(toAsset) || traderWhitelist[toAsset] || toAsset == address(basicToken),\"Position toToken address to be whitelisted\");\n            uint256 maxAmount = this.getMaxPositionOpenAmount();\n            uint256 spendingAmount;\n            if(fromAsset == address(basicToken)) {\n                spendingAmount = fromAmt;\n            } else {\n                spendingAmount = pAmtOpened[fromAsset].mul(fromAmt).div(pAssetAmt[fromAsset]);\n            }\n            require(spendingAmount <= maxAmount, \"Amount reached maximum available\");\n        }\n        uint256 fromSpent;\n        uint256 toGained; \n        //2. perform exchange\n        {\n            uint256 fromAssetBalanceBefore = IERC20Upgradeable(fromAsset).balanceOf(address(this));\n            uint256 toAssetBalanceBefore = IERC20Upgradeable(toAsset).balanceOf(address(this));\n            IERC20Token(fromAsset).safeTransfer(msg.sender, fromAmt);\n            require(IAssetExchangeManager(msg.sender).execute(_calldata), \"Asset exchange manager execution failed\");\n            fromSpent = fromAssetBalanceBefore.sub(IERC20Upgradeable(fromAsset).balanceOf(address(this)));\n            toGained = IERC20Upgradeable(toAsset).balanceOf(address(this)).sub(toAssetBalanceBefore);\n        }\n\n        emit Exchanged (fromAsset, toAsset, fromSpent, toGained);\n\n        //3. record positions changes & distribute profit\n        if(fromAsset == address(basicToken)) {\n            //open new position\n            if(pAmtOpened[toAsset] == 0){\n                assetTokenAddresses.push(toAsset);\n            }\n            pAmtOpened[toAsset] = pAmtOpened[toAsset].add(fromSpent);\n            pAssetAmt[toAsset] = pAssetAmt[toAsset].add(toGained);\n\n        } else if(toAsset == address(basicToken)){\n            uint256 pFromAmtOpened = pAmtOpened[fromAsset];\n            uint256 pFromLiq = pAssetAmt[fromAsset];\n\n            pAssetAmt[fromAsset] = pFromLiq.sub(fromSpent);\n            uint256 originalSpentValue = pFromAmtOpened.mul(fromSpent).div(pFromLiq);\n            pAmtOpened[fromAsset] = pAmtOpened[fromAsset].sub(originalSpentValue);\n\n            //remove closed position\n            if(pAmtOpened[fromAsset] == 0){\n                _deletePosition(fromAsset);\n            } \n\n            uint256 operationTraderCommission;\n            uint256 finResB;\n            //profit\n            if(originalSpentValue <= toGained) {\n                finResB = toGained.sub(originalSpentValue);\n\n                (uint16 traderCommissionPercentNom, uint16 traderCommissionPercentDenom) = _getCommission(1);\n                operationTraderCommission = finResB.mul(traderCommissionPercentNom).div(traderCommissionPercentDenom);\n\n                int128 currentTokenPrice = ABDKMath64x64.divu(_totalCap(), totalSupply());\n                //apply trader commision fine if required\n                if (currentTokenPrice < maxDepositedTokenPrice) {\n                    int128 traderFine = currentTokenPrice.div(maxDepositedTokenPrice);\n                    traderFine = traderFine.mul(traderFine);// ^2\n                    operationTraderCommission = traderFine.mulu(operationTraderCommission);\n                }\n\n                (uint16 dexeCommissionPercentNom, uint16 dexeCommissionPercentDenom) = _getCommission(3);    \n                uint256 operationDeXeCommission = operationTraderCommission.mul(dexeCommissionPercentNom).div(dexeCommissionPercentDenom);\n                dexeCommissionBalance = dexeCommissionBalance.add(operationDeXeCommission);\n                traderCommissionBalance = traderCommissionBalance.add(operationTraderCommission.sub(operationDeXeCommission));\n\n                emit Profit(finResB);\n            }\n            //loss \n            else {\n                finResB = originalSpentValue.sub(toGained);\n                operationTraderCommission = 0;\n                emit Loss(finResB);\n            }\n            availableCap = availableCap.add(finResB.sub(operationTraderCommission));\n\n        } else {\n            // uint256 pFromAmtOpened = pAmtOpened[fromAsset];\n            uint256 pFromLiq = pAssetAmt[fromAsset];\n            // uint256 pToAmtOpened = pAmtOpened[toAsset];\n            uint256 pToLiq = pAssetAmt[toAsset];\n\n                //open new position\n            if(pAmtOpened[toAsset] == 0){\n                assetTokenAddresses.push(toAsset);\n            } \n\n            pAmtOpened[fromAsset] = pAmtOpened[fromAsset].mul(pFromLiq.sub(fromSpent)).div(pFromLiq);\n            pAssetAmt[fromAsset] = pFromLiq.sub(fromSpent);\n\n            pAmtOpened[toAsset] = pAmtOpened[toAsset].mul(fromSpent).div(pFromLiq).add(pAmtOpened[toAsset]); \n            pAssetAmt[toAsset] = pToLiq.add(toGained);\n\n            //remove closed position\n            if(pAmtOpened[fromAsset] == 0){\n                _deletePosition(fromAsset);\n            }        \n        }\n\n    }\n\n    function _deletePosition(address token) private {\n        require(assetTokenAddresses.length > 0, \"Cannot delete from 0 length assetTokenAddresses array\");\n        if(assetTokenAddresses[assetTokenAddresses.length-1] == token){\n            //do nothing\n        } else {\n            for(uint i=0; i<assetTokenAddresses.length-1; i++){\n                if(assetTokenAddresses[i] == token) {\n                    assetTokenAddresses[i] = assetTokenAddresses[assetTokenAddresses.length-1];\n                    break;\n                }\n            }\n        }\n        assetTokenAddresses.pop();\n    }\n\n    /**\n    * returns amount of positions in Positions array, i.e. amount of Open positions \n    */\n    function positionsLength() external view returns (uint256) {\n        return assetTokenAddresses.length;\n    }\n\n    /**\n    * returns Posision data from array at the @param _index specified. return data:\n    *    1) amountOpened - the amount of Basic Tokens a position was opened with.\n    *    2) liquidity - the amount of Destination tokens received from exchange when position was opened.\n    *    3) token - the address of ERC20 token that position was opened to \n    * i.e. the position was opened with  \"amountOpened\" of BasicTokens and resulted in \"liquidity\" amount of \"token\"s.  \n    */\n    function positionAt(uint16 _index) external view returns (uint256,uint256,address) {\n        require(_index < assetTokenAddresses.length);\n        address asset = assetTokenAddresses[_index];\n        return (pAmtOpened[asset], pAssetAmt[asset], asset);\n    }\n\n    /**\n    * returns Posision data from array for the @param asset:\n    *    1) amountOpened - the amount of Basic Tokens a position was opened with.\n    *    2) liquidity - the amount of Destination tokens received from exchange when position was opened.\n    *    3) token - the address of ERC20 token that position was opened to \n    * i.e. the position was opened with  \"amountOpened\" of BasicTokens and resulted in \"liquidity\" amount of \"token\"s.  \n    */\n    function positionFor(address asset) external view returns (uint256,uint256,address) {\n        return (pAmtOpened[asset], pAssetAmt[asset], asset);\n    }\n\n    /**\n    * initiates withdraw of the Trader commission onto the Trader Commission address. Used by Trader to get his commission out from this contract. \n    * @param amount - amount of commission to withdraw (allows for partial withdrawal)\n    */\n    function withdrawTraderCommission(uint256 amount) public onlyTrader {\n        require(amount <= traderCommissionBalance, \"Amount to be less then external commission available to withdraw\");\n        basicToken.safeTransfer(traderCommissionAddress, amount);\n        traderCommissionBalance = traderCommissionBalance.sub(amount);\n    }\n    \n    /**\n    * initiates withdraw of the Dexe commission onto the Platform Commission address. Anyone can trigger this function\n    * @param amount - amount of commission to withdraw (allows for partial withdrawal)\n    */\n    function withdrawDexeCommission(uint256 amount) public {\n        require(amount <= dexeCommissionBalance, \"Amount to be less then external commission available to withdraw\");\n        basicToken.safeTransfer(dexeCommissionAddress, amount);\n        dexeCommissionBalance = dexeCommissionBalance.sub(amount);\n    }\n\n\n    /**\n    * Change traderCommission address. The address that trader receives his commission out from this contract. \n    * @param _traderCommissionAddress - new trader commission address\n    */\n    function setTraderCommissionAddress(address _traderCommissionAddress) public onlyTrader {\n        traderCommissionAddress = _traderCommissionAddress;\n    }\n\n    //TODO: apply governance here\n    /**\n    * set external commission percent in a form of natural fraction: _nom/_denom. \n    * @param _type - commission type (1 for trader commission, 2 for investor commission, 3 for platform commission)\n    * @param _nom - nominator of the commission fraction\n    * @param _denom - denominator of the commission fraction\n    */\n    function setCommission(uint256 _type, uint16 _nom, uint16 _denom) public onlyAdmin {\n        require (_denom > 0, \"Incorrect denom\");\n        require (_type == 1 || _type ==2 || _type == 3, \"Incorrect type\");\n        uint16[6] memory coms;\n        (coms[0],coms[1]) = _getCommission(1);\n        (coms[2],coms[3]) = _getCommission(2);\n        (coms[4],coms[5]) = _getCommission(3);  \n        if(_type == 1){\n            //trader\n            coms[0] = _nom;\n            coms[1] = _denom;\n        } else if (_type == 2) {\n            //investor\n            coms[2] = _nom;\n            coms[3] = _denom;\n        } else if (_type == 3) {\n            //dexe commission\n            coms[4] = _nom;\n            coms[5] = _denom;\n        } \n        uint256 _commissions = 0;\n        _commissions = _commissions.add(coms[0]);\n        _commissions = _commissions.add(uint256(coms[1]) << 32);\n        _commissions = _commissions.add(uint256(coms[2]) << 64);\n        _commissions = _commissions.add(uint256(coms[3]) << 96);\n        _commissions = _commissions.add(uint256(coms[4]) << 128);\n        _commissions = _commissions.add(uint256(coms[5]) << 160);\n        //store\n        commissions = _commissions;\n\n    }\n\n    /**\n    * put contract on hold. Paused contract doesn't accepts Deposits but allows to withdraw funds. \n    */\n    function pause() onlyAdmin public {\n        super._pause();\n    }\n\n    /**\n    * unpause the contract (enable deposit operations back)\n    */\n    function unpause() onlyAdmin public {\n        super._unpause();\n    }\n\n\n    /**\n    * returns maximum amount of basicToken's that trader can spend for opening position at the movement (including leverage)\n    */\n    function getMaxPositionOpenAmount() external view returns (uint256){\n        uint256 currentValuationBT = _totalPositionsCap();\n\n        uint256 traderLiquidityBalanceUSD = paramkeeper.getAssetValuationManager().getAssetUSDValuation(address(basicToken), traderLiquidityBalance);\n        if(traderLiquidityBalanceUSD == 0){\n            traderLiquidityBalanceUSD = traderLiquidityBalance; //for testing purposes\n        }\n        // l = 0.5*t*pUSD/1000\n        uint256 L = traderLiquidityBalanceUSD.mul(currentValuationBT.add(availableCap)).div(totalSupply()).div(2000).div(10**18);\n        // maxQ =  (l+1)*t*p - w\n        uint256 maxQ = L.add(1).mul(traderLiquidityBalance).mul(currentValuationBT.add(availableCap)).div(totalSupply());\n        maxQ = (maxQ > currentValuationBT)? maxQ.sub(currentValuationBT) : 0;\n\n        return maxQ;\n    }\n\n    // /**\n    // * returns address parameter from central parameter storage operated by the platform. Used by PositionManager contracts to receive settings required for performing operations. \n    // * @param key - ID of address parameter;\n    // */\n    // function getAddress(uint16 key) external override view returns (address){\n    //     return paramkeeper.getAddress(key);\n    // }\n    // /**\n    // * returns uint256 parameter from central parameter storage operated by the platform. Used by PositionManager contracts to receive settings required for performing operations. \n    // * @param key - ID of uint256 parameter;\n    // */\n    // function getUInt256(uint16 key) external override view returns (uint256){\n    //     return paramkeeper.getUInt256(key);\n    // }\n    \n    /**\n    * returns the data of the User:\n    *    1) total amount of BasicTokens deposited (historical value)\n    *    2) average traderToken price of the investor deposit (historical value)\n    *    3) current amount of TraderPool liquidity tokens that User has on the balance. \n    * @param holder - address of the User's wallet. \n     */\n    function getUserData(address holder) public view returns (uint256, int128, uint256) {\n        return (deposits[holder].amount, deposits[holder].price, IERC20Token(plt).balanceOf(holder));\n    }\n\n    /**\n    * returns total cap values for this contract: \n    * 1) totalCap value - total capitalization, including profits and losses, denominated in BasicTokens. i.e. total amount of BasicTokens that porfolio is worhs of.\n    * 2) totalSupply of the TraderPool liquidity tokens (or total amount of trader tokens sold to Users). \n    * Trader token current price = totalCap/totalSupply;\n    */\n    function getTotalValueLocked() public view returns (uint256, uint256){\n        return (_totalCap(), totalSupply());\n    }\n\n    /**\n    * returns commission natural fraction for a specified @param _type (1 for trader commission, 2 for investor commission, 3 for platform commission)\n    */\n    function getCommission(uint256 _type) external view returns (uint16,uint16){\n        return _getCommission(_type);\n    }\n\n    //***************************INTERNAL METHODS **************************/\n\n    /**\n    * returns total capital locked on the Trader contract\n    */\n    function _totalCap() internal override view returns (uint256){\n        return _totalPositionsCap().add(availableCap);\n    }\n\n    function _beforeDeposit(uint256 amountTokenSent, address sender, address holder) internal override {\n        require(!paused(), \"Cannot deposit when paused\");\n        require(!isInvestorsWhitelistEnabled || investorWhitelist[msg.sender] || traderFundAddresses[msg.sender], \"Investor not whitelisted\");\n    }\n\n    function _afterDeposit(uint256 amountTokenSent, uint256 amountLiquidityGot, address sender, address holder, int128 tokenPrice) internal override {\n        // check if that was a trader who put a deposit\n        if(traderFundAddresses[holder])\n            traderLiquidityBalance = traderLiquidityBalance.add(amountLiquidityGot);\n        // store max traderTokenPrice that any investor got in\n        maxDepositedTokenPrice = (maxDepositedTokenPrice<tokenPrice)?tokenPrice:maxDepositedTokenPrice;\n        //for active position - distribute funds between positions.\n        IAssetAutomaticExchangeManager exchanger = paramkeeper.getAssetAutomaticExchangeManager();\n        if(isActualOn && assetTokenAddresses.length > 0){\n            uint256 totalOpened=0;\n            for(uint i=0;i<assetTokenAddresses.length;i++){\n                totalOpened = totalOpened.add(pAmtOpened[assetTokenAddresses[i]]);\n            }\n            //fund\n            uint256 amoutTokenLeft = amountTokenSent;\n            // uint256 deadline = block.timestamp + 5*60;\n            // uint256 liquidity;\n            for(uint16 i=0;i<assetTokenAddresses.length;i++){\n                uint256 fundPositionAmt = amountTokenSent.mul(pAmtOpened[assetTokenAddresses[i]]).div(totalOpened);\n                if(fundPositionAmt < amoutTokenLeft)//underflow with division\n                    fundPositionAmt = amoutTokenLeft;\n                \n                uint256 fromSpent;\n                uint256 toGained; \n                //perform automatic exchange\n                {\n                    uint256 fromAssetBalanceBefore = basicToken.balanceOf(address(this));\n                    uint256 toAssetBalanceBefore = IERC20Upgradeable(assetTokenAddresses[i]).balanceOf(address(this));\n                    basicToken.safeTransfer(address(exchanger), fundPositionAmt);\n                    exchanger.swapExactTokenForToken(address(basicToken), assetTokenAddresses[i], fundPositionAmt);\n                    fromSpent = fromAssetBalanceBefore.sub(basicToken.balanceOf(address(this)));\n                    toGained = IERC20Upgradeable(assetTokenAddresses[i]).balanceOf(address(this)).sub(toAssetBalanceBefore);\n                }\n                emit Exchanged (address(basicToken), assetTokenAddresses[i], fromSpent, toGained);\n                pAmtOpened[assetTokenAddresses[i]] = pAmtOpened[assetTokenAddresses[i]].add(fromSpent);\n                pAssetAmt[assetTokenAddresses[i]] = pAssetAmt[assetTokenAddresses[i]].add(toGained);\n                //\n                amoutTokenLeft = amoutTokenLeft.sub(fromSpent);\n            }\n        }\n\n    }\n\n\n    /**\n    *    @param revenue - revenue (capital gain in basic token)\n    *    @param holder - user who got the revenue\n    *    @param currentTokenPrice - current trader token price (as of the time of revenue accrued)\n    */\n    function _getWithdrawalCommission(uint256 revenue, address holder, int128 currentTokenPrice) internal override view returns (uint256){\n        uint256 commision; //commission in basic token\n        //applied for investors only. not for traders\n        if(currentTokenPrice > deposits[holder].price && !traderFundAddresses[holder]){\n            int128 priceDiff = currentTokenPrice.sub(deposits[holder].price);\n            (uint16 investorCommissionPercentNom, uint16 investorCommissionPercentDenom) = _getCommission(2);\n            //profit = priceDiff * revenue;\n            commision = priceDiff.mulu(revenue).mul(investorCommissionPercentNom).div(investorCommissionPercentDenom);\n        } else {\n            commision = 0;\n        }\n        return commision;\n    }\n\n    function _beforeWithdraw(uint256 amountLiquidity, address holder, address receiver) internal override {\n        if(traderFundAddresses[holder]){\n            traderLiquidityBalance.sub(amountLiquidity);\n        }\n    }\n\n \n    function _getCommission(uint256 _type) internal view returns (uint16,uint16){\n        uint16 denom;\n        uint16 _nom;\n        if(_type == 1){\n            //trader commission\n            denom = uint16(commissions & 0x00000000000000000000000000000000000000000000000000000000FFFFFFFF);\n            _nom = uint16((commissions & 0x000000000000000000000000000000000000000000000000FFFFFFFF00000000) >> 32);\n        } else if (_type == 2) {\n            //investor commission\n            denom =uint16((commissions & 0x0000000000000000000000000000000000000000FFFFFFFF0000000000000000) >> 64); \n            _nom = uint16((commissions & 0x00000000000000000000000000000000FFFFFFFF000000000000000000000000) >> 96);\n        } else if (_type == 3) {\n            //dexe commission\n            denom =uint16((commissions & 0x000000000000000000000000FFFFFFFF00000000000000000000000000000000) >> 128); \n            _nom = uint16((commissions & 0x0000000000000000FFFFFFFF0000000000000000000000000000000000000000) >> 160);\n        } else {\n            _nom = uint16(0);\n            denom = uint16(1);\n        }\n        return (_nom, denom);\n    }\n\n    function _totalPositionsCap() internal view returns (uint256) {\n        uint256 totalPositionsCap = 0;\n        for(uint256 i=0;i<assetTokenAddresses.length;i++){\n            uint256 positionValuation = paramkeeper.getAssetValuationManager().getAssetValuation(address(basicToken),assetTokenAddresses[i],pAssetAmt[assetTokenAddresses[i]]);\n            if(positionValuation == 0)\n                positionValuation = pAmtOpened[assetTokenAddresses[i]];\n            totalPositionsCap = totalPositionsCap.add(positionValuation);\n        }\n        return totalPositionsCap;\n    }\n}\n",
  "sourcePath": "/Users/Burger/dexe/contracts1/dexe-asset-management/contracts/TraderPoolUpgradable.sol",
  "compiler": {
    "name": "solc",
    "version": "0.6.6+commit.6c089d02.Emscripten.clang"
  },
  "schemaVersion": "3.2.4",
  "updatedAt": "2021-05-31T12:09:06.689Z",
  "devdoc": {
    "methods": {
      "addInvestorAddress(address[])": {
        "params": {
          "_investors": "- array of investors addresses"
        }
      },
      "depositETHTo(address)": {
        "params": {
          "to": "- address to assign liquidity tokens to"
        }
      },
      "depositTo(uint256,address)": {
        "params": {
          "to": "- address to assign liquidity tokens to"
        }
      },
      "getCommission(uint256)": {
        "params": {
          "_type": "(1 for trader commission, 2 for investor commission, 3 for platform commission)"
        }
      },
      "getRoleAdmin(bytes32)": {
        "details": "Returns the admin role that controls `role`. See {grantRole} and {revokeRole}.     * To change a role's admin, use {_setRoleAdmin}."
      },
      "getRoleMember(bytes32,uint256)": {
        "details": "Returns one of the accounts that have `role`. `index` must be a value between 0 and {getRoleMemberCount}, non-inclusive.     * Role bearers are not sorted in any particular way, and their ordering may change at any point.     * WARNING: When using {getRoleMember} and {getRoleMemberCount}, make sure you perform all queries on the same block. See the following https://forum.openzeppelin.com/t/iterating-over-elements-on-enumerableset-in-openzeppelin-contracts/2296[forum post] for more information."
      },
      "getRoleMemberCount(bytes32)": {
        "details": "Returns the number of accounts that have `role`. Can be used together with {getRoleMember} to enumerate all bearers of a role."
      },
      "getUserData(address)": {
        "params": {
          "holder": "- address of the User's wallet. "
        }
      },
      "grantRole(bytes32,address)": {
        "details": "Grants `role` to `account`.     * If `account` had not been already granted `role`, emits a {RoleGranted} event.     * Requirements:     * - the caller must have ``role``'s admin role."
      },
      "hasRole(bytes32,address)": {
        "details": "Returns `true` if `account` has been granted `role`."
      },
      "initiateExchangeOperation(address,address,uint256,address,bytes)": {
        "params": {
          "_calldata": "- calldata that Exchange Manager will be provided with (same approach to flashloans)",
          "caller": "- address of the Exchange Manager that will be invoked (same approach to flashloans)",
          "fromAsset": "- address of the ERC20 token that will be exchanged",
          "toAsset": "- address of the ERC20 token that fromAsset will be exchanged to"
        }
      },
      "paused()": {
        "details": "Returns true if the contract is paused, and false otherwise."
      },
      "positionAt(uint16)": {
        "params": {
          "_index": "specified. return data:   1) amountOpened - the amount of Basic Tokens a position was opened with.   2) liquidity - the amount of Destination tokens received from exchange when position was opened.   3) token - the address of ERC20 token that position was opened to  i.e. the position was opened with  \"amountOpened\" of BasicTokens and resulted in \"liquidity\" amount of \"token\"s.  "
        }
      },
      "positionFor(address)": {
        "params": {
          "asset": ":   1) amountOpened - the amount of Basic Tokens a position was opened with.   2) liquidity - the amount of Destination tokens received from exchange when position was opened.   3) token - the address of ERC20 token that position was opened to  i.e. the position was opened with  \"amountOpened\" of BasicTokens and resulted in \"liquidity\" amount of \"token\"s.  "
        }
      },
      "removeInvestorAddress(address[])": {
        "params": {
          "_investors": "- array of investors addresses "
        }
      },
      "renounceRole(bytes32,address)": {
        "details": "Revokes `role` from the calling account.     * Roles are often managed via {grantRole} and {revokeRole}: this function's purpose is to provide a mechanism for accounts to lose their privileges if they are compromised (such as when a trusted device is misplaced).     * If the calling account had been granted `role`, emits a {RoleRevoked} event.     * Requirements:     * - the caller must be `account`."
      },
      "revokeRole(bytes32,address)": {
        "details": "Revokes `role` from `account`.     * If `account` had been granted `role`, emits a {RoleRevoked} event.     * Requirements:     * - the caller must have ``role``'s admin role."
      },
      "setCommission(uint256,uint16,uint16)": {
        "params": {
          "_denom": "- denominator of the commission fraction",
          "_nom": "- nominator of the commission fraction",
          "_type": "- commission type (1 for trader commission, 2 for investor commission, 3 for platform commission)"
        }
      },
      "setTraderCommissionAddress(address)": {
        "params": {
          "_traderCommissionAddress": "- new trader commission address"
        }
      },
      "withdraw(uint256)": {
        "params": {
          "amount": "- amount of liquidity tokens to exchange to Basic token."
        }
      },
      "withdrawDexeCommission(uint256)": {
        "params": {
          "amount": "- amount of commission to withdraw (allows for partial withdrawal)"
        }
      },
      "withdrawETH(uint256)": {
        "params": {
          "amount": "- amount of liquidity tokens to exchange to ETH."
        }
      },
      "withdrawETHTo(uint256,address)": {
        "params": {
          "amount": "- amount of liquidity tokens to exchange to ETH.",
          "to": "- address to send resulted amount of ETH to"
        }
      },
      "withdrawTo(uint256,address)": {
        "params": {
          "amount": "- amount of liquidity tokens to exchange to Basic token.",
          "to": "- address to send resulted amount of tokens to"
        }
      },
      "withdrawTraderCommission(uint256)": {
        "params": {
          "amount": "- amount of commission to withdraw (allows for partial withdrawal)"
        }
      }
    }
  },
  "userdoc": {
    "methods": {
      "addInvestorAddress(address[])": {
        "notice": "whitelist new investors addresses. Investors whitelist is applied if isInvestorsWhitelistEnabled == 'true' only;"
      },
      "addTraderAddress(address)": {
        "notice": "adds new trader address (tokens received from this address considered to be the traders' tokens)"
      },
      "deposit(uint256)": {
        "notice": "deposit ERC20 tokens function, assigns Liquidity tokens to msg.sender address."
      },
      "depositETHTo(address)": {
        "notice": "deposit ETH, converts to WETH and assigns Liquidity tokens to provided address"
      },
      "depositTo(uint256,address)": {
        "notice": "deposit ERC20 tokens function, assigns Liquidity tokens to provided address."
      },
      "getMaxPositionOpenAmount()": {
        "notice": "returns maximum amount of basicToken's that trader can spend for opening position at the movement (including leverage)"
      },
      "getTotalValueLocked()": {
        "notice": "returns total cap values for this contract:  1) totalCap value - total capitalization, including profits and losses, denominated in BasicTokens. i.e. total amount of BasicTokens that porfolio is worhs of. 2) totalSupply of the TraderPool liquidity tokens (or total amount of trader tokens sold to Users).  Trader token current price = totalCap/totalSupply;"
      },
      "getUserData(address)": {
        "notice": "returns the data of the User:   1) total amount of BasicTokens deposited (historical value)   2) average traderToken price of the investor deposit (historical value)   3) current amount of TraderPool liquidity tokens that User has on the balance. "
      },
      "initiateExchangeOperation(address,address,uint256,address,bytes)": {
        "notice": "Function caled by Exchange operation manager to initiate exchange operation"
      },
      "pause()": {
        "notice": "put contract on hold. Paused contract doesn't accepts Deposits but allows to withdraw funds. "
      },
      "positionsLength()": {
        "notice": "returns amount of positions in Positions array, i.e. amount of Open positions "
      },
      "removeInvestorAddress(address[])": {
        "notice": "removes investors from whitelist. Investors whitelist is applied if isInvestorsWhitelistEnabled == 'true' only;"
      },
      "removeTraderAddress(address)": {
        "notice": "removes trader address (tokens received from trader address considered to be the traders' tokens)"
      },
      "setCommission(uint256,uint16,uint16)": {
        "notice": "set external commission percent in a form of natural fraction: _nom/_denom. "
      },
      "setTraderCommissionAddress(address)": {
        "notice": "Change traderCommission address. The address that trader receives his commission out from this contract. "
      },
      "totalSupply()": {
        "notice": "returns amount of liquidity tokens assigned to users (for fixed supply pool this equals to amount sold, for variable supply pool this equals to amount of tokens minted)"
      },
      "unpause()": {
        "notice": "unpause the contract (enable deposit operations back)"
      },
      "version()": {
        "notice": "returns version of the contract"
      },
      "withdraw(uint256)": {
        "notice": "converts spefied amount of Liquidity tokens to Basic Token and returns to user (withdraw). The balance of the User (msg.sender) is decreased by specified amount of  Liquidity tokens. Resulted amount of tokens are transferred to msg.sender"
      },
      "withdrawDexeCommission(uint256)": {
        "notice": "initiates withdraw of the Dexe commission onto the Platform Commission address. Anyone can trigger this function"
      },
      "withdrawETH(uint256)": {
        "notice": "converts spefied amount of Liquidity tokens to WETH, unwraps it and returns to user (withdraw). The balance of the User (msg.sender) is decreased by specified amount of  Liquidity tokens specidied. Resulted amount of tokens are transferred to msg.sender"
      },
      "withdrawETHTo(uint256,address)": {
        "notice": "converts spefied amount of Liquidity tokens to WETH, unwraps it and returns to user (withdraw). The balance of the User (msg.sender) is decreased by specified amount of  Liquidity tokens specidied. Resulted amount of tokens are transferred to specified address"
      },
      "withdrawTo(uint256,address)": {
        "notice": "converts spefied amount of Liquidity tokens to Basic Token and returns to user (withdraw). The balance of the User (msg.sender) is decreased by specified amount of Liquidity tokens.  Resulted amount of tokens are transferred to specified address"
      },
      "withdrawTraderCommission(uint256)": {
        "notice": "initiates withdraw of the Trader commission onto the Trader Commission address. Used by Trader to get his commission out from this contract. "
      }
    }
  }
}