{
  "contractName": "UniswapExchangeTool",
  "abi": [
    {
      "inputs": [],
      "stateMutability": "nonpayable",
      "type": "constructor"
    },
    {
      "inputs": [
        {
          "internalType": "address",
          "name": "traderPool",
          "type": "address"
        },
        {
          "internalType": "uint256",
          "name": "amountIn",
          "type": "uint256"
        },
        {
          "internalType": "uint256",
          "name": "amountOutMin",
          "type": "uint256"
        },
        {
          "internalType": "address[]",
          "name": "path",
          "type": "address[]"
        },
        {
          "internalType": "uint256",
          "name": "deadline",
          "type": "uint256"
        }
      ],
      "name": "swapExactTokensForTokens",
      "outputs": [],
      "stateMutability": "nonpayable",
      "type": "function"
    },
    {
      "inputs": [
        {
          "internalType": "bytes",
          "name": "_calldata",
          "type": "bytes"
        }
      ],
      "name": "execute",
      "outputs": [
        {
          "internalType": "bool",
          "name": "",
          "type": "bool"
        }
      ],
      "stateMutability": "nonpayable",
      "type": "function"
    }
  ],
  "bytecode": "0x608060405234801561001057600080fd5b50610c01806100206000396000f3fe608060405234801561001057600080fd5b50600436106100365760003560e01c806309c5eabe1461003b578063ed743708146100f3575b600080fd5b6100df6004803603602081101561005157600080fd5b810190602081018135600160201b81111561006b57600080fd5b82018360208201111561007d57600080fd5b803590602001918460018302840111600160201b8311171561009e57600080fd5b91908080601f0160208091040260200160405190810160405280939291908181526020018383808284376000920191909152509295506101b4945050505050565b604080519115158252519081900360200190f35b6101b2600480360360a081101561010957600080fd5b6001600160a01b038235169160208101359160408201359190810190608081016060820135600160201b81111561013f57600080fd5b82018360208201111561015157600080fd5b803590602001918460208302840111600160201b8311171561017257600080fd5b91908080602002602001604051908101604052809392919081815260200183836020028082843760009201919091525092955050913592506104b5915050565b005b600080600080600060608680602001905160a08110156101d357600080fd5b8151602083015160408085015160608601516080870180519351959794969295919491939282019284600160201b82111561020d57600080fd5b90830190602082018581111561022257600080fd5b82518660208202830111600160201b8211171561023e57600080fd5b82525081516020918201928201910280838360005b8381101561026b578181015183820152602001610253565b50505050905001604052505050945094509450945094506102bb61028d61069e565b868360008151811061029b57fe5b60200260200101516001600160a01b03166106b69092919063ffffffff16565b60606102c561069e565b6001600160a01b03166338ed173987878588886040518663ffffffff1660e01b81526004018086815260200185815260200180602001846001600160a01b03166001600160a01b03168152602001838152602001828103825285818151815260200191508051906020019060200280838360005b83811015610351578181015183820152602001610339565b505050509050019650505050505050600060405180830381600087803b15801561037a57600080fd5b505af115801561038e573d6000803e3d6000fd5b505050506040513d6000823e601f3d908101601f1916820160405260208110156103b757600080fd5b8101908080516040519392919084600160201b8211156103d657600080fd5b9083019060208201858111156103eb57600080fd5b82518660208202830111600160201b8211171561040757600080fd5b82525081516020918201928201910280838360005b8381101561043457818101518382015260200161041c565b505050509050016040525050509050600061046c8260008151811061045557fe5b6020026020010151886107a290919063ffffffff16565b905080156104a6576104a685828560008151811061048657fe5b60200260200101516001600160a01b03166107eb9092919063ffffffff16565b50600198975050505050505050565b6060848487848660405160200180868152602001858152602001846001600160a01b03166001600160a01b0316815260200183815260200180602001828103825283818151815260200191508051906020019060200280838360005b83811015610529578181015183820152602001610511565b505050509050019650505050505050604051602081830303815290604052905060008360008151811061055857fe5b6020026020010151905060008460018651038151811061057457fe5b60200260200101519050876001600160a01b0316634f083e8a83838a33886040518663ffffffff1660e01b815260040180866001600160a01b03166001600160a01b03168152602001856001600160a01b03166001600160a01b03168152602001848152602001836001600160a01b03166001600160a01b0316815260200180602001828103825283818151815260200191508051906020019080838360005b8381101561062c578181015183820152602001610614565b50505050905090810190601f1680156106595780820380516001836020036101000a031916815260200191505b509650505050505050600060405180830381600087803b15801561067c57600080fd5b505af1158015610690573d6000803e3d6000fd5b505050505050505050505050565b737a250d5630b4cf539739df2c5dacb4c659f2488d90565b60408051636eb1769f60e11b81523060048201526001600160a01b03848116602483015291516000926107479285929188169163dd62ed3e91604480820192602092909190829003018186803b15801561070f57600080fd5b505afa158015610723573d6000803e3d6000fd5b505050506040513d602081101561073957600080fd5b50519063ffffffff61084216565b604080516001600160a01b038616602482015260448082018490528251808303909101815260649091019091526020810180516001600160e01b031663095ea7b360e01b17905290915061079c90859061089c565b50505050565b60006107e483836040518060400160405280601e81526020017f536166654d6174683a207375627472616374696f6e206f766572666c6f77000081525061094d565b9392505050565b604080516001600160a01b038416602482015260448082018490528251808303909101815260649091019091526020810180516001600160e01b031663a9059cbb60e01b17905261083d90849061089c565b505050565b6000828201838110156107e4576040805162461bcd60e51b815260206004820152601b60248201527f536166654d6174683a206164646974696f6e206f766572666c6f770000000000604482015290519081900360640190fd5b60606108f1826040518060400160405280602081526020017f5361666545524332303a206c6f772d6c6576656c2063616c6c206661696c6564815250856001600160a01b03166109e49092919063ffffffff16565b80519091501561083d5780806020019051602081101561091057600080fd5b505161083d5760405162461bcd60e51b815260040180806020018281038252602a815260200180610ba2602a913960400191505060405180910390fd5b600081848411156109dc5760405162461bcd60e51b81526004018080602001828103825283818151815260200191508051906020019080838360005b838110156109a1578181015183820152602001610989565b50505050905090810190601f1680156109ce5780820380516001836020036101000a031916815260200191505b509250505060405180910390fd5b505050900390565b60606109f384846000856109fb565b949350505050565b6060610a0685610b68565b610a57576040805162461bcd60e51b815260206004820152601d60248201527f416464726573733a2063616c6c20746f206e6f6e2d636f6e7472616374000000604482015290519081900360640190fd5b60006060866001600160a01b031685876040518082805190602001908083835b60208310610a965780518252601f199092019160209182019101610a77565b6001836020036101000a03801982511681845116808217855250505050505090500191505060006040518083038185875af1925050503d8060008114610af8576040519150601f19603f3d011682016040523d82523d6000602084013e610afd565b606091505b50915091508115610b115791506109f39050565b805115610b215780518082602001fd5b60405162461bcd60e51b81526020600482018181528651602484015286518793919283926044019190850190808383600083156109a1578181015183820152602001610989565b6000813f7fc5d2460186f7233c927e7db2dcc703c0e500b653ca82273b7bfad8045d85a4708181148015906109f357505015159291505056fe5361666545524332303a204552433230206f7065726174696f6e20646964206e6f742073756363656564a2646970667358221220f0a40d97cb22bd8062aaa7f894c6c6d8864e27964356b5032a0de4d5104f4b8564736f6c63430006060033",
  "immutableReferences": {},
  "source": "\npragma solidity 0.6.6;\n\nimport \"./math/SafeMath.sol\";\nimport \"./token/ERC20/IERC20.sol\";\nimport \"./token/ERC20/SafeERC20.sol\";\nimport \"./interfaces/IAssetExchangeManager.sol\";\nimport \"./interfaces/ITraderPool.sol\";\nimport \"./uniswap/RouterInterface.sol\";\nimport \"./uniswap/UniswapV2Library.sol\";\n\n/**\n    UNISWAP based example. \n */\ncontract UniswapExchangeTool is IAssetExchangeManager {\n    \n    using SafeMath for uint256;\n    using SafeERC20 for IERC20;\n\n    constructor() public {\n    }\n\n\n    function swapExactTokensForTokens(\n        address traderPool,\n        uint amountIn,\n        uint amountOutMin,\n        address[] memory path,\n        uint deadline\n    ) public {\n        bytes memory data = abi.encode(amountIn, amountOutMin, traderPool, deadline, path);\n        // function initiateExchangeOperation(address fromAsset, address toAsset, uint256 fromAmt, address caller, bytes memory _calldata)\n        address fromAsset = path[0];\n        address toAsset = path[path.length-1];\n        ITraderPool(traderPool).initiateExchangeOperation(fromAsset,toAsset,amountIn,msg.sender, data);\n    }\n\n    function execute(bytes memory _calldata) public override returns (bool){\n        (uint256 amountIn, uint256 amountOutMin, address to, uint deadline, address[] memory path) = abi.decode(_calldata, (uint256, uint256, address, uint, address[]));\n        IERC20(path[0]).safeIncreaseAllowance(uniswapRouter(), amountIn);\n        uint[] memory out = IUniswapV2Router01(uniswapRouter()).swapExactTokensForTokens(\n            amountIn,\n            amountOutMin,\n            path,\n            to,\n            deadline\n        );\n        //return back non spent original tokens\n        uint256 backTokenAmt = amountIn.sub(out[0]);\n        if(backTokenAmt > 0)\n            IERC20(path[0]).safeTransfer(to, backTokenAmt);\n\n        return true;\n    }\n\n     // returns sorted token addresses, used to handle return values from pairs sorted in this order\n    function _sortTokens(address tokenA, address tokenB) internal pure returns (address token0, address token1) {\n        require(tokenA != tokenB, 'UniswapV2Library: IDENTICAL_ADDRESSES');\n        (token0, token1) = tokenA < tokenB ? (tokenA, tokenB) : (tokenB, tokenA);\n        require(token0 != address(0), 'UniswapV2Library: ZERO_ADDRESS');\n    }\n\n    // calculates the CREATE2 address for a pair without making any external calls\n    function _pairFor(address factory, address tokenA, address tokenB) internal pure returns (address pair) {\n        (address token0, address token1) = _sortTokens(tokenA, tokenB);\n        pair = address(uint(keccak256(abi.encodePacked(\n                hex'ff',\n                factory,\n                keccak256(abi.encodePacked(token0, token1)),\n                hex'96e8ac4277198ff8b6f785478aa9a39f403cb768dd02cbee326c3e7da348845f' // init code hash\n            ))));\n    }\n\n    function uniswapRouter() internal view returns (address){\n        return 0x7a250d5630B4cF539739dF2C5dAcb4c659F2488D;\n    }\n\n}\n",
  "sourcePath": "/Users/Burger/dexe/contracts1/dexe-asset-management/contracts/UniswapExchangeTool.sol",
  "compiler": {
    "name": "solc",
    "version": "0.6.6+commit.6c089d02.Emscripten.clang"
  },
  "schemaVersion": "3.2.4",
  "updatedAt": "2021-06-08T10:00:09.371Z",
  "devdoc": {
    "methods": {}
  },
  "userdoc": {
    "methods": {},
    "notice": "UNISWAP based example. "
  }
}