{
  "contractName": "UniswapPathFinder",
  "abi": [
    {
      "inputs": [],
      "name": "initialize",
      "outputs": [],
      "stateMutability": "nonpayable",
      "type": "function"
    },
    {
      "inputs": [
        {
          "internalType": "address",
          "name": "fromToken",
          "type": "address"
        },
        {
          "internalType": "address",
          "name": "toToken",
          "type": "address"
        }
      ],
      "name": "findPath",
      "outputs": [
        {
          "internalType": "address[]",
          "name": "path",
          "type": "address[]"
        }
      ],
      "stateMutability": "view",
      "type": "function"
    },
    {
      "inputs": [
        {
          "internalType": "address",
          "name": "fromToken",
          "type": "address"
        },
        {
          "internalType": "address",
          "name": "toToken",
          "type": "address"
        },
        {
          "internalType": "uint256",
          "name": "fromTokenAmt",
          "type": "uint256"
        }
      ],
      "name": "evaluate",
      "outputs": [
        {
          "internalType": "uint256",
          "name": "",
          "type": "uint256"
        },
        {
          "internalType": "address[]",
          "name": "",
          "type": "address[]"
        }
      ],
      "stateMutability": "view",
      "type": "function"
    },
    {
      "inputs": [
        {
          "internalType": "address",
          "name": "basicToken",
          "type": "address"
        },
        {
          "internalType": "address",
          "name": "assetToken",
          "type": "address"
        },
        {
          "internalType": "uint256",
          "name": "assetAmount",
          "type": "uint256"
        }
      ],
      "name": "getAssetValuation",
      "outputs": [
        {
          "internalType": "uint256",
          "name": "valuation",
          "type": "uint256"
        }
      ],
      "stateMutability": "view",
      "type": "function"
    },
    {
      "inputs": [
        {
          "internalType": "address",
          "name": "assetToken",
          "type": "address"
        },
        {
          "internalType": "uint256",
          "name": "assetTokenAmt",
          "type": "uint256"
        }
      ],
      "name": "getAssetUSDValuation",
      "outputs": [
        {
          "internalType": "uint256",
          "name": "assetTokenOut",
          "type": "uint256"
        }
      ],
      "stateMutability": "view",
      "type": "function"
    }
  ],
  "bytecode": "0x608060405234801561001057600080fd5b506110c1806100206000396000f3fe608060405234801561001057600080fd5b50600436106100575760003560e01c80636c3cac381461005c5780638129fc1c1461009a578063a1c421cd146100a4578063dac9318f14610122578063df22dbeb146101b3575b600080fd5b6100886004803603604081101561007257600080fd5b506001600160a01b0381351690602001356101e9565b60408051918252519081900360200190f35b6100a261022f565b005b6100d2600480360360408110156100ba57600080fd5b506001600160a01b0381358116916020013516610376565b60408051602080825283518183015283519192839290830191858101910280838360005b8381101561010e5781810151838201526020016100f6565b505050509050019250505060405180910390f35b6101586004803603606081101561013857600080fd5b506001600160a01b0381358116916020810135909116906040013561038d565b6040518083815260200180602001828103825283818151815260200191508051906020019060200280838360005b8381101561019e578181015183820152602001610186565b50505050905001935050505060405180910390f35b610088600480360360608110156101c957600080fd5b506001600160a01b038135811691602081013590911690604001356103a9565b600073a0b86991c6218b36c1d19d4a2e9eb0ce3606eb486001600160a01b03841681141561021957829150610228565b6102248482856103bf565b5091505b5092915050565b600054610100900460ff16806102485750610248610a5a565b80610256575060005460ff16155b6102915760405162461bcd60e51b815260040180806020018281038252602e81526020018061103d602e913960400191505060405180910390fd5b600054610100900460ff161580156102bc576000805460ff1961ff0019909116610100171660011790555b60018054808201825560008290527fb10e2d527612073b26eecdfd717e6a320cf44b4afac2b0732d9fcbe2b7fa0cf690810180546001600160a01b031990811673c02aaa39b223fe8d0a0e5c4f27ead9083c756cc2179091558254808401845582018054821673dac17f958d2ee523a2206206994597c13d831ec717905582548084019093559101805490911673a0b86991c6218b36c1d19d4a2e9eb0ce3606eb481790558015610373576000805461ff00191690555b50565b606061038583836103e86103bf565b949350505050565b6000606061039c8585856103bf565b915091505b935093915050565b60006103b68385846103bf565b50949350505050565b60006060836001600160a01b0316856001600160a01b031614156103f557505060408051600081526020810190915281906103a1565b6040805160028082526060808301845292602083019080368337019050509050858160008151811061042357fe5b60200260200101906001600160a01b031690816001600160a01b031681525050848160018151811061045157fe5b60200260200101906001600160a01b031690816001600160a01b031681525050600061048561047e610a60565b8684610ad3565b60018151811061049157fe5b602002602001015190506060600367ffffffffffffffff811180156104b557600080fd5b506040519080825280602002602001820160405280156104df578160200160208202803683370190505b50905087816000815181106104f057fe5b60200260200101906001600160a01b031690816001600160a01b031681525050868160028151811061051e57fe5b6001600160a01b039092166020928302919091019091015260005b6001548110156106b6576001818154811061055057fe5b6000918252602090912001546001600160a01b038a811691161480159061059b57506001818154811061057f57fe5b6000918252602090912001546001600160a01b03898116911614155b156106ae57600181815481106105ad57fe5b9060005260206000200160009054906101000a90046001600160a01b0316826001815181106105d857fe5b60200260200101906001600160a01b031690816001600160a01b031681525050600061060c610605610a60565b8985610ad3565b60018451038151811061061b57fe5b60200260200101519050838111156106ac5760408051600380825260808201909252919450849190602082016060803683370190505094506001828154811061066057fe5b9060005260206000200160009054906101000a90046001600160a01b03168560018151811061068b57fe5b60200260200101906001600160a01b031690816001600160a01b0316815250505b505b600101610539565b50825160031480156106c85750600082115b156109f65760408051600480825260a08201909252906020820160808036833701905050905087816000815181106106fc57fe5b60200260200101906001600160a01b031690816001600160a01b031681525050868160038151811061072a57fe5b6001600160a01b039092166020928302919091019091015260005b6001548110156109f45760005b6001548110156109eb5780821415801561079057506001828154811061077457fe5b6000918252602090912001546001600160a01b038b8116911614155b80156107c05750600182815481106107a457fe5b6000918252602090912001546001600160a01b038a8116911614155b80156107f05750600181815481106107d457fe5b6000918252602090912001546001600160a01b038b8116911614155b801561082057506001818154811061080457fe5b6000918252602090912001546001600160a01b038a8116911614155b156109e3576001828154811061083257fe5b9060005260206000200160009054906101000a90046001600160a01b03168360018151811061085d57fe5b60200260200101906001600160a01b031690816001600160a01b0316815250506001818154811061088a57fe5b9060005260206000200160009054906101000a90046001600160a01b0316836002815181106108b557fe5b60200260200101906001600160a01b031690816001600160a01b03168152505060006108e96108e2610a60565b8a86610ad3565b6001855103815181106108f857fe5b60200260200101519050848111156109e15760408051600480825260a08201909252919550859190602082016080803683370190505095506001838154811061093d57fe5b9060005260206000200160009054906101000a90046001600160a01b03168660018151811061096857fe5b60200260200101906001600160a01b031690816001600160a01b0316815250506001828154811061099557fe5b9060005260206000200160009054906101000a90046001600160a01b0316866002815181106109c057fe5b60200260200101906001600160a01b031690816001600160a01b0316815250505b505b600101610752565b50600101610745565b505b8783600081518110610a0457fe5b60200260200101906001600160a01b031690816001600160a01b0316815250508683600185510381518110610a3557fe5b6001600160a01b03909216602092830291909101909101525092509050935093915050565b303b1590565b6000610a6a610c1f565b6001600160a01b031663c45a01556040518163ffffffff1660e01b815260040160206040518083038186803b158015610aa257600080fd5b505afa158015610ab6573d6000803e3d6000fd5b505050506040513d6020811015610acc57600080fd5b5051905090565b6060600282511015610b2c576040805162461bcd60e51b815260206004820152601e60248201527f556e697377617056324c6962726172793a20494e56414c49445f504154480000604482015290519081900360640190fd5b815167ffffffffffffffff81118015610b4457600080fd5b50604051908082528060200260200182016040528015610b6e578160200160208202803683370190505b5090508281600081518110610b7f57fe5b60200260200101818152505060005b6001835103811015610c1757600080610bd187868581518110610bad57fe5b6020026020010151878660010181518110610bc457fe5b6020026020010151610c37565b91509150610bf3848481518110610be457fe5b60200260200101518383610d26565b848460010181518110610c0257fe5b60209081029190910101525050600101610b8e565b509392505050565b737a250d5630b4cf539739df2c5dacb4c659f2488d90565b6000806000610c468585610db7565b5090506000610c56878787610e95565b9050610c6181610f55565b610c715760009350839250610d1c565b600080826001600160a01b0316630902f1ac6040518163ffffffff1660e01b815260040160606040518083038186803b158015610cad57600080fd5b505afa158015610cc1573d6000803e3d6000fd5b505050506040513d6060811015610cd757600080fd5b5080516020909101516dffffffffffffffffffffffffffff91821693501690506001600160a01b0388811690851614610d11578082610d14565b81815b909650945050505b5050935093915050565b60008084118015610d375750600083115b8015610d435750600082115b15610dac576000610d5c856103e563ffffffff610f5b16565b90506000610d70828563ffffffff610f5b16565b90506000610d9683610d8a886103e863ffffffff610f5b16565b9063ffffffff610fbd16565b9050808281610da157fe5b049350505050610db0565b5060005b9392505050565b600080826001600160a01b0316846001600160a01b03161415610e0b5760405162461bcd60e51b81526004018080602001828103825260258152602001806110186025913960400191505060405180910390fd5b826001600160a01b0316846001600160a01b031610610e2b578284610e2e565b83835b90925090506001600160a01b038216610e8e576040805162461bcd60e51b815260206004820152601e60248201527f556e697377617056324c6962726172793a205a45524f5f414444524553530000604482015290519081900360640190fd5b9250929050565b6000806000610ea48585610db7565b604080516bffffffffffffffffffffffff19606094851b811660208084019190915293851b81166034830152825160288184030181526048830184528051908501206001600160f81b031960688401529a90941b9093166069840152607d8301989098527f96e8ac4277198ff8b6f785478aa9a39f403cb768dd02cbee326c3e7da348845f609d808401919091528851808403909101815260bd909201909752805196019590952095945050505050565b3b151590565b600082610f6a57506000610fb7565b82820282848281610f7757fe5b0414610fb45760405162461bcd60e51b815260040180806020018281038252602181526020018061106b6021913960400191505060405180910390fd5b90505b92915050565b600082820183811015610fb4576040805162461bcd60e51b815260206004820152601b60248201527f536166654d6174683a206164646974696f6e206f766572666c6f770000000000604482015290519081900360640190fdfe556e697377617056324c6962726172793a204944454e544943414c5f414444524553534553496e697469616c697a61626c653a20636f6e747261637420697320616c726561647920696e697469616c697a6564536166654d6174683a206d756c7469706c69636174696f6e206f766572666c6f77a2646970667358221220c6bc2927c26ba2a99464023232348a25b7fac4e6b448adb9b4f114e938d3698764736f6c63430006060033",
  "immutableReferences": {},
  "source": "// SPDX-License-Identifier: MIT\npragma solidity 0.6.6;\n\nimport \"@openzeppelin/contracts-upgradeable/proxy/Initializable.sol\";\nimport \"@openzeppelin/contracts-upgradeable/utils/AddressUpgradeable.sol\";\nimport \"@openzeppelin/contracts-upgradeable/math/SafeMathUpgradeable.sol\";\nimport \"./uniswap/RouterInterface.sol\";\nimport \"./uniswap/interfaces/IUniswapV2Pair.sol\";\nimport \"./interfaces/IAssetValuationManager.sol\";\n\ncontract UniswapPathFinder is Initializable, IAssetValuationManager{\n  using SafeMathUpgradeable for uint256;\n\n  address[] internal intermediateTokens;\n\n  function initialize() public initializer {\n    intermediateTokens.push(0xC02aaA39b223FE8D0A0e5C4F27eAD9083C756Cc2); //weth\n    intermediateTokens.push(0xdAC17F958D2ee523a2206206994597C13D831ec7); //usdt\n    intermediateTokens.push(0xA0b86991c6218b36c1d19D4a2e9Eb0cE3606eB48); //usdc\n  }\n\n  function findPath(address fromToken, address toToken) public view returns (address[] memory path) {\n    (, path) = evaluatePath(fromToken, toToken, 1000);\n  }\n\n  function evaluate(address fromToken, address toToken, uint256 fromTokenAmt) public view returns (uint256, address[] memory) {\n    return evaluatePath(fromToken, toToken, fromTokenAmt);\n  }\n\n  function getAssetValuation(address basicToken, address assetToken, uint256 assetAmount) public override view returns (uint256 valuation) {\n      (valuation, ) = evaluatePath(assetToken, basicToken, assetAmount);\n  }\n\n  function getAssetUSDValuation(address assetToken, uint256 assetTokenAmt) public override view returns (uint256 assetTokenOut) {\n    address usdPeggedCoinAddress = 0xA0b86991c6218b36c1d19D4a2e9Eb0cE3606eB48; //usdc\n    if(assetToken == usdPeggedCoinAddress){\n      assetTokenOut = assetTokenAmt;\n    }\n    else {\n     (assetTokenOut,) = evaluatePath(assetToken, usdPeggedCoinAddress, assetTokenAmt);\n    }\n  }\n\n  function uniswapPositionCap(address basicToken, address toToken, uint256 liquidity) internal view returns (uint256){\n      (uint reserveB, uint reserveA) = getReserves(IUniswapV2Router01(uniswapRouter()).factory(), basicToken, toToken);\n      return getAmountOut(liquidity, reserveA, reserveB);\n  }\n\n  function uniswapRouter() internal view returns (address){\n      return 0x7a250d5630B4cF539739dF2C5dAcb4c659F2488D;\n  }\n\n  function uniswapFactory() internal view returns (address){\n      return IUniswapV2Router01(uniswapRouter()).factory();\n  } \n\n  function evaluatePath(address fromToken, address toToken, uint256 fromTokenAmt) internal view returns (uint256, address[] memory) {\n  if(fromToken == toToken)\n      return (fromTokenAmt, new address[](0));\n    address[] memory path = new address[](2);\n    path[0] = fromToken;\n    path[1] = toToken;\n    uint256 resultingAmt = getAmountsOut(uniswapFactory(),fromTokenAmt,path)[1];\n\n    address[] memory internalPath = new address[](3);\n    internalPath[0] = fromToken;\n    internalPath[2] = toToken;\n    for(uint i =0;i < intermediateTokens.length; i++){\n      if(fromToken != intermediateTokens[i] && toToken!= intermediateTokens[i]){\n        internalPath[1] = intermediateTokens[i];\n        uint256 internalResultAmt = getAmountsOut(uniswapFactory(),fromTokenAmt,internalPath)[internalPath.length-1];\n        if(internalResultAmt > resultingAmt){\n          resultingAmt = internalResultAmt;\n          path = new address[](3);\n          path[1] = intermediateTokens[i];\n        }\n      }\n    }\n\n    if(path.length == 3 && resultingAmt>0) { //avoid trying path[4] if intermediate was not successful && direct path gives non zero result\n      internalPath = new address[](4);\n      internalPath[0] = fromToken;\n      internalPath[3] = toToken;\n      for(uint i = 0;i < intermediateTokens.length; i++){\n        for (uint j = 0; j < intermediateTokens.length; j++){\n          if( i != j && fromToken != intermediateTokens[i] && toToken!= intermediateTokens[i] && fromToken != intermediateTokens[j] && toToken != intermediateTokens[j]) {\n            internalPath[1] = intermediateTokens[i];\n            internalPath[2] = intermediateTokens[j];\n            uint256 internalResultAmt = getAmountsOut(uniswapFactory(),fromTokenAmt,internalPath)[internalPath.length-1];\n            if(internalResultAmt > resultingAmt){\n              resultingAmt = internalResultAmt;\n              path = new address[](4);\n              path[1] = intermediateTokens[i];\n              path[2] = intermediateTokens[j];\n            }\n          }\n        }\n      }\n    }\n\n    path[0] = fromToken;\n    path[path.length-1] = toToken;\n\n    return (resultingAmt,path);\n  }\n\n  // returns sorted token addresses, used to handle return values from pairs sorted in this order\n    function sortTokens(address tokenA, address tokenB) internal view returns (address token0, address token1) {\n        require(tokenA != tokenB, 'UniswapV2Library: IDENTICAL_ADDRESSES');\n        (token0, token1) = tokenA < tokenB ? (tokenA, tokenB) : (tokenB, tokenA);\n        require(token0 != address(0), 'UniswapV2Library: ZERO_ADDRESS');\n    }\n\n    // calculates the CREATE2 address for a pair without making any external calls\n    function pairFor(address factory, address tokenA, address tokenB) internal view returns (address pair) {\n        (address token0, address token1) = sortTokens(tokenA, tokenB);\n        pair = address(uint(keccak256(abi.encodePacked(\n                hex'ff',\n                factory,\n                keccak256(abi.encodePacked(token0, token1)),\n                hex'96e8ac4277198ff8b6f785478aa9a39f403cb768dd02cbee326c3e7da348845f' // init code hash\n            ))));\n    }\n\n    // fetches and sorts the reserves for a pair\n    function getReserves(address factory, address tokenA, address tokenB) internal view returns (uint reserveA, uint reserveB) {\n        (address token0,) = sortTokens(tokenA, tokenB);\n        address pairAddress = pairFor(factory, tokenA, tokenB);\n        if(!AddressUpgradeable.isContract(pairAddress)){\n          (reserveA, reserveB) = (0,0);\n        } else{ \n          (uint reserve0, uint reserve1,) = IUniswapV2Pair(pairAddress).getReserves();\n          (reserveA, reserveB) = tokenA == token0 ? (reserve0, reserve1) : (reserve1, reserve0);\n        }\n        \n    }\n\n    // given an input amount of an asset and pair reserves, returns the maximum output amount of the other asset\n    function getAmountOut(uint amountIn, uint reserveIn, uint reserveOut) internal view returns (uint amountOut) {\n        // require(amountIn > 0, 'UniswapV2Library: INSUFFICIENT_INPUT_AMOUNT');\n        // require(reserveIn > 0 && reserveOut > 0, 'UniswapV2Library: INSUFFICIENT_LIQUIDITY');\n        if(amountIn>0 && reserveIn > 0 && reserveOut > 0 ){\n          uint amountInWithFee = amountIn.mul(997);\n          uint numerator = amountInWithFee.mul(reserveOut);\n          uint denominator = reserveIn.mul(1000).add(amountInWithFee);\n          amountOut = numerator / denominator;\n        }else {\n          amountOut = 0;\n        }\n    }\n\n    // performs chained getAmountOut calculations on any number of pairs\n    function getAmountsOut(address factory, uint amountIn, address[] memory path) internal view returns (uint[] memory amounts) {\n        require(path.length >= 2, 'UniswapV2Library: INVALID_PATH');\n        amounts = new uint[](path.length);\n        amounts[0] = amountIn;\n        for (uint i; i < path.length - 1; i++) {\n            (uint reserveIn, uint reserveOut) = getReserves(factory, path[i], path[i + 1]);\n            amounts[i + 1] = getAmountOut(amounts[i], reserveIn, reserveOut);\n        }\n    }\n\n\n\n}\n",
  "sourcePath": "/Users/Burger/dexe/contracts1/dexe-asset-management/contracts/UniswapPathFinder.sol",
  "compiler": {
    "name": "solc",
    "version": "0.6.6+commit.6c089d02.Emscripten.clang"
  },
  "schemaVersion": "3.2.4",
  "updatedAt": "2021-06-08T10:00:09.373Z",
  "devdoc": {
    "methods": {}
  },
  "userdoc": {
    "methods": {}
  }
}