{
  "contractName": "UniswapAutoExchangeTool",
  "abi": [
    {
      "inputs": [
        {
          "internalType": "address",
          "name": "_pathfinder",
          "type": "address"
        }
      ],
      "stateMutability": "nonpayable",
      "type": "constructor"
    },
    {
      "inputs": [
        {
          "internalType": "address",
          "name": "fromToken",
          "type": "address"
        },
        {
          "internalType": "address",
          "name": "toToken",
          "type": "address"
        },
        {
          "internalType": "uint256",
          "name": "amountFrom",
          "type": "uint256"
        }
      ],
      "name": "swapExactTokenForToken",
      "outputs": [
        {
          "internalType": "uint256",
          "name": "",
          "type": "uint256"
        }
      ],
      "stateMutability": "nonpayable",
      "type": "function"
    }
  ],
  "bytecode": "0x608060405234801561001057600080fd5b506040516109d63803806109d68339818101604052602081101561003357600080fd5b5051600080546001600160a01b039092166001600160a01b0319909216919091179055610971806100656000396000f3fe608060405234801561001057600080fd5b506004361061002b5760003560e01c80631c798cff14610030575b600080fd5b6100666004803603606081101561004657600080fd5b506001600160a01b03813581169160208101359091169060400135610078565b60408051918252519081900360200190f35b600080546040805163dac9318f60e01b81526001600160a01b0387811660048301528681166024830152604482018690529151606093929092169163dac9318f916064808201928792909190829003018186803b1580156100d857600080fd5b505afa1580156100ec573d6000803e3d6000fd5b505050506040513d6000823e601f3d908101601f19168201604090815281101561011557600080fd5b81516020830180516040519294929383019291908464010000000082111561013c57600080fd5b90830190602082018581111561015157600080fd5b825186602082028301116401000000008211171561016e57600080fd5b82525081516020918201928201910280838360005b8381101561019b578181015183820152602001610183565b5050505090500160405250505091505060006101c3620151804261040e90919063ffffffff16565b90506101fe6101d061046f565b85846000815181106101de57fe5b60200260200101516001600160a01b03166104879092919063ffffffff16565b606061020861046f565b6001600160a01b03166338ed17398660008633876040518663ffffffff1660e01b81526004018086815260200185815260200180602001846001600160a01b03166001600160a01b03168152602001838152602001828103825285818151815260200191508051906020019060200280838360005b8381101561029557818101518382015260200161027d565b505050509050019650505050505050600060405180830381600087803b1580156102be57600080fd5b505af11580156102d2573d6000803e3d6000fd5b505050506040513d6000823e601f3d908101601f1916820160405260208110156102fb57600080fd5b810190808051604051939291908464010000000082111561031b57600080fd5b90830190602082018581111561033057600080fd5b825186602082028301116401000000008211171561034d57600080fd5b82525081516020918201928201910280838360005b8381101561037a578181015183820152602001610362565b50505050905001604052505050905060006103b28260008151811061039b57fe5b60200260200101518761057390919063ffffffff16565b905080156103ec576103ec3382866000815181106103cc57fe5b60200260200101516001600160a01b03166105b59092919063ffffffff16565b816001815181106103f957fe5b60200260200101519450505050509392505050565b600082820183811015610468576040805162461bcd60e51b815260206004820152601b60248201527f536166654d6174683a206164646974696f6e206f766572666c6f770000000000604482015290519081900360640190fd5b9392505050565b737a250d5630b4cf539739df2c5dacb4c659f2488d90565b60408051636eb1769f60e11b81523060048201526001600160a01b03848116602483015291516000926105189285929188169163dd62ed3e91604480820192602092909190829003018186803b1580156104e057600080fd5b505afa1580156104f4573d6000803e3d6000fd5b505050506040513d602081101561050a57600080fd5b50519063ffffffff61040e16565b604080516001600160a01b038616602482015260448082018490528251808303909101815260649091019091526020810180516001600160e01b031663095ea7b360e01b17905290915061056d90859061060c565b50505050565b600061046883836040518060400160405280601e81526020017f536166654d6174683a207375627472616374696f6e206f766572666c6f7700008152506106bd565b604080516001600160a01b038416602482015260448082018490528251808303909101815260649091019091526020810180516001600160e01b031663a9059cbb60e01b17905261060790849061060c565b505050565b6060610661826040518060400160405280602081526020017f5361666545524332303a206c6f772d6c6576656c2063616c6c206661696c6564815250856001600160a01b03166107549092919063ffffffff16565b8051909150156106075780806020019051602081101561068057600080fd5b50516106075760405162461bcd60e51b815260040180806020018281038252602a815260200180610912602a913960400191505060405180910390fd5b6000818484111561074c5760405162461bcd60e51b81526004018080602001828103825283818151815260200191508051906020019080838360005b838110156107115781810151838201526020016106f9565b50505050905090810190601f16801561073e5780820380516001836020036101000a031916815260200191505b509250505060405180910390fd5b505050900390565b6060610763848460008561076b565b949350505050565b6060610776856108d8565b6107c7576040805162461bcd60e51b815260206004820152601d60248201527f416464726573733a2063616c6c20746f206e6f6e2d636f6e7472616374000000604482015290519081900360640190fd5b60006060866001600160a01b031685876040518082805190602001908083835b602083106108065780518252601f1990920191602091820191016107e7565b6001836020036101000a03801982511681845116808217855250505050505090500191505060006040518083038185875af1925050503d8060008114610868576040519150601f19603f3d011682016040523d82523d6000602084013e61086d565b606091505b509150915081156108815791506107639050565b8051156108915780518082602001fd5b60405162461bcd60e51b81526020600482018181528651602484015286518793919283926044019190850190808383600083156107115781810151838201526020016106f9565b6000813f7fc5d2460186f7233c927e7db2dcc703c0e500b653ca82273b7bfad8045d85a47081811480159061076357505015159291505056fe5361666545524332303a204552433230206f7065726174696f6e20646964206e6f742073756363656564a2646970667358221220aa2ea4bd3b0c51cb07c2f5b18228b69e868db0ee253147d23224707e8cf7cc2d64736f6c63430006060033",
  "immutableReferences": {},
  "source": "\npragma solidity 0.6.6;\n\nimport \"./math/SafeMath.sol\";\nimport \"./token/ERC20/IERC20.sol\";\nimport \"./token/ERC20/SafeERC20.sol\";\nimport \"./interfaces/IAssetAutomaticExchangeManager.sol\";\nimport \"./interfaces/ITraderPool.sol\";\nimport \"./uniswap/RouterInterface.sol\";\nimport \"./uniswap/UniswapV2Library.sol\";\nimport \"./UniswapPathFinder.sol\";\n\n/**\n    UNISWAP based example. \n */\ncontract UniswapAutoExchangeTool is IAssetAutomaticExchangeManager {\n    \n    using SafeMath for uint256;\n    using SafeERC20 for IERC20;\n    UniswapPathFinder internal pathfinder;\n\n    constructor(address _pathfinder) public {\n        pathfinder = UniswapPathFinder(_pathfinder);\n    }\n\n    function swapExactTokenForToken(\n        address fromToken, \n        address toToken, \n        uint256 amountFrom) public override\n        returns (uint256){\n\n    (,address[] memory path) = pathfinder.evaluate(fromToken, toToken, amountFrom);\n    uint deadline = block.timestamp.add(86400);\n        \n    IERC20(path[0]).safeIncreaseAllowance(uniswapRouter(), amountFrom);\n    uint[] memory out = IUniswapV2Router01(uniswapRouter()).swapExactTokensForTokens(\n        amountFrom,\n        0,\n        path,\n        msg.sender,\n        deadline\n    );\n    //return back non spent original tokens\n    uint256 backTokenAmt = amountFrom.sub(out[0]);\n    if(backTokenAmt > 0)\n        IERC20(path[0]).safeTransfer(msg.sender, backTokenAmt);\n\n    return out[1];\n    }\n\n     // returns sorted token addresses, used to handle return values from pairs sorted in this order\n    function _sortTokens(address tokenA, address tokenB) internal pure returns (address token0, address token1) {\n        require(tokenA != tokenB, 'UniswapV2Library: IDENTICAL_ADDRESSES');\n        (token0, token1) = tokenA < tokenB ? (tokenA, tokenB) : (tokenB, tokenA);\n        require(token0 != address(0), 'UniswapV2Library: ZERO_ADDRESS');\n    }\n\n    // calculates the CREATE2 address for a pair without making any external calls\n    function _pairFor(address factory, address tokenA, address tokenB) internal pure returns (address pair) {\n        (address token0, address token1) = _sortTokens(tokenA, tokenB);\n        pair = address(uint(keccak256(abi.encodePacked(\n                hex'ff',\n                factory,\n                keccak256(abi.encodePacked(token0, token1)),\n                hex'96e8ac4277198ff8b6f785478aa9a39f403cb768dd02cbee326c3e7da348845f' // init code hash\n            ))));\n    }\n\n    function uniswapRouter() internal view returns (address){\n        return 0x7a250d5630B4cF539739dF2C5dAcb4c659F2488D;\n    }\n\n}\n",
  "sourcePath": "/Users/Burger/dexe/contracts1/dexe-asset-management/contracts/UniswapAutoExchangeTool.sol",
  "compiler": {
    "name": "solc",
    "version": "0.6.6+commit.6c089d02.Emscripten.clang"
  },
  "schemaVersion": "3.2.4",
  "updatedAt": "2021-05-31T12:09:06.708Z",
  "devdoc": {
    "methods": {}
  },
  "userdoc": {
    "methods": {},
    "notice": "UNISWAP based example. "
  }
}